:020000040800F2
:10800000F06600204581000823C20008C1C00008B6
:1080100021C20008419800081BCC000800000000A5
:10802000000000000000000000000000ADC30008D8
:10803000B59800080000000079C300084DC400088E
:108040005F8100085F8100085F8100085F81000890
:108050005F8100085F8100085F8100085F81000880
:108060005F8100085F8100085F8100086598000853
:10807000719800085F8100085F8100085F81000837
:108080005F8100085F8100085F8100085F81000850
:1080900019CC00085F8100085F8100085F8100083B
:1080A0005F8100085F8100085F8100085F81000830
:1080B000C9C400085F810008D5C400085F810008BA
:1080C0005F8100085F8100085F8100085F81000810
:1080D0005F81000801CC00080DCC00085F8100081A
:1080E0005F8100085F8100085F8100085F810008F0
:1080F0005F8100085F8100085F8100085F810008E0
:108100005F8100085F8100085F8100085F810008CF
:108110005F8100085F8100085F8100085F810008BF
:108120005F8100085F8100085F8100085F810008AF
:10813000DFF80CD001F0EAF80048004765000108BC
:10814000F06600200648804706480047FEE7FEE745
:10815000FEE7FEE7FEE7FEE7FEE7FEE7FEE7FEE7F7
:10816000C7C40008318100082DE9F05F05460020F2
:1081700092469B4688460646814640241BE0284698
:1081800041464746224600F020F853465A46C01A58
:10819000914110D311461846224600F023FE2D1AB5
:1081A00067EB01084F4622460120002100F01AFE2D
:1081B00017EB00094E41201EA4F10104DFDC484604
:1081C00031462A464346BDE8F09F202A04DB203A88
:1081D00021FA02F00021704721FA02F3D040C2F1E7
:1081E00020029140084319467047A0F14101192926
:1081F00000D82030704796230022114600F0ADBE13
:1082000078563412EFCDAB89030010B5431A934270
:1082100009D28318881803E010F8011D03F8011D26
:10822000521EF9D210BD40EA01039B0703D009E0BA
:1082300008C9121F08C0042AFAD203E011F8013B52
:1082400000F8013B521EF9D210BDD2B201E000F895
:10825000012B491EFBD270470022F6E710B51346EA
:108260000A4604461946FFF7F0FF204610BD30B518
:1082700005462A460B4612F8010B13F8014B08B1CC
:10828000A042F8D01CB1002802D06D1CF1E72846AE
:1082900030BD10B5044604E00B7800F8013B03B193
:1082A000491C521EF8D2204610BDCAB2401E10F81A
:1082B000011F8A4202D00029F9D100207047421CD8
:1082C00010F8011B0029FBD1801A704710B500225D
:1082D00000E0521C835C8C5CA34201D1002BF8D1DE
:1082E000D8B2E1B2401A10BD30B5044600200346B2
:1082F00000E05B1C934203D2E05CCD5C401BF8D0F5
:1083000030BD034611F8012B00F8012B002AF9D1EA
:108310001846704730B505460020034600E05B1C58
:10832000934205D2EC5CC85C201A01D1002CF6D136
:1083300030BD0246C9B200E0401C0378002BFBD1DF
:1083400002E003788B4203D0401E9042F9D2002015
:10835000704700000FB400B58DB010A909900B90C4
:1083600000914FF0FF300A9000200C9005480690D5
:10837000054807906A4609A80F9900F069FD0DB0FD
:108380005DF814FB6D8E00088B8E00082DE9FF5FF1
:108390001D464FF0FF3BD5E9014691465F464FF041
:1083A0000008A9697F1C01988847296A8246884786
:1083B0000028F6D1BAF1FF3F0CD024F4C064002E9F
:1083C00019DD600614D5BAF12B0F09D0BAF12D0FC3
:1083D0000ED103E0584604B0BDE8F09F44F4806439
:1083E000A9697F1C01988847761E8246002E02DD0F
:1083F000BAF1300F03D0B9F1000F26D032E0A969ED
:10840000761E44F400747F1C019888478246002E33
:1084100005DDBAF1780F06D0BAF1580F03D0B9F1E3
:10842000000F10D01EE0B9F1000F02D0B9F1100F0B
:1084300018D1A969761E24F400747F1C019888471E
:108440008246102002E0082000E00A20814609E070
:1084500008FB0908A969761E44F400747F1C019882
:1084600088478246002E05DD4946504600F0DBFC79
:108470000028EDDAE96901988847A00502D46FF079
:108480000100A8E7E00725D1600613D5600502D5F5
:10849000C8F1000000E0404629680A1D2A6009680A
:1084A000220501D5087015E0220701D5088011E0EA
:1084B00008600FE02868011D29600068210502D5C9
:1084C00080F8008006E0210702D5A0F8008001E0D6
:1084D000C0F8008038467EE72DE9FF4F087883B06A
:1084E0009946FF2805D0491C2D2804D000240020DF
:1084F00008E000200BE00124F9E700EB800003EB2B
:108500004000491C0B78FF2BF7D104B140420023F7
:108510000293147819461D462D2C01D02B2C04D122
:10852000521C2D2C13D000240294AA461478FF2C40
:108530000FD00A25A3FB057801FB05814FF0000C45
:1085400003FB0C11521CE3194AEB0101EEE7012475
:10855000EAE7814453EA010002D019F5C87F06DA40
:1085600003980021C0E9001107B0BDE8F08F002595
:10857000AE4E2F46DFF8B882184600F05EFECDE919
:108580000001B9F1000002DAC9F1000400E004467C
:108590000023A74A1AEB030B42EB045A12E0E00750
:1085A00007D02A4633463846414600F0C0FA07460F
:1085B00088462A4633461046194600F0B8FA054662
:1085C0000E466410002CEAD1DDE90001B9F1000F7C
:1085D0005A46534606DA00F0C1FD3A46434600F0DB
:1085E000BDFD05E000F0A3FA3A46434600F09FFACD
:1085F000029A0AB181F00041039AC2E90001B3E78F
:108600002DE9FF4F1F468DB0D7E901464FF0FF38E7
:108610002E2045464FF000090B90B9696D1C0E984D
:108620008847396A824688470028F6D1BAF1FF3F69
:108630000AD024F4D064002E11DDBAF12B0F08D03B
:10864000BAF12D0F0BD102E0404611B08DE744F492
:108650008064B9696D1C0E9888478246761E69460B
:10866000600501D52D2000E02B208DF8000001F1E0
:10867000010B0DF1200809E0B9696D1C0E988847BF
:1086800082460F9844F40074761E0560002E02DDC9
:10869000BAF1300FF0D00B998A453ED144F08004F6
:1086A00006E00F99681CA9F1010944F40074086000
:1086B000B9696D1C761E0E98884782463028F0D026
:1086C0002BE00B998A4505D1200603D444F08004A1
:1086D000761E18E0504605F0EDF808B30DF11301D1
:1086E000761E44F400748B4508D2AAF130000BF8D2
:1086F000010B200607D5A9F1010003E0200602D4F2
:1087000009F101008146A00502D50F99681C086097
:10871000B9696D1C0E9888478246002ED1DC53E063
:10872000002E51DDBAF1650F02D0BAF1450F4BD1E1
:10873000A00549D5B9696D1C24F44074761E0E98C5
:1087400088478246002E0CDD2B2804D0BAF12D0F6D
:1087500007D144F48074B9696D1C0E98884782462D
:10876000761EE00501D52D2100E02B2108F8011B24
:10877000CDF82C8021E00DF12901761E44F400741F
:1087800088450CD2AAF1300010F0FF0088F80000F4
:1087900002D10B99884509D908F1010806E0E005E6
:1087A00001D5244801E042F20F708146B9696D1C81
:1087B0000E98884782460F980560002E04DD5046CB
:1087C00005F078F80028D6D1F9690E988847FF207F
:1087D0008BF8000088F800000020069007904B46B8
:1087E0006A4608A906A8FFF777FEA00502D46FF035
:1087F00001002AE714F0240F0AD0E00714D1DDE9C4
:1088000006123868031D3B600068C0E900120BE0E7
:10881000DDE9060100F05BFD0146E00704D13868A0
:10882000021D3A600068016028460EE7000014400F
:108830000000F03FF1D8FFFFF0B480EA0102D40F4E
:108840004200B2EB410F02D20246084611464A00EE
:1088500042D0C30DDDB2C1F3C752AD1A202D35DAB7
:10886000C1F3160141F4000204B15242C5F12006E1
:1088700002FA06F12A411044B3EBD05F23D0C4B111
:10888000012DA0EBC35009DCF0BC4FF0004202EA1E
:10889000C352DBB200F5000000F05FBB400000F106
:1088A000807000EBC350A0F1807040EAD1704900A5
:1088B00009E0490841EAC071A0EBC35000F500008F
:1088C000400800EBC350F0BC00F03EBB6142012207
:1088D00002EB4101001BF6E7F0BC704781F000415C
:1088E000AAE780F00040A7E780EA010210B502F095
:1088F0000043400022D04A001FD0010E01EB12615C
:10890000C0F35600C2F3560240F4000042F40002E5
:10891000A0FB022000047F39140400D0401C50EA60
:10892000124001D44000491EC2B20C0604EBD01024
:10893000401C4008802A02D003E0002010BD20F037
:108940000100002900DA0020184310BD30B480EA8D
:10895000010202F0004530F0004221F0004013D047
:1089600090B1C30DD40DC2F31601C0F31600E41A82
:1089700041F4000140F400027D34914201D3641CB3
:1089800000E04900002C02DA30BC002070474FF4B0
:1089900000000023914201D3891A034340084FEAA3
:1089A0004101F7D151B1914202D14FF0004105E0B0
:1089B00002D24FF0010101E06FF0010103EBC4505E
:1089C000284430BC00F0C0BA420005D0C0F3C75202
:1089D0005242914201DC0020704700EBC1507047C9
:1089E0002DE9FE4F804681EA0300C00F0C4600903F
:1089F00021F0004123F00045B8EB0200A94105D267
:108A00004046214690461C460B46024623F0004055
:108A1000104347D0270DC7F30A00C3F30A51029051
:108A2000401A019040286BDAC3F3130040F4801B16
:108A30000098924620B10023D2EB030A63EB0B0BA4
:108A400001985946C0F14002504600F0CBF9064665
:108A50000D4650465946019A00F0D3F910EB080034
:108A60006141002487EA115284EAE7731A4340D037
:108A7000009A62B3019A012A4FEA075215DC001BE3
:108A800061EB02014FF0004202EA0752CDE90042D9
:108A9000001C41F5801132462B4600F011FB03B05B
:108AA000BDE8F08F40462146F9E7001B61EB02016B
:108AB000001C41F5801300185B412018A2F5001737
:108AC00047EB030140EAD570B6196D4111E06D081E
:108AD0004FEA360645EAC0754FEA0752001B61EBC4
:108AE0000201001C41F5801149084FEA30000019CD
:108AF000514132462B4603B0BDE8F04F00F0D1BAE9
:108B00000098012240000023D0EB020263EBE073E7
:108B1000009821464FEAE074B8EB000061EB0401D5
:108B2000E9E783F000435BE781F0004158E72DE976
:108B3000FE4F81EA030404F0004421F00041009458
:108B40004FF0000B23F0004350EA01045ED052EADC
:108B500003045BD0C3F30A54C1F30A552C44A4F2B6
:108B6000F3340194A0FB0254C1F3130141F48011CA
:108B7000C3F3130343F4801301FB024400FB034ED1
:108B8000840A970A44EA815447EA8357A4FB07689A
:108B900002958D0A05FB07854FEA932C04FB0C54C4
:108BA0002705029D4FEA065847EA1637B5EB080538
:108BB0006EEB070C870E920E47EA811742EA83128A
:108BC000A7FB0201B6EB0B0164EB00042B0D43EA9B
:108BD0000C335E1844EB1C50DA465146E7FB0201A9
:108BE000C5F313044FEA0B3343EA14534FEA04323C
:108BF000019C43EA0603A4F10C040294009CCDE915
:108C000000B400F05DFA03B0BDE8F08F002001462B
:108C1000F9E770B521F0004303430CD0C1F30A55C6
:108C20000024D5EB040564EB0403D617AD1AB34159
:108C300002DB0020014670BD201841EB025170BDDF
:108C4000C10F80EAE0700844CA079623002100F0B3
:108C500084B90EB5C10F80EAE0700844CA0700214C
:108C600040F233438DE80E000A460B4600F028FA26
:108C700003B000BD0EB540F2334102910021CDE9B1
:108C800000110A460B4600F01BFA03B000BD00F0CD
:108C9000004220F00040C10DC0F3160040F4000077
:108CA0007F2901DA00207047962903DCC1F1960183
:108CB000C84001E096398840002AF4D0404270470D
:108CC00020F00040C10DC0F3160040F400007F29E1
:108CD00001DA00207047962903DCC1F19601C840F3
:108CE000704796398840704770B5C1F30A5201F059
:108CF00000450024C1F3130140F2FF3341F4801119
:108D00009A4201DA002070BD40F233439A42A2F247
:108D1000334203DC5242FFF758FA00E090402C4304
:108D2000F1D0404270BDC1F30A5210B5C1F3130136
:108D300040F2FF3341F480119A4201DA002010BD65
:108D400040F233439A42A2F2334203DC5242FFF72D
:108D50003CFA10BD904010BD30B5041E71F1000406
:108D600004DB4FF00044404264EB0101141E73F138
:108D7000000405DB1C464FF00043524263EB040342
:108D80008B4208BF824230BD30B5041E71F1000431
:108D900004DB4FF00044404264EB0101141E73F108
:108DA000000405DB1C464FF00043524263EB040312
:108DB000994208BF904230BD30B50B4601460020B5
:108DC0002022012409E021FA02F59D4205D303FA8D
:108DD00002F5491B04FA02F52844151EA2F101020E
:108DE000F1DC30BD202A04DB203A00FA02F1002039
:108DF00070479140C2F1200320FA03F319439040D9
:108E00007047202A06DBCB17203A41FA02F043EAEA
:108E1000E07306E041FA02F3D040C2F12002914033
:108E20000843194670473A2800D2303820F0200213
:108E3000412A01D3A2F13700884201D34FF0FF301D
:108E400070470000026811441378016018467047AB
:108E5000D160044951610449116200211161114638
:108E600000F06CBA458E000831930008426842B1A8
:108E7000016811F8013B23B1521EC0E900121846E7
:108E800070470121C160881E704742685AB1C368AB
:108E9000016843B983688B4205D0491E521CC0E962
:108EA0000012002070474FF0FF3070470FB40023CE
:108EB00000B589B00CA900910B996FF00042CB600E
:108EC0001E4B06931E4B07930423CDE901321D4A26
:108ED000089202466B460020FFF792FB09B05DF84E
:108EE00014FB70B586B006464FF0FF300091CDE917
:108EF0000101002015460C4604903246694604A83C
:108F0000FFF7D4FF02460498211825B108B108469E
:108F100000E020462860049800280DD0002A02DDD9
:108F20000098884208D0081B0094CDE9010432461D
:108F3000694604A8FFF7BAFF06B070BD6D8E000841
:108F40008B8E0008319300080029A8BF7047401C91
:108F5000490008BF20F00100704710B4B0FA80FC4F
:108F600000FA0CF050EA010404BF10BC704749B18C
:108F7000CCF1200421FA04F411FA0CF118BF0121FC
:108F800021430843A3EB0C01CB1D4FEA00614FEADC
:108F9000102042BF002010BC704700EBC3501044AB
:108FA0000029A4BF10BC7047401C490008BF20F036
:108FB000010010BC7047F0B4002802DCF0BC0020B7
:108FC0007047C0F3C751C0F3160040F40000CA0751
:108FD00001D14000491E3F2202EB610500221146EB
:108FE0004FF4000626FA01F31344D418844201D842
:108FF000001B1A464000491C1729F3DD510081422D
:1090000002D24FF0FF3100E0002102EBC550F0BC6E
:10901000FFF79ABF10B541000CD0C0F3C751962995
:1090200008DC7E2909DC06DB410204D000F00040A8
:1090300040F07E5010BD002010BDC1F19604C4F177
:10904000200100FA01F1E040FFF77EFFA04010BDD3
:10905000F0B400F0004221F0004120F00040CE0DBD
:10906000C30DC1F3160141F40001C0F316004C42D8
:10907000154640F40000761E09E010EB440002D5CE
:1090800082F0004240428842F7D840005B1EB34263
:10909000F9DA18B1F0BC0021FFF75FBF2846F0BC39
:1090A000704710B5141E73F1000408DA401C41F13A
:1090B000000192185B411A4301D120F0010010BD5C
:1090C0002DE9F04D92469B4611B1B1FA81F202E0D2
:1090D000B0FA80F220329046FFF784FE04460F4635
:1090E00040EA0A0041EA0B0153465A46084313D0AE
:1090F000114653EA010019D0C8F140025046FFF76B
:1091000064F805460E46504659464246FFF76AFE49
:10911000084305D0012004E020463946BDE8F08D23
:109120000020054346EAE0762C4337430A9863055E
:10913000E40AA0EB08000022FD0A44EA47540A3082
:1091400002D500200146E9E7010510196941DDE972
:10915000084500196941BDE8F04DA2E72DE9F04D41
:1091600081EA030404F0004B21F0004514464FF05F
:10917000000A23F0004150EA050220D054EA01021F
:109180001DD0C5F30A570246C5F31303C1F31300FC
:10919000C1F30A5640F4801543F48013A7EB060888
:1091A000101BD64608F2FD3873EB050002D308F118
:1091B000010801E092185B41B8F1000F03DA0020CA
:1091C0000146BDE8F08D00204FF48011064684462C
:1091D0000EE0171B73EB050705D3121B63EB0503AA
:1091E00006434CEA010C49084FEA300092185B41F3
:1091F00050EA0107EDD152EA030012D082EA0400DE
:1092000083EA0501084305D0101BAB4106D20122B9
:10921000002306E000224FF0004302E06FF001025D
:1092200053101AEB06004CEB085110EB0A0041EB0F
:109230000B01BDE8F04DFFF734BF0EB540F23342ED
:1092400002920022CDE900221346FFF739FF03B056
:1092500000BDC1F30A52C1F3130140F2FF3341F4E0
:1092600080119A4202DA00200146704740F23343EF
:109270009A42A2F2334202DC5242FEF7A6BFFFF747
:10928000B1BD10B500F0004420F00040C20DC0F3A5
:10929000160040F400007F2A07DA7D2A00DA7D22DA
:1092A000763A00FA02F1002008E0962A09DCA2F1E1
:1092B000760100FA01F1C2F19602D040FFF744FEB8
:1092C00001E0963A9040002C00D0404210BD01F0E1
:1092D000004330B421F0004150EA010206D00A0DEB
:1092E000A2F56072C1F31301002A02DC30BC002039
:1092F0007047440F44EAC104C100E01830BC00EBE1
:10930000C250FFF721BE002070470000064C074DF9
:1093100006E0E06840F0010394E807009847103445
:10932000AC42F6D3FEF708FFA48C0108C48C0108F8
:10933000C0B24FF4F05100F097B900002DE9F34F9F
:109340008BB04FF0000801F10C000C464FF0010B00
:1093500046460DF1080A0190626901210198904783
:10936000051E2DD0252D2CD0216A8847C0B16269F9
:10937000012101989047216A88470028F7D1411EB2
:1093800062690198904700E0761CA1690B988847B4
:10939000216A88470028F7D1E1690B988847DBE705
:1093A000A1690B9888470746A84201D1761CD3E7EC
:1093B000E1690B9888477F1C02D1B8F1000F6FD08C
:1093C00046E1002762693D463946019890472A28C0
:1093D00004D162690121019890470125DFF8849248
:1093E0006269012101989047A0F130010A290AD24F
:1093F0004F45E5DC07EB870100EB4107303FDFD449
:1094000045F01005ECE7E90601D46FF000476C2841
:109410000AD04C2814D0682815D06A280DD074289A
:109420001CD07A281AD01DE062690121019890476A
:109430006C2802D045F0040514E045F002050DE06B
:1094400045F020050AE062690121019890476828EB
:1094500002D045F0080505E045F400656269012188
:1094600001989047C4E9015765283DD019DC582878
:109470007AD00CDC452837D004DC252826D04128BA
:1094800031D131E046282FD047282CD12CE05B2861
:1094900077D0612828D063287CD0642823D15AE073
:1094A000D0E06F2848D008DC66281DD067281BD084
:1094B000692821D06E2816D127E0702845D073285E
:1094C00068D0752847D078280DD14DE0A1690B9858
:1094D0008847054625283FF469AFE1690B9888471E
:1094E0006D1C3FF46AAFB3E023466A466FF001009B
:1094F0000B99FFF785F89EE045F040006060A807F3
:1095000023464FF0000236D43EE0E8077FF447AF31
:109510002068011D21600068290501D506701BE740
:10952000290701D5068017E7A90703D5F117C0E978
:10953000006111E706600FE745F040006060A80792
:1095400023464FF0080216D41EE040F60E0125EA2D
:109550000100606016E045F040006060A807234607
:109560004FF00A0207D40FE045F040006060A80702
:1095700008D5234610226FF001000B99AFF300804D
:1095800059E007E0234610226FF001000B99FEF727
:10959000FDFE50E04FF000094F464B46632802D0D5
:1095A0005B2806D040E0E80601D40120A060012736
:1095B0003AE062690121019890475E2805D14FF099
:1095C00001096269494601989047216939B900212A
:1095D0000A46534643F82120491C0829FADBB0B358
:1095E000216969B9C11700EBD16253110AEB8301FC
:1095F00022F01F02821A01200B68904003430B6087
:1096000062690121019890475D28E8D1B9F1000F06
:1096100009D00020514651F82020D24341F82020A3
:10962000401C0828F7DB02AB224600976FF00100D0
:109630000B99AFF3008000280CDA401C08D1BBF175
:10964000000F05D04FF0FF300DB0BDE8F08FFFE701
:109650004046F9E7E90701D108F1010806444FF057
:10966000000B79E6CCCCCC0C7F2801D9002208E095
:10967000064A02EB5002C007127800D1120902F02C
:109680000F0201209040084070470000D08A010876
:1096900070B58C1810F8015B15F0070301D110F8B4
:1096A000013B2A1106D110F8012B03E010F8016BE1
:1096B00001F8016B5B1EF9D12B0705D40023521E64
:1096C0000DD401F8013BFAE710F8013BCB1A921CCC
:1096D00003E013F8015B01F8015B521EF9D5A142CA
:1096E000D8D3002070BD70B504462068816811F0A1
:1096F000010F24D0816821F00101816001F018F987
:1097000005462068806810F0010F18D001F010F9AC
:10971000401B02280ED92068806810F0010F09D084
:10972000A06A40F01000A062E06A40F00100E06230
:10973000012070BD2068806810F0010FE6D1002084
:1097400070BD10B50246506A816A11F0500F05D005
:10975000006A016BBDE8104010460847816A41F479
:1097600000718162016889684FF4602232EA010168
:109770000DD1017B59B9816A21F480718162816ABE
:1097800011F4805F03D1816A41F00101816200F030
:10979000B9FB10BD10B5406A816A41F04001816299
:1097A000C16A41F00401C16200F0AEFB10BD10B50A
:1097B000406A00F0A8FB10BDF8B5044600260096EC
:1097C0002068816811F0010F28D1816841F0010102
:1097D0008160194819490068B0FBF1F000900098C9
:1097E00028B10098401E009000980028F9D101F09F
:1097F0009FF805462068806810F0010F0ED101F037
:1098000097F8401B022804D92068806810F0010FE7
:1098100006D02068806810F0010FF0D00020F8BD5D
:10982000A06A40F01000A062E06A40F00100E0622F
:1098300084F824600120F8BD1400002040420F008D
:10984000FEE70000064A527B3AB1322251436422BD
:10985000B1FBF2F101800120704700207047000049
:109860003C020020014800F041BD000060170020CC
:10987000014800F03BBD00006007002010B490F8E4
:1098800040C0012404FA0CFCC46BC4F804C0D0F836
:1098900000C0CCF804304368102B05D003689960F1
:1098A0000068C26010BC704703689A600068C160BD
:1098B00010BC7047704700000C4800B5816985B046
:1098C00041F0080181618069694600F00800049058
:1098D0004FF4E0400090012001900220029003200C
:1098E0000390034800F018FF05B000BD00100240CF
:1098F000000C01402DE9F041054602F0F3FF082479
:10990000114F4FF40058E602E80701D0012200E0B1
:1099100000224146384601F004F803F081FD01229F
:109920003146384600F0FDFF03F07AFD0022314653
:10993000384600F0F6FF6D08641E14F0FF04E3D112
:10994000BDE8F04103F06CBD000C01402DE9F04191
:10995000002502F0A9FF02F0E3FF154F0024DFF815
:1099600050804FF48046083FD8F8001068088904FA
:1099700002D540F0800501E000F07F0503F050FDC6
:1099800001223146384600F0CCFF03F049FD0022A9
:109990003146384600F0C5FF03F042FD641CE4B2D6
:1099A000082CE1D303F03CFD2846BDE8F08100001F
:1099B000080C01402DE9F041044672B60022144E15
:1099C0004FF480552946304600F0ABFFAF0000222F
:1099D0003946304600F0A5FF03F022FD012229465A
:1099E000304600F09EFF2046FFF784FFFFF7AEFFF2
:1099F000044600223946304600F093FF00222946F3
:109A0000304600F08EFF62B62046BDE8F0810000CF
:109A1000000C014070B58125064600242846FFF75A
:109A2000C9FF3055AD1C641CE4B2EDB2072CF5D370
:109A300031780B480B064FF000020DD503785B1C04
:109A4000DBB203700A2B08D3027001F07F00307084
:109A5000304600F045F800E00270012070BD0000C3
:109A6000E002002010B500218E2000F00BF8A521A7
:109A7000902000F007F88021BDE810408E2000F013
:109A800001B800002DE9F041144D884607464FF417
:109A9000805400222146284600F043FFA600002201
:109AA0003146284600F03DFF03F0BAFC0122214672
:109AB000284600F036FF3846FFF71CFF4046FFF708
:109AC00019FF00223146284600F02BFF2146284688
:109AD000BDE8F041002200F024BF0000000C01406E
:109AE00070B50646802500218E20FFF7CBFF0724A6
:109AF00031782846FFF7C6FFAD1C641E761CEDB218
:109B000014F0FF04F4D180218E20FFF7BBFF012069
:109B100070BD704706490020C8610648016941F0E0
:109B200004010161016941F04001016170470000D9
:109B3000C805002000200240064A0021D1610649E4
:109B40000A6942F002020A614861086940F0400077
:109B500008617047C805002000200240044B002225
:109B6000DA61044A136943F001031361018070470D
:109B7000C80500200020024000201649CA6812F0E3
:109B8000100F154A04D0D06940F00200D0611020B7
:109B9000CB6813F0040F05D0D36943F00103D36100
:109BA00040F00400CB6913F0010F07D0D36943F0F4
:109BB0000403D361CA6922F00102CA61A0F5807270
:109BC000013A01D0C8607047C86920F00100C8613F
:109BD0007047000000200240C805002070B5044610
:109BE00000F0A6FE0646164DE86810F0010F0ED0F4
:109BF000B4F1FF3F07D024B100F09AFE801BA042D1
:109C000001D9032070BDE86810F0010FF0D1E868B9
:109C100010F0200F01D02020E860E86810F0100F4D
:109C200007D1E86910F0010F03D1E86810F0040FC4
:109C300003D0FFF7A1FF012070BD002070BD000020
:109C40000020024030B50446104607E014F8015BDE
:109C5000C2B2554033F8152082EA10200A1EA1F145
:109C60000101F3DC30BD30B5022903D80C31401EB0
:109C7000C9B280B26424B0FBF4F3B0FBF4F504FB8A
:109C80001500491C01EB810404EBC1010524B1FB63
:109C9000F4F11BB2DC1703EB9474A4105B4204EBE9
:109CA00043030344C41700EB947003EBA000084483
:109CB0001044401E00B2002802DA00F2245000B224
:109CC000072190FBF1F201FB1200C0B230BD000091
:109CD000F8B504460026009694F82400012809D01F
:109CE000012084F824002046FFF7FDFC07463800D9
:109CF00002D06DE00220F8BDA06A20F4885040F048
:109D00000200A062022000F001FF33490968B1FBA4
:109D1000F0F040000090009828B10098401E00909C
:109D200000980028F9D12046FFF746FD2068816899
:109D300041F00801816000F0FBFD05462068806865
:109D400010F0080F18D000F0F3FD401B0A280ED9C0
:109D50002068806810F0080F09D0A06A20F0020087
:109D600040F01000A06284F824600120F8BD206853
:109D7000806810F0080FE6D12068816841F0040186
:109D8000816000F0D5FD05462068806810F0040F62
:109D900018D000F0CDFD401B0A280ED9206880683D
:109DA00010F0040F09D0A06A20F0020040F010006B
:109DB000A06284F824600120F8BD2068806810F05B
:109DC000040FE6D1A06A20F0020040F00100A0627A
:109DD00084F824603846F8BD1400002078B44FF0B1
:109DE000000C0024009490F82420012A14D00122B1
:109DF00080F824204A681F25072A10D203685E6B6A
:109E0000521E02EB8202954026EA05050E6806FA0C
:109E100002F22A435A631FE078BC022070470D2AE1
:109E20000DD203681E6BD21F02EB8202954026EA18
:109E300005050E6806FA02F22A431A630CE003686D
:109E4000DE6A0D3A02EB8202954026EA05050E68AD
:109E500006FA02F22A43DA620A6807250A2A0DD3B3
:109E60000368DE680A3A02EB4202954026EA0505DD
:109E70008E6806FA02F22A43DA600BE003681E6974
:109E800002EB4202954026EA05058E6806FA02F2C8
:109E90002A431A610A68102A01D0112A0BD10268DC
:109EA000A2F18043B3F592330AD0816A41F02001D8
:109EB00081624FF0010C80F8244078BC6046704706
:109EC000936813F4000FF6D1936843F40003936092
:109ED00009681029EFD10949094A0968B1FBF2F173
:109EE00001EB81014900009100990029E3D000991C
:109EF000491E009100990029F9D1DCE714000020E7
:109F000040420F0070477047704700002DE9F04154
:109F1000044600270025002C03D0A06A002618B1B3
:109F200008E00120BDE8F081E66284F82460204664
:109F300000F07CF82046FFF7D6FB0146A06A10F03F
:109F4000100F00D139B1A06A40F01000A0620121C9
:109F50000846BDE8F081A06A20F4885040F0020075
:109F6000A062E2696068237B104347EA4302024330
:109F7000A068B0F5807F08D0012806D0002094F8B2
:109F800014C0BCF1010F03D00BE04FF48070F6E772
:109F9000F3B1A36A43F02003A362E36A43F0010331
:109FA000E3622368D3F804C02CF4694C4CEA000047
:109FB000586020688368DFF86CC003EA0C03134321
:109FC0008360A068B0F5807F09D0012807D009E040
:109FD000A3695B1E40EA433040F40060E1E7208A59
:109FE000401E05052068C36A23F470032B43C36237
:109FF000206880680C4B1840904207D1E662A06A46
:10A0000020F0020040F00100A062A1E7A06A20F069
:10A01000020040F01000A062E06A40F00100E0623F
:10A02000012195E7FDF7E1FFFE0E1FFF70B586B039
:10A0300000250646009501950295039500681D4987
:10A04000884234D11C49886940F40070886188696D
:10A0500000F400700490886940F008008861886905
:10A06000032400F00800049000946946019413480A
:10A0700000F052FB5020CDE900046946104800F082
:10A080004BFB114C0F48C4E900058020C4E9025085
:10A0900040002061800060612020C4E90605204660
:10A0A00000F0DCF908B1FFF734FD3462666206B0F7
:10A0B00070BD00000024014000100240000C01406F
:10A0C0000008014008000240601700202DE9F04719
:10A0D0000446884691462068434F444EA0F1804A8A
:10A0E000BAF5923A01D0B84207D1306810F4702F17
:10A0F00003D001252846BDE8F08794F82400012804
:10A100000BD0012084F824002046FFF755FB0546BC
:10A1100000212DB184F82410ECE70220BDE8F0877F
:10A12000A06A20F0010020F4606040F48070A0621A
:10A130002068B8421AD1326812F4702F16D0A26A81
:10A1400042F48012A262306810F4806F05D0A06AD9
:10A1500020F4005040F48050A062A06A10F4805FA8
:10A1600013D0E06A20F00600E0620FE0A26A22F459
:10A170008012A262406810F4806FEED0A06A20F4D2
:10A18000005040F48050A062E7E7E16284F82410B8
:10A19000216A17488862216A1648C862216A1648EF
:10A1A000086321686FF0020008602068816841F44C
:10A1B0008071816020684B4600F14C014246206A64
:10A1C00000F08EF9206881684FF4602232EA0101C4
:10A1D00004D0816841F4801181608BE7816841F48B
:10A1E000A001816086E700000028014004240140AE
:10A1F00043970008AF9700089597000890F8211042
:10A200000022022905D00421816380F8202001204A
:10A21000704701680B6823F00E030B6001680B6840
:10A2200023F001030B6090F84030D0F83CC00121CE
:10A2300001FA03F3CCF8043080F8211080F82020D4
:10A240001046704710B5002490F82110022903D061
:10A2500004218163012437E001680A6822F00E02BC
:10A260000A6001680A6822F001020A60174A016860
:10A27000914201D101211CE0154A914201D11021E6
:10A2800017E0144A914201D1891512E0124A914215
:10A2900001D189140DE0114A914202D14FF480316D
:10A2A00007E00F4A914202D14FF4801101E04FF0D4
:10A2B00080710C4A5160012180F82110002180F842
:10A2C0002010416B01B18847204610BD08000240B4
:10A2D0001C0002403000024044000240580002408E
:10A2E0006C00024000000240806B70472DE9F05F77
:10A2F000C16B0A6801680B68D0F840C0042404FAF6
:10A300000CF414424E4C4F4D4F4E504FDFF84081ED
:10A31000DFF8409131D013F0040F2ED00A6812F00C
:10A32000200F03D10A6822F004020A600168A142EA
:10A3300001D1042119E0A94201D1402115E0B14227
:10A3400002D14FF4806110E0B94202D14FF4804154
:10A350000BE0414502D14FF4802106E0494502D18E
:10A360004FF4800101E04FF080613B4A5160C16AC7
:10A37000002962D0BDE8F05F08474FF0020A0AFAF0
:10A380000CFA1AEA020F4FF0000A4FF0010B35D019
:10A3900013F0020F32D00A6812F0200F05D10A68BC
:10A3A00022F00A020A6080F821B00168A14201D1BE
:10A3B000022119E0A94201D1202115E0B14202D1C8
:10A3C0004FF4007110E0B94202D14FF400510BE09C
:10A3D000414502D14FF4003106E0494502D14FF426
:10A3E000001101E04FF000711B4A516080F820A07D
:10A3F000816A002921D0BDE8F05F0847082404FAEB
:10A400000CFC1CEA020F18D013F0080F15D00A68D4
:10A4100022F00E020A6090F84010C26B0BFA01F1B4
:10A420005160C0F838B080F821B080F820A0016BEE
:10A43000002902D0BDE8F05F0847BDE8F09F0000AA
:10A44000080002401C00024030000240440002406C
:10A45000580002406C0002400000024010B4002886
:10A4600034D01C4A01688B181B4AA2FB0332120924
:10A4700092000264194AC263022280F821200A680D
:10A480006FF30D12D0F808C04368046943EA0C0367
:10A49000D0F80CC04CEA040C43EA0C03D0F814C00A
:10A4A00043EA0C03D0F818C043EA0C03D0F81CC0F0
:10A4B00043EA0C031A430A6000218163012280F8F9
:10A4C000212080F8201010BC0020704710BC012013
:10A4D00070470000F8FFFDBFCDCCCCCC000002409F
:10A4E00070B50446002594F8200001280DD0012005
:10A4F00084F8200094F821C00020BCF1010F06D0A0
:10A5000084F820000225284670BD022070BD4FF05F
:10A51000020C84F821C0A0632068D0F800C02CF0A1
:10A52000010CC0F800C02046FFF7A8F9E06A28B186
:10A530002068016841F00E01016009E020680168AF
:10A5400021F0040101602068016841F0020101600E
:10A550002068016841F001010160D4E770B504464C
:10A5600000F0E6F90546B4F1FF3F02D00448007858
:10A57000044400F0DDF9401BA042FAD370BD000096
:10A58000080000202DE9F04705460F464FF001096D
:10A59000DFF89C8098F8180001280CD0012088F87A
:10A5A00018002868234E022808D04CF25030FFF7DC
:10A5B00015FBA8B136E00220BDE8F0874CF2503020
:10A5C000FFF70CFB28BB0120FFF7A4FA4CF2503038
:10A5D000FFF704FB8146306920F00400306121E080
:10A5E0004FF0FF303860AC68E86804EBC020A04250
:10A5F00018D92046FFF7A0FA4CF25030FFF7EEFAD8
:10A600008146306920F0020030615FEA090001D024
:10A610003C6007E004F50064E968A86800EBC1202D
:10A62000A042E6D8002088F818004846BDE8F08728
:10A63000C8050020002002400348016941F0800164
:10A640000161002070470000002002402DE9F05F0A
:10A650000746884615461E46DFF888900020C9F850
:10A66000D0000024DFF880A09AF81800012809D053
:10A670004FF0010B8AF818B04CF25030FFF7AEFAE9
:10A6800018B127E00220BDE8F09F012F1AD0022F59
:10A690001AD00427002F1DD9220128463146FDF784
:10A6A00094FD81B208EB4400FFF758FA4CF25030A9
:10A6B000FFF794FAD9F8101021F00101C9F8101031
:10A6C00040B903E00127E5E70227E3E7611CCCB2CC
:10A6D000BC42E1D300218AF81810C9F8D0B0BDE817
:10A6E000F09F000000200240C8050020002007491C
:10A6F0000A6912F0800F08D0054A4A60054A4A608C
:10A70000096911F0800F00D001207047002002403D
:10A7100023016745AB89EFCD2DE9F84F4FF0000CD1
:10A7200000230A68002A7DD0DFF8DC810F2708F1BA
:10A73000040909F1040A0AF1040B012202FA0CF6D9
:10A740000A683240B2426ED1DFF8C0E14C68A4EB37
:10A750000E0574452BD00DDC032C34D005DC34B34E
:10A76000012C19D0022C2FD11BE0112C16D0122C49
:10A770002AD119E0B5F5881F19D006DCB5F5803F60
:10A7800015D0B5F5801F1FD111E0B5F5001F0ED013
:10A79000B5F5041F18D10AE0CB6815E0CB681B1D86
:10A7A00012E0CB6808330FE0CB680C330CE08B6809
:10A7B00023B1012B04D00823466105E0042303E004
:10A7C0000823066100E00023B2F5807F01D2054630
:10A7D00001E000F1040502D24FEA8C0403E0ACF181
:10A7E00008044FEA84042E6807FA04FE26EA0E06DF
:10A7F00003FA04F446EA04042C604C6814F0805F09
:10A8000079D0434CA56945F00105A561A46904F020
:10A81000010400942CF0030404F1804404F5803416
:10A82000A66801E06EE066E04FEA8C754FEA1575A8
:10A8300007FA05FE26EA0E0EA0F18046B6F584362C
:10A840001ED0A0F18046B6F586361BD0A0F180461A
:10A85000B6F5883618D0A0F18046B6F58A3615D000
:10A86000042606FA05F545EA0E05A5604C6814F4C1
:10A87000803F0DD0D8F800401443C8F800400CE0E9
:10A880000026EEE70126ECE70226EAE70326E8E7E2
:10A89000D8F800409443C8F800404C6814F4003FD6
:10A8A00005D0D9F800401443C9F8004004E0D9F8B5
:10A8B00000409443C9F800404C6814F4801F05D050
:10A8C000DAF800401443CAF8004004E0DAF8004027
:10A8D0009443CAF800404C6814F4001F05D0DBF81C
:10A8E00000402243CBF8002005E0DBF8004024EADA
:10A8F0000202CBF800200CF1010C0A6832FA0CF2CB
:10A900007FF41BAFBDE8F88F000401400000111078
:10A91000001002408068084201D0012070470020EA
:10A920007047002A01D00161704709040161704736
:10A9300001488068704700000800002070B5044698
:10A94000002C21D021684CF6CC400860216845F2EB
:10A95000555008602168606848602168A068886078
:10A96000FFF7E6FF05462068C06810F0030F12D01D
:10A97000FFF7DEFF401B272808D92068C06810F0C9
:10A98000030F03D0032070BD012070BD2068C06894
:10A9900010F0030FECD121684AF6AA2008600020CD
:10A9A00070BD00684AF6AA210160002070470000CF
:10A9B00002488168027811448160704708000020D5
:10A9C00010B50748016841F010010160032000F054
:10A9D0008BF80A2000F006F800F026F8002010BDE1
:10A9E0000020024070B504460D4D4FF47A7128786E
:10A9F000B1FBF0F00B490968B1FBF0F000F0D4FCBA
:10AA000008B1012070BD102C07D200222146501E33
:10AA100000F036F86C60002070BD012070BD0000B1
:10AA200008000020140000200C4808B5816941F09E
:10AA300001018161816901F001010091C16941F069
:10AA40008051C161C06900F08050009004484168A5
:10AA500021F0E06141F00071416008BD001002404A
:10AA60000000014000280ADB00F01F01012202FA69
:10AA700001F14009800000F1E020C0F800117047AA
:10AA800010B4184B1B68C3F30223C3F1070CBCF1CD
:10AA9000040F01D94FF0040C1C1D072C01D2002318
:10AAA00000E0DB1E012404FA0CFCACF1010C0CEA02
:10AAB0000101994004FA03F35B1E1A401143002878
:10AAC00006DB00F1E020090180F8001410BC70479B
:10AAD00000F00F0000F1E020090180F8141D10BC07
:10AAE000704700000CED00E000F00700064A116816
:10AAF0004FF6FF03194041EA002040F0FD7040F09E
:10AB000080601060704700000CED00E010B586B06A
:10AB1000014634A0D0F808C043680268C068CDF888
:10AB200010C003930292059032A0006801900020AB
:10AB3000314C012926D0022949D0102920D1616841
:10AB4000226812F0807F1BD002A8C1F38342805C90
:10AB500011F4803F09D0616801AAC1F34041515C02
:10AB6000264AB2FBF1F1484301E0254948436168B8
:10AB700011F4800F04D123494000A1FB00104008CC
:10AB800006B010BD216A01F44072B2F5807F06D193
:10AB900011F0020F03D006B04FF4004010BDB2F523
:10ABA000007F07D1626A12F0020F03D049F64040DD
:10ABB00006B010BD4FF4407232EA0101F8D12168AD
:10ABC00011F4003FF4D006B04FF2244010BD00F065
:10ABD00089F96168C1F38131491C4900B0FBF1F08A
:10ABE00006B010BD02030405060708090A0B0C0D88
:10ABF0000E0F1010010200000010024000127A0037
:10AC000000093D00ABAAAAAA2DE9F8430446DFF8E3
:10AC10001C81207810F0010F6CD00027D8F81C00A0
:10AC200010F0805F0BD1D8F81C0040F08050C8F8BD
:10AC30001C00D8F81C0000F08050009001273C4D0B
:10AC4000286810F4807F16D1286840F4807028604E
:10AC5000FFF76EFE0646286810F4807F0BD1FFF7E1
:10AC600067FE801B642802D90320BDE8F8832868AA
:10AC700010F4807FF3D0D8F8200000F4407048B37F
:10AC8000A18801F44071814224D0D8F8200020F43A
:10AC90004070284901220A6000220A60C8F820009A
:10ACA00010F0010F16D0FFF743FE0546D8F820003C
:10ACB00010F0020F0ED141F28836FFF739FE401B2B
:10ACC000B04202D90320BDE8F883D8F8200010F084
:10ACD000020FF2D0D8F82000616820F440700843D9
:10ACE000C8F82000012F05D1D8F81C0020F08050B2
:10ACF000C8F81C00207810F0020F07D0D8F8040024
:10AD0000A16820F440400843C8F80400207810F0FF
:10AD1000100F07D0D8F80400E16820F48000084341
:10AD2000C8F804000020BDE8F883000000100240CD
:10AD300000700040400442422DE9F04704460D46B1
:10AD4000002C17D0DFF85C81D8F8000000F0070075
:10AD5000A84212D2D8F8000020F007002843C8F813
:10AD60000000D8F8000000F00700A84205D001203C
:10AD7000BDE8F0870120BDE8F08720684A4E10F05A
:10AD8000020F14D010F0040F03D0706840F4E0609C
:10AD90007060207810F0080F03D0706840F46050A5
:10ADA0007060706820F0F001A0680843706020783F
:10ADB00010F0010F3AD06068012806D002280BD0AD
:10ADC000316811F0020F27D00AE0316811F4003F1A
:10ADD00006D10120BDE8F087316811F0007F18D05E
:10ADE000716821F0030108437060FFF7A1FD074679
:10ADF0007068616800F00C00B0EB810F16D041F272
:10AE00008839FFF795FDC01B484508D90320BDE8E8
:10AE1000F0870120BDE8F0870120BDE8F087706869
:10AE2000616800F00C00B0EB810FEAD1D8F80000A7
:10AE300000F00700A8420FD9D8F8000020F0070062
:10AE40002843C8F80000D8F8000000F00700A84226
:10AE500002D00120BDE8F087207810F0040F05D063
:10AE60007068E16820F4E06008437060207810F0BA
:10AE7000080F06D07068216920F4605040EAC100D4
:10AE8000706000F03FF87168084AC1F30311515C2B
:10AE9000C8400749086007480068FFF7A3FD002085
:10AEA000BDE8F087002002400010024050840108F5
:10AEB000140000200C0000200148006870470000CA
:10AEC0001400002000B5FFF7F7FF04494968044A61
:10AED000C1F30221515CC84000BD000000100240D7
:10AEE0006084010800B5FFF7E7FF04494968044A98
:10AEF000C1F3C221515CC84000BD000000100240F7
:10AF00006084010885B015A0836842680168C06844
:10AF1000039302920191049014A000680090144BD6
:10AF20005968144801F00C02042A11D0082A0FD1E4
:10AF300001A8C1F38342805C11F4803F0AD05968B4
:10AF4000C1F340411DF801100A4A5043B0FBF1F033
:10AF500005B07047084905B048437047020304052F
:10AF6000060708090A0B0C0D0E0F10100102000055
:10AF70000010024000127A0000093D002DE9F84F50
:10AF80000446002C0FD02078F84D10F0010F6CD043
:10AF9000686800F00C0004280CD0686800F00C0011
:10AFA000082803D010E00120BDE8F88F686810F48D
:10AFB000803F09D0286810F4003F56D06068002810
:10AFC00053D10120BDE8F88F6068B0F5803F15D0FF
:10AFD000C8B1B0F5A02F1FD0286820F480302860B9
:10AFE000286820F480202860606858B3FFF7A0FC30
:10AFF0000646286810F4003F17D036E0286840F471
:10B0000080302860F0E7286820F4803028602868C5
:10B0100020F480202860E7E7286840F4802028603A
:10B02000286840F480302860DEE7FFF781FC801B51
:10B03000642802D90320BDE8F88F286810F4003F87
:10B04000F3D012E0FFF774FC0646286810F4003FC6
:10B050000BD0FFF76DFC801B642802D90320BDE8EC
:10B06000F88F286810F4003FF3D12078C04F10F01B
:10B07000020F4FF0010B4FF0000854D0686810F039
:10B080000C0F14D0686800F00C00082803D1686821
:10B0900010F4803F0BD0206978B3C7F800B0FFF7F9
:10B0A00047FC0646286810F0020F12D01DE0286801
:10B0B00010F0020F05D02069012802D00120BDE860
:10B0C000F88F2868616920F0F80040EAC100286024
:10B0D00029E0FFF72DFC801B022802D90320BDE8E0
:10B0E000F88F286810F0020FF3D02868616920F00B
:10B0F000F80040EAC100286015E0FFE7C7F80080CB
:10B10000FFF716FC0646286810F0020F0BD0FFF779
:10B110000FFC801B022802D90320BDE8F88F2868A5
:10B1200010F0020FF3D1207810F0080F30D09148C2
:10B13000A169C1B1C0F800B0FFF7FAFB0646686A22
:10B1400010F0020F0BD1FFF7F3FB801B022802D98E
:10B150000320BDE8F88F686A10F0020FF3D00120D9
:10B1600001F00CF914E0C0F80080FFF7E1FB06469F
:10B17000686A10F0020F0BD0FFF7DAFB801B022881
:10B1800002D90320BDE8F88F686A10F0020FF3D1EE
:10B19000207810F0040F6FD00026E86910F0805F6F
:10B1A00008D1E86940F08050E861E86900F080501B
:10B1B00000900126DFF8C0A1DAF8000010F4807FCB
:10B1C0001BD1DAF8000040F48070CAF80000FFF7E5
:10B1D000AFFB8146DAF8000010F4807F0DD1FFF755
:10B1E000A7FBA0EB0900642802D90320BDE8F88F73
:10B1F000DAF8000010F4807FF1D0E068012816D062
:10B20000D0B1052821D0286A20F001002862286AE0
:10B2100020F004002862E06841F2883A68B3FFF742
:10B2200087FB8146286A10F0020F17D03AE0286A9F
:10B2300040F001002862EEE7286A20F00100286251
:10B24000286A20F004002862E5E7286A40F004003C
:10B250002862286A40F001002862DCE7FFF768FBFB
:10B26000A0EB0900504502D90320BDE8F88F286AF9
:10B2700010F0020FF2D015E01AE0FFE7FFF758FBDD
:10B280008146286A10F0020F0CD0FFF751FBA0EBAB
:10B290000900504502D90320BDE8F88F286A10F054
:10B2A000020FF2D1012E03D1E86920F08050E8614D
:10B2B000E069E8B3696801F00C0108295ED0022852
:10B2C00010D0C7F86080FFF733FB0446286810F001
:10B2D000007F66D0FFF72CFB001B022841D903201A
:10B2E000BDE8F88FC7F86080FFF722FB06462868A4
:10B2F00010F0007F0BD0FFF71BFB801B022802D948
:10B300000320BDE8F88F286810F0007FF3D1206A91
:10B31000B0F5803F05D16868A16820F4003008438B
:10B320006860616A206A0843696821F4741100E06A
:10B3300037E008436860C7F860B0FFF7F9FA0446E1
:10B34000286810F0007F2CD1FFF7F2FA001B0228CA
:10B3500002D90320BDE8F88F286810F0007FF3D0F1
:10B360001FE0286810F0007FB4D11AE000100240FE
:10B3700000004242800442420070004001280DD08B
:10B380006868226A00F48031914204D1616A00F455
:10B390007010884205D00120BDE8F88F0120BDE87B
:10B3A000F88F0020BDE8F88F401EB0F1807F01D3F8
:10B3B000012070474FF0E0214861044AF0201070EE
:10B3C00000208861072008610020704723ED00E01D
:10B3D00070477047704730B490F83C20012A30D055
:10B3E000012480F83C40022280F83D200268D2F817
:10B3F00004C093682CF0700C0D6845EA0C0CC2F880
:10B4000004C00268A2F1804CBCF5963C0CD0B2F1AD
:10B41000804F09D0A2F1804CBCF5806C04D0A2F121
:10B42000804CBCF5006C04D123F0800349681943BB
:10B43000916080F83D40002180F83C1030BC002035
:10B44000704730BC0220704710B50446002C03D072
:10B4500094F83D0010B10EE0012010BD002084F8EA
:10B460003C00204601F04CF9A06C08B91148A064DA
:10B47000A16C20468847022084F83D00211D2068E9
:10B4800001F02EF8012084F8460084F83E0084F88C
:10B490003F0084F8400084F8410084F8420084F8BA
:10B4A000430084F8440084F8450084F83D000020FF
:10B4B00010BD0000B9B4000870470168CA6822F0E6
:10B4C0000102CA6001680A6A41F211131A4207D1E7
:10B4D0000A6A9B101A4203D10A6822F001020A602C
:10B4E000012180F83D1000207047704710B50446D8
:10B4F0000068104988421BD1207F012818D1002103
:10B50000204600F0EFFA0C4A81B25088081A80B247
:10B5100032280BD92068036A9B07036A02D523F0FF
:10B52000020301E043F00203036251800520107022
:10B5300010BD00000008004088020020704770B570
:10B5400005460C4695F83C0001281CD0012085F8E2
:10B550003C00D2B1042A29D0082A39D0E3686268B5
:10B560002168286801F07FF92868C16921F44061E9
:10B57000C1612868C169A26841EA0221C161002055
:10B5800085F83C0070BD022070BDE36862682168E8
:10B59000286801F0F7F82868816921F00C018161C1
:10B5A00028688169A26811438161E8E7E3686268FD
:10B5B0002168286801F019F92868816921F440613F
:10B5C000816128688169A26841EA02218161D6E728
:10B5D000E36862682168286801F027F92868C16972
:10B5E00021F00C01C1612868C169A2681143C161E1
:10B5F000C5E7000010B50446002C03D094F83D00C8
:10B6000010B10EE0012010BD002084F83C0020465F
:10B6100001F076F8206D08B911482065216D2046AB
:10B620008847022084F83D00211D206800F058FF63
:10B63000012084F8460084F83E0084F83F0084F836
:10B64000400084F8410084F8420084F8430084F804
:10B65000440084F8450084F83D00002010BD00003F
:10B6600065B6000800B585B00021009101910291F6
:10B6700003910068114988421ED11148C16941F007
:10B680000401C161C16901F004010491816941F0C3
:10B69000080181618069694600F00800049040203B
:10B6A00000900848FFF738F8002211461E20FFF7E7
:10B6B000E7F91E20FFF7D6F905B000BD00080040ED
:10B6C00000100240000C014070B50446206801697A
:10B6D0004FF0000511F0020F1AD0C16811F0020FEF
:10B6E00016D0E91E0161012020772068806910F0E2
:10B6F000030F04D0D4F890102046884707E0D4F810
:10B70000981020468847D4F89C1020468847257713
:10B710002068016911F0040F1BD0C16811F0040FFB
:10B7200017D06FF004010161022020772068806942
:10B7300010F4407F04D0D4F890102046884707E0EA
:10B74000D4F8981020468847D4F89C1020468847A3
:10B7500025772068016911F0080F1BD0C16811F02E
:10B76000080F17D06FF008010161042020772068CE
:10B77000C06910F0030F04D0D4F890102046884719
:10B7800007E0D4F8981020468847D4F89C1020464B
:10B79000884725772068016911F0100F1BD0C16818
:10B7A00011F0100F17D06FF0100101610820207701
:10B7B0002068C06910F4407F04D0D4F8901020466F
:10B7C000884707E0D4F8981020468847D4F89C10A2
:10B7D0002046884725772068016911F0010F0AD0BB
:10B7E000C16811F0010F06D06FF001010161D4F8BA
:10B7F0008010204688472068016911F0800F0AD028
:10B80000C16811F0800F06D06FF080010161D4F89B
:10B81000B010204688472068016911F0400F0AD017
:10B82000C16811F0400F06D06FF040010161D4F8FB
:10B830008810204688472068016911F0200F0CD03D
:10B84000C16811F0200F08D06FF02001016120467F
:10B85000D4F8A810BDE87040084770BD00B585B0A9
:10B8600000210091019102910391006810498842E2
:10B870001CD11048816941F01001816180696946DD
:10B8800000F0100004904FF400700090022001902E
:10B89000032003900848FEF73FFF0848416821F461
:10B8A000406141F0E06141F44061416005B000BD9C
:10B8B0000004004000100240001001400000014060
:10B8C000704770B504460D4694F83C0001280AD034
:10B8D000012084F83C0042B1042A1AD0082A2DD055
:10B8E0000C2A53D13EE0022070BD2946206800F0AA
:10B8F00043FE2068816941F0080181612068816907
:10B9000021F004018161206881692A691143816104
:10B910003CE02946206800F063FE2068816941F41C
:10B92000006181612068816921F480618161206802
:10B9300081692A6941EA0221816127E0294620685C
:10B9400000F082FE2068C16941F00801C1612068F1
:10B95000C16921F00401C1612068C1692A691143EC
:10B96000C16113E02946206800F0A2FE2068C16989
:10B9700041F40061C1612068C16921F48061C16145
:10B980002068C1692A6941EA0221C161002084F866
:10B990003C0070BD10B50446002C03D094F83D0067
:10B9A00010B10EE0012010BD002084F83C002046BC
:10B9B00000F0A6FE206E08B911482066216E2046D0
:10B9C0008847022084F83D00211D206800F088FD92
:10B9D000012084F8460084F83E0084F83F0084F893
:10B9E000400084F8410084F8420084F8430084F861
:10B9F000440084F8450084F83D00002010BD00009C
:10BA000005BA000808B500680649884208D106480A
:10BA1000C16941F00201C161C06900F002000090FB
:10BA200008BD00000004004000100240704770474D
:10BA300010B50446002909D004290AD008290BD0E2
:10BA400094F8410001280AD0012010BD94F83E006E
:10BA5000F8E794F83F00F5E794F84000F2E7022099
:10BA600089B3042933D0082934D084F84100012255
:10BA7000206800F071FD19492068884203D1426CAA
:10BA800042F4004242642068884212D0B0F1804FF4
:10BA90000FD0A0F18041B1F580610AD0A0F18041C2
:10BAA000B1F5006105D0016841F00101016000209D
:10BAB00010BD816801F007010629F8D0016841F046
:10BAC00001010160F3E7FFE784F83E00CFE784F867
:10BAD0003F00CCE784F84000C9E70000002C01409B
:10BAE0007047704702460020002908D0042909D079
:10BAF00008290AD00C2901D11068006C7047106821
:10BB0000406B70471068806B70471068C06B70475F
:10BB10000023002A18D090F83CC0BCF1010F15D0CA
:10BB20004FF0010C80F83CC090F83DC0BCF1010F13
:10BB30000ED090F83DC0BCF1000F60D00123002171
:10BB400080F83C101846704701207047022070476B
:10BB50001B2952D2DFE801F00E10121416181A1C1D
:10BB60001E20222426282A2D303336393C3F4245D8
:10BB7000484B4E008264E2E7C264E0E70265DEE71C
:10BB80004265DCE78265DAE7C265D8E70266D6E798
:10BB90004266D4E78266D2E7C266D0E70267CEE7A4
:10BBA0004267CCE78267CAE7C267C8E7C0F880206F
:10BBB000C5E7C0F88420C2E7C0F88820BFE7C0F816
:10BBC0008C20BCE7C0F89020B9E7C0F89420B6E715
:10BBD000C0F89820B3E7C0F89C20B0E7C0F8A020D8
:10BBE000ADE7C0F8A420AAE7C0F8A820A7E7C0F8EE
:10BBF000AC20A4E7C0F8B020A1E701239FE70E29FD
:10BC000024D2DFE801F007090B0D0F1113151719E6
:10BC10001B1D1F21826492E7C26490E702658EE7D4
:10BC200042658CE782658AE7C26588E7026686E737
:10BC3000426684E7826682E7C26680E702677EE743
:10BC400042677CE782677AE7C26778E7012376E795
:10BC500070477047704770B504462068C16821F48A
:10BC60009071C1602068416921F001014161206B40
:10BC7000012804D12068C16821F01001C16020684A
:10BC800041694FF0000511F0400F0FD0416921F0DC
:10BC900040014161A06B48B14563A06BFEF7AEFA6D
:10BCA00020B1A06BFEF720FB202806D0E5852020E0
:10BCB00084F83E002563002070BD1020206403201E
:10BCC00070BD7047F8B5044622681068D1685369A2
:10BCD00000F00F0CBCF1000F0AD110F0200F07D0BC
:10BCE00011F0200F04D02046BDE8F84000F07BBEE4
:10BCF0000025BCF1000F6DD003F0010C01F490762B
:10BD00005CEA060666D010F0010F06D011F4807FC1
:10BD100003D0226C42F00102226410F0040F06D01E
:10BD200013F0010F03D0226C42F00202226410F0E3
:10BD3000020F06D013F0010F03D0226C42F0040270
:10BD4000226410F0080F08D001F0200252EA0C0221
:10BD500003D0226C42F008022264226C002A2FD009
:10BD600010F0200F05D011F0200F02D0204600F077
:10BD70003AFE20684069C0F38010216C11F0080F72
:10BD800000D110B3204600F009FE2068416911F08F
:10BD9000400F16D0416921F040014161A06B60B1B4
:10BDA00047494163A06BFEF74DFA002808D0A06B0D
:10BDB000416B01B0BDE8F04008472046FFF781FF26
:10BDC000F8BD2046FFF77DFFF8BD2046FFF779FF5D
:10BDD0002564F8BD236B012B5BD110F0100F58D0F8
:10BDE00011F0100F55D010685068009050694FF056
:10BDF000200310F0400F2ED0A16B0868406880B27D
:10BE00000028E6D0B4F82CC08445E2D9E0858869E2
:10BE1000202818D0D06820F48070D0602068416954
:10BE200021F0010141612068416921F04001416137
:10BE300084F83E3025632068C16821F01001C1609C
:10BE4000A06BFEF7DBF9A08DE18D401A81B2204690
:10BE5000FFF700FFF8BDA08DE18D401A81B2E08DA3
:10BE60000028F7D00029F5D0D06820F49070D06079
:10BE70002068426922F00102426184F83E30256365
:10BE80002068C26822F01002C2602046FFF7E2FE7E
:10BE9000F8BD10F0800F07D011F0800F04D02046BD
:10BEA000BDE8F84000F07DBE10F0400FF0D011F07A
:10BEB000400FEDD02046BDE8F84000F087BD0000FF
:10BEC0008DC9000870B50446002C04D094F83D00DC
:10BED000002510B106E0012070BD84F83C502046DA
:10BEE00000F022F8242084F83D002068C16821F485
:10BEF0000051C160204600F0D5FD2068016921F4A1
:10BF0000904101612068416921F02A014161206866
:10BF1000C16841F40051C1602564202084F83D00CF
:10BF200084F83E00002070BD704790F83E30202B12
:10BF300001D00220704759B152B190F83C30012B2A
:10BF400008D0012380F83C300023036300F00EBECC
:10BF5000012070470220704710B500680A498842E6
:10BF600011D10A4CA168B1F5806F03D24068C0B20C
:10BF700005F06CFFA168064801220144BDE81040AD
:10BF80004438FFF7D2BF10BD00380140A0020020A6
:10BF90003013002010B5044600680F49884215D1BF
:10BFA0000E490878032811D18A780879824201D293
:10BFB000521C8A70D2B2824202D30420087005E07B
:10BFC0008868811801220648FFF7AFFF2046BDE8C8
:10BFD0001040FFF7C1BF0000004400409002002065
:10BFE000F411002090F83D30202B01D00220704742
:10BFF000A9B1A2B190F83C30012B12D00162828429
:10C00000C28400210164212280F83D2080F83C1088
:10C010000068C16841F08001C160002070470120C4
:10C0200070470220704700000068094988420DD11E
:10C0300008498888401C80B288804A88904205D28E
:10C04000C968012201440448FFF7CCBF70470000D3
:10C0500000380140A0020020EC12002070B5054617
:10C0600000681449884220D1134C2146A078E27818
:10C070008968904208D2014401221048FFF7B2FFBC
:10C08000A078401CA07010E022780020022A0BD17A
:10C0900003222270A070207928B121B10122074823
:10C0A000FFF743FF01E0042020702846BDE8704000
:10C0B000FFF7BABF0044004090020020F4110020B6
:10C0C000FEE700000449097B19B10021018001202D
:10C0D00070470020704700003C0200203EB5002160
:10C0E000234800910191214A0291026092158260D9
:10C0F00001240473017504254FF460220561C261B7
:10C100004160FDF703FF08B1FDF703FD0820CDE90D
:10C1100000040624694616480294FDF75FFE08B144
:10C12000FDF7F7FC092000900220CDE901046946E3
:10C130000F48FDF753FE08B1FDF7EBFC0320009517
:10C14000CDE9010469460A48FDF748FE08B1FDF74C
:10C15000E0FCCDE90045694605480294FDF73EFE46
:10C16000002801D0FDF7D5FC3EBD000000240140B1
:10C1700030170020094808B5416941F001014161CB
:10C180004069002200F0010000900A210B20FEF718
:10C1900077FCBDE808400B20FEF764BC00100240AD
:10C1A00070B586B000241C48009401940294039456
:10C1B000816941F004018161816901F00401049108
:10C1C000816941F020018161816901F020010491C0
:10C1D000816941F008018161816901F008010491E0
:10C1E000816941F0100181618069012200F0100035
:10C1F0000A4ED503049029463046FEF792FB0120F3
:10C200000095CDE901040220039069463046FEF70F
:10C2100083FA06B070BD0000001002400008014023
:10C22000FEE77047F8B50546694603F079F8234AFA
:10C23000002350B3022832D0032835D0BDF80000C7
:10C240001F4E00EB800102EB410156F8207006EB17
:10C2500080007D1B406805EB8505381A6D00B5FB35
:10C26000F0F0084401B22046164C61F31F40B4F9C7
:10C270000450A94204DA914202DD491C61F31F40D7
:10C280000114A18063F30700F8BDBDF8000000EBC6
:10C29000800002EB4001204661F31F40F2E7204698
:10C2A00062F31F40012105E040F2E241204661F3C4
:10C2B0001F40022161F30700F8BD000070FEFFFF80
:10C2C00088860108CC02002010B50D4C4FF4967002
:10C2D000A0606078002812D00020607009480088B3
:10C2E00080B2A0F57061FF3901D1401E80B20649CD
:10C2F000B1FBF0F0A0F59670FFF794FFE06010BD81
:10C30000CC020020B4170020D4BE120002484078AE
:10C31000002800D0012070471003002070B5134C96
:10C320000D46B1F5007F07D0607900281CD0A08BA6
:10C33000C0F30800A84217D10D4E606A82190D485B
:10C3400003F036F8606A0A2128446062A170304424
:10C35000A0640120E070218CC1F30801A94203D13F
:10C360006179002900D0207170BD000064030020B5
:10C3700000400208991900207047000081B0074969
:10C380004FF4FA520968B1FBF2F14843009000BF44
:10C390000098411E0091FAD201B0704714000020AD
:10C3A000014900200870704710030020704700000A
:10C3B000074A1378984207D15378052B02D25B1CA9
:10C3C00053707047087070471070002050707047AD
:10C3D0008C02002070B5194CA079A0F5FA60C0B2AB
:10C3E00001F013F804F10A05A871607901F00DF865
:10C3F0002871207901F009F8E870E08861792279E4
:10C40000FDF731FC401CC0B2E07000F0FEFF687127
:10C41000A07800F0FAFFA870607800F0F6FF68706E
:10C42000207800F0F2FF28700722294604A005F0CA
:10C4300034FB2846BDE87040FDF752BB880600205B
:10C440007365742074696D650000000010B5FEF717
:10C45000AFFABDE8104006F00FBD30B593B028210B
:10C460006846FBF7F9FE14210EA8FBF7F5FE002441
:10C4700001200A940B940C9401040D948DE8130090
:10C4800004904FF4E010CDE90810022507956846A6
:10C49000FEF774FD0F20CDE90E056802CDE91040CE
:10C4A00002210EA81294FEF747FC10200A900D946A
:10C4B0000AA8FEF7A9FBA8030C900A950AA8FEF7A4
:10C4C000A3FB13B030BD70470148FFF7FDB8000073
:10C4D000D80700200148FFF7F7B800004009002006
:10C4E00030B40268194B1A4CDFF868C0984206D085
:10C4F000B0F1804F03D0A04201D0604503D122F0BB
:10C5000070024D682A43984206D0B0F1804F03D0A4
:10C51000A04201D0604505D122F44072D1F80CC090
:10C520004CEA0202D1F814C022F0800242EA0C0266
:10C5300002608A68C2620A688262984201D109690F
:10C5400001630121416130BC70470000002C0140B3
:10C55000000400400008004001F01F0101238B404F
:10C56000D0F820C02CEA03030362036A02FA01F147
:10C57000194301627047000010B4026A22F0010200
:10C580000262036A4268D0F818C02CF0700C2CF0DC
:10C59000030C0C6844EA0C0C23F002038C68234360
:10C5A0000E4CA04206D123F00803CC6844EA0303F2
:10C5B00023F0040309D122F4807222F400724C6942
:10C5C00044EA02028C6944EA02024260C0F818C0E0
:10C5D00049684163036210BC70470000002C0140B1
:10C5E00010B4026A22F010020262036A4268D0F8B4
:10C5F00018C02CF4E04C2CF4407C0C684CEA042C61
:10C6000023F020038C6843EA04130E4CA04206D1A9
:10C6100023F08003CC6843EA041323F0400309D1DC
:10C6200022F4806222F400624C6942EA84028C693E
:10C6300042EA84024260C0F818C04968816303621C
:10C6400010BC7047002C014010B4026A22F48072C2
:10C650000262036A4268D0F81CC02CF0700C2CF007
:10C66000030C0C6844EA0C0C23F400738C6843EA56
:10C6700004230E4CA04206D123F40063CC6843EAA5
:10C68000042323F4806309D122F4805222F400525F
:10C690004C6942EA04128C6942EA04124260C0F812
:10C6A0001CC04968C163036210BC7047002C014084
:10C6B00010B4026A22F480520262036A4268D0F81F
:10C6C0001CC02CF4E04C2CF4407C0C684CEA042C8C
:10C6D00023F400538C6843EA0433A0F18044B4F59A
:10C6E000963404D122F480424C6942EA84124260BA
:10C6F000C0F81CC049680164036210BC70470000A8
:10C700001349C0F880101349C0F884101249C0F8CA
:10C7100088101249C0F88C101149C0F890101149C6
:10C72000C0F894101049C0F898101049C0F89C1037
:10C730000F49C0F8A0100F49C0F8A4100E49C0F866
:10C74000A8100E49C0F8AC100D49C0F8B0107047E1
:10C75000E1BA0008E3BA000851BC000853BC000865
:10C76000EDB400083DB50008C1B800082DBA0008B6
:10C770002FBA0008EBB40008D3B30008D5B3000803
:10C78000D1B3000830B4D0F820C02CF0010CC0F8B0
:10C7900020C0D0F818C0046AA0F18045B5F59635E0
:10C7A0001ED0B0F1804F1BD0A0F18045B5F580655B
:10C7B00016D0A0F18045B5F5006511D04CF001020E
:10C7C00022F0F0024FF0F00C0CEA03131A4324F0AD
:10C7D0000A0301F00A0119438261016230BC70470B
:10C7E0002CF0030C4CEA0202EAE710B4D0F820C0A7
:10C7F0002CF0100CC0F820C08469D0F820C024F4BC
:10C80000407444EA022222F470424FF4704404EA75
:10C8100003331A432CF0A0034FF0A00C0CEA0111D3
:10C8200019438261016210BC704710B4D0F820C077
:10C830002CF4807CC0F820C0C469D0F820C024F05B
:10C840000304224322F0F002F02404EA03131A4303
:10C850002CF400734FF4007C0CEA01211943C261EF
:10C86000016210BC704710B4D0F820C02CF4805C7A
:10C87000C0F820C0C469D0F820C024F4407444EA51
:10C88000022222F470424FF4704404EA03331A4344
:10C890002CF400534FF4005C0CEA01311943C261DF
:10C8A000016210BC7047000000B585B00020019007
:10C8B0000A48816941F0080181618069694600F098
:10C8C000080004904FF400500090022002900320D2
:10C8D00003900348FDF720FF05B000BD00100240A3
:10C8E000000C01400C4800B5816985B041F0080199
:10C8F00081618069694600F0080004904FF400509F
:10C900000090012001900290032003900348FDF75E
:10C9100003FF05B000BD000000100240000C014004
:10C9200000B585B00020019003900A48816941F06C
:10C93000080181618069694600F0080004904FF4A5
:10C9400000500090012002900348FDF7E5FE05B07D
:10C9500000BD000000100240000C0140014880684A
:10C96000704700005003002042180749896882423E
:10C9700005D3914201D2814203D2012070479142F6
:10C98000F9D80020704700005003002010B5406A1D
:10C990000021C185C184FFF794F910BD0168CA6800
:10C9A00022F49072CA6001684A6922F001024A6169
:10C9B000016B012904D10168CA6822F01002CA6023
:10C9C000202180F83E1000210163704710B50168F6
:10C9D000CA6822F04002CA60202180F83D10FFF7AB
:10C9E0003DFB002010BD08B590F83E10222901D073
:10C9F000022008BD8268B2F5805F01D1016929B1CA
:10CA0000816AB2F5805F1DD052B10BE0816A026885
:10CA10005268C2F308020A80816A891C816209E0B7
:10CA200002697AB10268526802F07F020A70816A74
:10CA3000491C8162C18D491E0904090CC18505D0BC
:10CA4000002008BD026852680A70F0E70168CA68F1
:10CA500022F02002CA600168CA6822F48072CA60AB
:10CA600001684A6922F001024A61202180F83E10E3
:10CA7000016B012903D0FFF78DFA002008BD0021CA
:10CA800001630168CA6822F01002CA6001680A687E
:10CA900012F0100F02D00A6849680091818DFFF7EB
:10CAA000D9F8EAE770B5044620680169E26821F424
:10CAB0004051114301612169A06808436169014344
:10CAC0002068C26822F4037222F4A0521143C160AC
:10CAD00020684169A26921F44071114341612068D5
:10CAE000A0F18041B1F59C313AD0FEF7EBF900EBB3
:10CAF000C00101EB001061681B4A8900B0FBF1F333
:10CB0000A2FB0353B0FBF1FC5B096FF018056B430C
:10CB10000CEB83034FF0320C0CEB0313A2FB03531B
:10CB20005B0903F0F005B0FBF1F3A2FB03635B09C3
:10CB300005EB0313B0FBF1F5B0FBF1F0A2FB001025
:10CB400040096FF01801484305EB80000CEB001022
:10CB5000A2FB00102168C0F343101844886070BD28
:10CB6000FEF7C0F9C3E700001F85EB5181628285A3
:10CB7000C28500210164222280F83E2080F83C100A
:10CB80000168CA6842F48072CA6001684A6942F06A
:10CB900001024A610068C16841F02001C1600020C3
:10CBA000704790F83D10212901D00220704781681C
:10CBB000B1F5805F01D1016961B1016A4A1C02626D
:10CBC000026809785160C18C491E0904090CC184AE
:10CBD0000AD013E0016A02680988C1F308015160B4
:10CBE000016A891C0162EEE70168CA6822F08002CE
:10CBF000CA600068C16841F04001C1600020704710
:10CC00000148FFF75FB80000EC1200200148FFF771
:10CC100059B80000F41100207047FEE7704700008B
:10CC20000B4910B5C01D0A6B20F007001318084609
:10CC3000CC6A806AA34208D9064A904203D1C878D8
:10CC400008B90120C870002010BD10440B6310BD4E
:10CC500024040020D04800202DE9F843814C02270D
:10CC60000126607800254FF480780C281DD2DFE87B
:10CC700000F01C06092F4053607D95A2B6CF05F049
:10CC8000A1F821E000F0A8FB01280ED175496581CB
:10CC900000220A31744804F093FF002805D073A1E4
:10CCA0007148FBF7E4FA10B16670BDE8F88373A130
:10CCB0006D48FBF7DCFA20B1FFF750FEE06303207C
:10CCC00015E02078022801D26770EEE72570ECE7C6
:10CCD0004FF4C871E06BFFF747FE0028E5D005234D
:10CCE00067A20F2167A0009605F088F90420607004
:10CCF000DBE705F079F90128D7D105F0C9F9FFF78D
:10CD00004FFB6448142364A206701C2164A00095A4
:10CD100005F074F90520EAE705F066F90128C4D1A9
:10CD200014235DA2212166A0009505F067F9062075
:10CD3000DDE705F059F90128B7D14146694807F008
:10CD40003BFE6848FBF7BBFA801E82B266A16B48C7
:10CD500000F08EFB6948FBF7B2FAC1B2142368A257
:10CD60006648009505F04AF90720C0E705F03CF950
:10CD700001289AD180215B48FBF76EFA4146594859
:10CD800007F01AFE5748FBF79AFAC1B214233CA2E7
:10CD90005448009505F032F90820A8E705F024F979
:10CDA000012808D1142336A20E2157A0009505F0C2
:10CDB00025F90920607005F017F9012885D1A06ACE
:10CDC0004FF0C80354A2009630B11B2157A000BFFA
:10CDD00005F014F90A208AE71A215BA0F8E705F0AC
:10CDE00003F9012884D1454A5EA180323D4800F014
:10CDF0003FFB3C48FBF763FAC1B2642320A23948E9
:10CE0000009605F0FBF8FFF7A9FDE0620B206EE746
:10CE100005F0EAF801288FD15A49E06AFFF7A4FD2E
:10CE20000C2720B16770BDE8F84305F0FBB90D4948
:10CE300000220A310C4804F0C3FE00283FF445AF3D
:10CE400051A10948FBF713FA28B16770A670BDE835
:10CE5000F84305F01DB961890348FBF7FDF96581C9
:10CE600023E700006403002099190020504F574524
:10CE700052454420444F574E000000005244590090
:10CE80004F4B000041542B514D54434C4F53453DA3
:10CE9000300D0A00110300204F4B0D0A0000000066
:10CEA00041542B51485454504346473D22636F6EC2
:10CEB000746578746964222C31200D0A000000002A
:10CEC00041542B51485454504346473D2272657398
:10CED000706F6E7365686561646572222C30200D19
:10CEE0000A000000042E002041542B514854545095
:10CEF00055524C3D25752C33300D0A00842C0020F2
:10CF0000434F4E4E4543540041542B514644454CEB
:10CF10003D222A220D0A00002B5148545450474507
:10CF2000543A20302C3230362C00000041542B5122
:10CF30004854545047455445583D38302C2D312CD9
:10CF400032303438300D0A0041542B51485454507B
:10CF500047455445583D38302C302C323034383029
:10CF60000D0A000041542B5148545450524541443D
:10CF700046494C453D225546533A2573222C3830BC
:10CF8000200D0A00803801002B514854545052455E
:10CF9000414446494C453A203000000010B5FFF7A7
:10CFA000DDFC0249C8630320487010BD6403002003
:10CFB0002DE9F84303F066FC9E4C01250327E07839
:10CFC00000264FF0020814283FD2DFE800F03E0AA6
:10CFD0000D4A5765727F8C99A6B33E3ECA3EE4FF68
:10CFE000FCFB04F0EFFE2EE000F0F6F901282CD156
:10CFF0009049A682002214318F4804F0E1FD38B335
:10D00000A18A8D4804F048FD8CA18B48FBF72FF9CD
:10D0100020B1E570BDE8F84300F0E8B98BA186487F
:10D02000FBF725F940B1322389A20B2189A0009694
:10D0300004F0E4FFE7700BE0A18A7F4804F02CFDC8
:10D04000A078022803D284F80380BDE8F883A67094
:10D0500032237FA20B217FA0009604F0CFFFE77060
:10D06000F3E704F0C1FF0128EFD1322378A20B21AE
:10D070007BA0009604F0C2FF04200BE004F0B4FF94
:10D080000128E2D1142379A20A217CA0009604F0A1
:10D09000B5FF0520E070D8E704F0A6FF0128D4D141
:10D0A000142379A2172180A0009604F0A7FF062080
:10D0B000F0E704F099FF0128C7D1142364A21D21D1
:10D0C0007FA0009504F09AFF0720E3E704F08CFFAF
:10D0D0000128BAD119235EA2194681A0009504F057
:10D0E0008DFF0820D6E704F07FFF0128ADD119237A
:10D0F00057A21D2181A0009504F080FF0920C9E7F7
:10D1000004F072FF0128A0D1192351A21A2183A093
:10D11000009504F073FF0A20BCE704F065FF0128C6
:10D1200093D132234AA2092183A0009504F066FF1F
:10D130000E20AFE704F058FF012886D107F01AFE51
:10D140006021804807F0C0FC002859DD602857DACC
:10D15000C1B232237CA27B48009504F04FFF12201D
:10D1600098E704F041FF012895D108F0F7FE60B37D
:10D1700074486021603007F075FC002840DD6028AD
:10D180003EDAC1B26F48322373A26030009504F0DA
:10D1900035FF10207EE704F027FF01288CD1694875
:10D1A0008021C03007F036FC002829DD802827DAEE
:10D1B000C1B2644832236CA2C030009504F01EFF57
:10D1C000112067E728E00EE000E019E004F00CFF12
:10D1D00001288BD1192368A20A2169A0009504F0C7
:10D1E0000DFF0B2056E704F0FFFE01288BD11248FB
:10D1F0006021603807F08AFC002801DD602801DB2F
:10D20000E57022E7C1B20C48322360A26038009575
:10D2100004F0F4FE13203DE704F0E6FE0128F0D10F
:10D220001420E0702770BDE8F84300221146072063
:10D2300003F09CBB1003002099190020504F574564
:10D2400052454420444F574E0000000052445900BC
:10D250004F4B000041542B4346554E3D300D0A00C4
:10D2600041542B4346554E3D310D0A002B43504946
:10D270004E3A2052454144590000000041542B438E
:10D2800050494E3F0D0A00002B51454E473A20228F
:10D2900073657276696E6763656C6C222C224E4FE3
:10D2A000434F4E4E2200000061742B71656E673D46
:10D2B0002273657276696E6763656C6C220D0A0075
:10D2C00041542B514D544346473D22726563762F9E
:10D2D0006D6F6465222C302C302C300D0A0000005C
:10D2E00041542B514D544346473D22766572736934
:10D2F0006F6E222C302C340D0A00000041542B514B
:10D300004D544346473D226B656570616C69766597
:10D31000222C302C3132300D0A00000041542B51A8
:10D320004D544346473D22716D7470696E67222CDF
:10D33000302C33300D0A000041542B4347534E0D1F
:10D340000A000000F91700202B514D545355423A62
:10D3500020302C312C3000002B514D544F50454E75
:10D360003A20302C300000002B514D54434F4E4E8C
:10D370003A20302C302C30002B51434349443A00A2
:10D3800041542B51434349440D0A00002B514D5445
:10D390005355423A20302C322C3000000348C078DC
:10D3A000142801D00020704701207047100300208E
:10D3B00010B501F0C1FB01F0AFFB02490120C870BC
:10D3C00010BD0000100300200249C87007204872F9
:10D3D000704700001003002003480078052801D0A2
:10D3E00000207047012070475003002001490020B1
:10D3F0000870704750030020010901EB810100F023
:10D400000F0000EB4100C0B270470A21B0FBF1F2FF
:10D41000B0FBF1F301FB1300120740EA1260704702
:10D42000002000BF00BF00BF00BF00BF00BF00BFA3
:10D4300000BF00BF401CC0B20428F2D370470000F8
:10D440000FB41CB50246002007AC00290BD0491EC2
:10D45000CDE90021054B6A462146069800F032FAD4
:10D46000009A002111701CBC5DF814FBF3DF00086A
:10D470000FB4084B10B504A902AA039800F022FAD1
:10D48000044602A9002000F0BFFD204610BC5DF854
:10D4900014FB000009E000084100080218BF042046
:10D4A0000A0E18BF40F001004FF07F4232EA01013E
:10D4B00008BF40F00200012808BF052070470000A7
:10D4C00030B528B1144C031F002021680A4605E03E
:10D4D000084630BD9A4203D810465268002AF9D156
:10D4E000002800D041680BD00468A3EB0005A542DA
:10D4F00004D11B681C440346046002E0436000E062
:10D5000023603AB11C68D51AA54203D115682C4492
:10D510001C6052685A6030BDBC0500202DE9F04700
:10D5200082460F4C10480D4E0E4F001B4FF0000866
:10D5300020F007054FF0010900221146504602F085
:10D5400019FD002802D1306810B10020BDE8F08735
:10D550003C60C4E90058C6F80090EDE7C005002023
:10D56000F45C0020BC050020F05E002000214FF09C
:10D570007E50FBF7EBB90121FBF726BAFBF75CB94C
:10D5800000210846FBF7E2B961214FF0E040FBF7CC
:10D590001BBA6FF05E010807FBF716BA2DE9F04DD4
:10D5A0000D4614464FF07F41B1EB440F9EBF4FF044
:10D5B000FF312960BDE8F08D4FF0004040EA0421C2
:10D5C000C4F3C750783810F01F024A4B4FEA601C72
:10D5D000C2F120067B44C4F3C750A0F178004FEAA3
:10D5E000601003EB800053F82C3008BFD0E901C66F
:10D5F00012D0D0F804C093402CFA06F73B4387685A
:10D600000CFA02FC27FA06F8C06807FA02F2F040AA
:10D610004CEA080C42EA0006A3FB0132ACFB01C055
:10D62000A6FB016101EB0C068E4234BF4FF0010CEA
:10D630004FF0000CC1186144BCF1000F02D08142D0
:10D6400002D903E0814201D2012000E00020104411
:10D6500000F120024FEA92188006CA0C40EA4230DC
:10D660004F03C5F80080FBF7EBFA82463846FAF71D
:10D67000C2FD6FF01201FBF7A7F907463046FAF733
:10D68000BAFD6FF02501FBF79FF9834639465046F6
:10D69000FBF7D2F85946FBF7CFF800F500666FF3B9
:10D6A0000B0651463046FBF719F93946FBF716F9D8
:10D6B0005946FBF716F91049FBF716F907460F49CB
:10D6C0003046FBF711F93946FBF7B6F807460C4927
:10D6D0003046FBF709F93946FBF7AEF814F0004F76
:10D6E00008BFBDE8F08DC8F1805180F0004029608E
:10D6F000BDE8F08DD8B40000DB0FC92F22AAFD29A8
:10D700000000C92F02E008C8121F08C1002AFAD180
:10D7100070477047002001E001C1121F002AFBD1B1
:10D72000704700000149086070470000C4050020F0
:10D730002DE9FF5F82B00021DDE90430020DDDF844
:10D7400040B0034318D044F61050A2F2FF324243D7
:10D750001514119801281FD0A5EB0B00401C5FEA9F
:10D76000000A4FF000064E4FDFF83891B0465046A1
:10D7700015D5CAF1000413E0119801244AA3012829
:10D7800001D16FEA0B010298119AC0E90031C0E99A
:10D79000024206B0BDE8F09FCBF10000DFE704468F
:10D7A0000021404A491842EB0450CDE9001012E034
:10D7B000E00707D032463B4640464946FBF7B7F9FB
:10D7C0008046894632463B4610461946FBF7AFF97C
:10D7D00006460F466410002CEAD1DDE90401DDE9BC
:10D7E0000023BAF1000F06DAFBF7A1F942464B46D7
:10D7F000FBF79DF905E0FBF7B1FC42464B46FBF712
:10D80000ADFC04460E460022284BFBF7BDFA03D8B8
:10D810004FF0FF30014607E00022254B20463146FD
:10D82000FBF7DEF8FBF715FD102409E0002C0ADBFE
:10D830000A220023FAF798FC039B30321A55641E23
:10D8400050EA0102F2D1641C039AC4F1110314449A
:10D85000119A012A03D0012208430DD10AE008439E
:10D8600004D000204FF0110B119072E7A3EB0B05D1
:10D870006D1E0DE05B4504DD4FF0000205F1010572
:10D8800004E003DA4FF00002A5F10105002AECD014
:10D8900002981199C0E90231C0E9004579E700001A
:10D8A000000014400000F03F300000000000F04392
:10D8B0000000E03F30380A2801D2012070470020E4
:10D8C000704700002DE9FF4F95B09B4689460646FC
:10D8D00000250FE2252877D100242746F84A0121A8
:10D8E000059400E0044316F8013F203B01FA03F0E1
:10D8F0001042F7D130782A2811D06FF02F033078FA
:10D90000A0F13002092A16D8059A44F0020402EB6D
:10D91000820203EB42021044761C0590EFE759F8AF
:10D92000042B0592002A03DA504244F40054059077
:10D9300044F00204761C30782E2816D116F8010F18
:10D9400044F004042A280DD06FF02F023078A0F1A3
:10D950003003092B09D807EB870302EB4303C718F1
:10D96000761CF3E759F8047B761C30786C280FD0CE
:10D9700006DC4C2817D068280DD06A2814D104E0A2
:10D98000742810D07A280FD10DE044F400140AE076
:10D9900044F4801401E044F440147278824202D1CD
:10D9A00004F58014761C761C307866280BD013DCC6
:10D9B000582877D009DC002875D04528F6D04628AD
:10D9C000F4D047281AD19DE118E0632835D06428A7
:10D9D00079D0652812D195E1702873D008DC6728CA
:10D9E000F1D069286FD06E280DD06F2806D1B5E030
:10D9F00073282CD0752875D0782874D05A4617997A
:10DA000090476D1C75E1C4F30250022809D0032829
:10DA10000DD0D9F8001004280DD00D6009F10409CB
:10DA200067E1D9F80010EA17C1E90052F6E7D9F822
:10DA300000100D80F2E70D70F0E719F8041B8DF867
:10DA4000001000208DF80100EA46012003E059F89B
:10DA500004AB4FF0FF3061074FF0000102D40DE03E
:10DA600008F101018846B9420FDA8045F8DB1AF85F
:10DA700008100029F4D108E008F10101884681422C
:10DA8000FADB1AF808100029F6D105985B46A0EBDE
:10DA9000080721463846179A00F094FA284400EB0C
:10DAA000080507E04DE029E10DE01AF8010B5A46A0
:10DAB00017999047B8F10108F7D25B4621463846DE
:10DAC000179A13E142E00A220092C4F302524FF087
:10DAD000000A022A08D059F804CB032A4FEAEC7155
