:020000040800F2
:10800000388F002045810008D7C2000875C10008DC
:10801000D5C20008E5940008D3CC00080000000099
:1080200000000000000000000000000005C400087F
:108030004F95000800000000D3C30008A5C4000845
:108040005F8100085F8100085F8100085F81000890
:108050005F8100085F8100085F8100085F81000880
:108060005F8100085F8100085F81000809950008B2
:10807000159500085F8100085F8100085F81000896
:108080005F8100085F8100085F8100085F81000850
:10809000D1CC00085F8100085F8100085F81000883
:1080A0005F8100085F8100085F8100085F81000830
:1080B00025C500085F81000831C500085F81000800
:1080C0005F8100085F8100085F8100085F81000810
:1080D0005F810008B9CC0008C5CC00085F810008AA
:1080E0005F8100085F8100085F8100085F810008F0
:1080F0005F8100085F8100085F8100085F810008E0
:108100005F8100085F8100085F8100085F810008CF
:108110005F8100085F8100085F8100085F810008BF
:108120005F8100085F8100085F8100085F810008AF
:10813000DFF80CD000F00AFF004800478105010875
:10814000388F00200648804706480047FEE7FEE7D4
:10815000FEE7FEE7FEE7FEE7FEE7FEE7FEE7FEE7F7
:1081600021C50008318100082DE9F05F0546002097
:1081700092469B4688460646814640241BE0284698
:1081800041464746224600F020F853465A46C01A58
:10819000914110D311461846224600F019FD2D1AC0
:1081A00067EB01084F4622460120002100F010FD38
:1081B00017EB00094E41201EA4F10104DFDC484604
:1081C00031462A464346BDE8F09F202A04DB203A88
:1081D00021FA02F00021704721FA02F3D040C2F1E7
:1081E00020029140084319467047A0F14101192926
:1081F00000D820307047C0B24FF4F05101F086B87B
:1082000078563412EFCDAB89030010B5431A934270
:1082100009D28318881803E010F8011D03F8011D26
:10822000521EF9D210BD40EA01039B0703D009E0BA
:1082300008C9121F08C0042AFAD203E011F8013B52
:1082400000F8013B521EF9D210BDD2B201E000F895
:10825000012B491EFBD270470022F6E710B51346EA
:108260000A4604461946FFF7F0FF204610BD30B518
:1082700005462A460B4612F8010B13F8014B08B1CC
:10828000A042F8D01CB1002802D06D1CF1E72846AE
:1082900030BD10B5044604E00B7800F8013B03B193
:1082A000491C521EF8D2204610BDCAB2401E10F81A
:1082B000011F8A4202D00029F9D100207047421CD8
:1082C00010F8011B0029FBD1801A704710B500225D
:1082D00000E0521C835C8C5CA34201D1002BF8D1DE
:1082E000D8B2E1B2401A10BD30B5044600200346B2
:1082F00000E05B1C934203D2E05CCD5C401BF8D0F5
:1083000030BD034611F8012B00F8012B002AF9D1EA
:108310001846704730B505460020034600E05B1C58
:10832000934205D2EC5CC85C201A01D1002CF6D136
:1083300030BD0246C9B200E0401C0378002BFBD1DF
:1083400002E003788B4203D0401E9042F9D2002015
:10835000704700000FB400B58DB010A909900B90C4
:1083600000914FF0FF300A9000200C9005480690D5
:10837000054807906A4609A80F9900F05FFC0DB008
:108380005DF814FB598C0008778C00082DE9FF5F1D
:108390001D464FF0FF3BD5E9014691465F464FF041
:1083A0000008A9697F1C01988847296A8246884786
:1083B0000028F6D1BAF1FF3F0CD024F4C064002E9F
:1083C00019DD600614D5BAF12B0F09D0BAF12D0FC3
:1083D0000ED103E0584604B0BDE8F09F44F4806439
:1083E000A9697F1C01988847761E8246002E02DD0F
:1083F000BAF1300F03D0B9F1000F26D032E0A969ED
:10840000761E44F400747F1C019888478246002E33
:1084100005DDBAF1780F06D0BAF1580F03D0B9F1E3
:10842000000F10D01EE0B9F1000F02D0B9F1100F0B
:1084300018D1A969761E24F400747F1C019888471E
:108440008246102002E0082000E00A20814609E070
:1084500008FB0908A969761E44F400747F1C019882
:1084600088478246002E05DD4946504600F0D1FB84
:108470000028EDDAE96901988847A00502D46FF079
:108480000100A8E7E00725D1600613D5600502D5F5
:10849000C8F1000000E0404629680A1D2A6009680A
:1084A000220501D5087015E0220701D5088011E0EA
:1084B00008600FE02868011D29600068210502D5C9
:1084C00080F8008006E0210702D5A0F8008001E0D6
:1084D000C0F8008038467EE72DE9FF4F087883B06A
:1084E0009946FF2805D0491C2D2804D000240020DF
:1084F00008E000200BE00124F9E700EB800003EB2B
:108500004000491C0B78FF2BF7D104B140420023F7
:108510000293147819461D462D2C01D02B2C04D122
:10852000521C2D2C13D000240294AA461478FF2C40
:108530000FD00A25A3FB057801FB05814FF0000C45
:1085400003FB0C11521CE3194AEB0101EEE7012475
:10855000EAE7814453EA010002D019F5C87F06DA40
:1085600003980021C0E9001107B0BDE8F08F002595
:10857000AE4E2F46DFF8B882184600F0A7FCCDE9D2
:108580000001B9F1000002DAC9F1000400E004467C
:108590000023A74A1AEB030B42EB045A12E0E00750
:1085A00007D02A4633463846414600F0ECF90746E4
:1085B00088462A4633461046194600F0E4F9054637
:1085C0000E466410002CEAD1DDE90001B9F1000F7C
:1085D0005A46534606DA00F00AFC3A46434600F093
:1085E00006FC05E000F0CFF93A46434600F0CBF92F
:1085F000029A0AB181F00041039AC2E90001B3E78F
:108600002DE9FF4F1F468DB0D7E901464FF0FF38E7
:108610002E2045464FF000090B90B9696D1C0E984D
:108620008847396A824688470028F6D1BAF1FF3F69
:108630000AD024F4D064002E11DDBAF12B0F08D03B
:10864000BAF12D0F0BD102E0404611B08DE744F492
:108650008064B9696D1C0E9888478246761E69460B
:10866000600501D52D2000E02B208DF8000001F1E0
:10867000010B0DF1200809E0B9696D1C0E988847BF
:1086800082460F9844F40074761E0560002E02DDC9
:10869000BAF1300FF0D00B998A453ED144F08004F6
:1086A00006E00F99681CA9F1010944F40074086000
:1086B000B9696D1C761E0E98884782463028F0D026
:1086C0002BE00B998A4505D1200603D444F08004A1
:1086D000761E18E0504605F071FC08B30DF1130149
:1086E000761E44F400748B4508D2AAF130000BF8D2
:1086F000010B200607D5A9F1010003E0200602D4F2
:1087000009F101008146A00502D50F99681C086097
:10871000B9696D1C0E9888478246002ED1DC53E063
:10872000002E51DDBAF1650F02D0BAF1450F4BD1E1
:10873000A00549D5B9696D1C24F44074761E0E98C5
:1087400088478246002E0CDD2B2804D0BAF12D0F6D
:1087500007D144F48074B9696D1C0E98884782462D
:10876000761EE00501D52D2100E02B2108F8011B24
:10877000CDF82C8021E00DF12901761E44F400741F
:1087800088450CD2AAF1300010F0FF0088F80000F4
:1087900002D10B99884509D908F1010806E0E005E6
:1087A00001D5244801E042F20F708146B9696D1C81
:1087B0000E98884782460F980560002E04DD5046CB
:1087C00005F0FCFB0028D6D1F9690E988847FF20F8
:1087D0008BF8000088F800000020069007904B46B8
:1087E0006A4608A906A8FFF777FEA00502D46FF035
:1087F00001002AE714F0240F0AD0E00714D1DDE9C4
:1088000006123868031D3B600068C0E900120BE0E7
:10881000DDE9060100F07EFB0146E00704D138687F
:10882000021D3A600068016028460EE7000014400F
:108830000000F03FF1D8FFFF2DE9FE4F804681EAAE
:108840000300C00F0C46009021F0004123F00045CA
:10885000B8EB0200A94105D24046214690461C468D
:108860000B46024623F00040104347D0270DC7F3C4
:108870000A00C3F30A510290401A019040286BDAB3
:10888000C3F3130040F4801B0098924620B10023EC
:10889000D2EB030A63EB0B0B01985946C0F140027F
:1088A000504600F095F906460D4650465946019A45
:1088B00000F09DF910EB08006141002487EA115295
:1088C00084EAE7731A4340D0009A62B3019A012AFE
:1088D0004FEA075215DC001B61EB02014FF000422A
:1088E00002EA0752CDE90042001C41F580113246F0
:1088F0002B4600F02EFA03B0BDE8F08F404621462B
:10890000F9E7001B61EB0201001C41F58013001820
:108910005B412018A2F5001747EB030140EAD57030
:10892000B6196D4111E06D084FEA360645EAC0758B
:108930004FEA0752001B61EB0201001C41F5801158
:1089400049084FEA30000019514132462B4603B026
:10895000BDE8F04F00F0EEB900980122400000237E
:10896000D0EB020263EBE073009821464FEAE0741B
:10897000B8EB000061EB0401E9E783F000435BE73B
:1089800081F0004158E72DE9FE4F81EA030404F02D
:10899000004421F0004100944FF0000B23F000430D
:1089A00050EA01045ED052EA03045BD0C3F30A54D8
:1089B000C1F30A552C44A4F2F3340194A0FB0254F1
:1089C000C1F3130141F48011C3F3130343F4801383
:1089D00001FB024400FB034E840A970A44EA8154D7
:1089E00047EA8357A4FB076802958D0A05FB0785B4
:1089F0004FEA932C04FB0C542705029D4FEA0658BE
:108A000047EA1637B5EB08056EEB070C870E920E9A
:108A100047EA811742EA8312A7FB0201B6EB0B017A
:108A200064EB00042B0D43EA0C335E1844EB1C503E
:108A3000DA465146E7FB0201C5F313044FEA0B3354
:108A400043EA14534FEA0432019C43EA0603A4F1BB
:108A50000C040294009CCDE900B400F07AF903B054
:108A6000BDE8F08F00200146F9E770B521F0004322
:108A700003430CD0C1F30A550024D5EB040564EB85
:108A80000403D617AD1AB34102DB0020014670BDC6
:108A9000201841EB025170BD0EB5C10F80EAE070A5
:108AA0000844CA07002140F233438DE80E000A460D
:108AB0000B4600F04EF903B000BD0EB540F2334155
:108AC00002910021CDE900110A460B4600F041F960
:108AD00003B000BD70B5C1F30A5201F00045002497
:108AE000C1F3130140F2FF3341F480119A4201DADD
:108AF000002070BD40F233439A42A2F2334203DCBD
:108B00005242FFF762FB00E090402C43F1D040421C
:108B100070BDC1F30A5210B5C1F3130140F2FF3327
:108B200041F480119A4201DA002010BD40F2334333
:108B30009A42A2F2334203DC5242FFF746FB10BDD9
:108B4000904010BD30B5041E71F1000404DB4FF0FD
:108B50000044404264EB0101141E73F1000405DB84
:108B60001C464FF00043524263EB04038B4208BFA4
:108B7000824230BD30B5041E71F1000404DB4FF0B9
:108B80000044404264EB0101141E73F1000405DB54
:108B90001C464FF00043524263EB0403994208BF66
:108BA000904230BD30B50B46014600202022012402
:108BB00009E021FA02F59D4205D303FA02F5491BAB
:108BC00004FA02F52844151EA2F10102F1DC30BDC1
:108BD000202A04DB203A00FA02F10020704791407D
:108BE000C2F1200320FA03F3194390407047202A72
:108BF00006DBCB17203A41FA02F043EAE07306E0C5
:108C000041FA02F3D040C2F12002914008431946D4
:108C100070473A2800D2303820F02002412A01D390
:108C2000A2F13700884201D34FF0FF3070470000B7
:108C3000026811441378016018467047D1600449F6
:108C400051610449116200211161114600F090B98F
:108C5000318C0008F7810008426842B1016811F8C0
:108C6000013B23B1521EC0E9001218467047012192
:108C7000C160881E704742685AB1C368016843B931
:108C800083688B4205D0491E521CC0E900120020A7
:108C900070474FF0FF3070470FB4002300B589B024
:108CA0000CA900910B996FF00042CB601E4B06930C
:108CB0001E4B07930423CDE901321D4A0892024658
:108CC0006B460020FFF79CFC09B05DF814FB70B503
:108CD00086B006464FF0FF300091CDE9010100203B
:108CE00015460C4604903246694604A8FFF7D4FFA7
:108CF00002460498211825B108B1084600E0204634
:108D00002860049800280DD0002A02DD00988842CF
:108D100008D0081B0094CDE901043246694604A836
:108D2000FFF7BAFF06B070BD598C0008778C0008B9
:108D3000F781000810B5141E73F1000408DA401C16
:108D400041F1000192185B411A4301D120F001006A
:108D500010BD2DE9F04D92469B4611B1B1FA81F25A
:108D600002E0B0FA80F220329046FFF731FF04466D
:108D70000F4640EA0A0041EA0B0153465A460843AF
:108D800013D0114653EA010019D0C8F140025046F1
:108D9000FFF71BFA05460E46504659464246FFF776
:108DA00017FF084305D0012004E020463946BDE8FE
:108DB000F08D0020054346EAE0762C4337430A98BD
:108DC0006305E40AA0EB08000022FD0A44EA4754C8
:108DD0000A3002D500200146E9E701051019694172
:108DE000DDE9084500196941BDE8F04DA2E72DE92C
:108DF000F04D81EA030404F0004B21F000451446D5
:108E00004FF0000A23F0004150EA050220D054EA56
:108E100001021DD0C5F30A570246C5F31303C1F37F
:108E20001300C1F30A5640F4801543F48013A7EBF6
:108E30000608101BD64608F2FD3873EB050002D376
:108E400008F1010801E092185B41B8F1000F03DA64
:108E500000200146BDE8F08D00204FF48011064649
:108E600084460EE0171B73EB050705D3121B63EB5B
:108E7000050306434CEA010C49084FEA30009218FA
:108E80005B4150EA0107EDD152EA030012D082EAB9
:108E9000040083EA0501084305D0101BAB4106D24C
:108EA0000122002306E000224FF0004302E06FF0B1
:108EB000010253101AEB06004CEB085110EB0A00AC
:108EC00041EB0B01BDE8F04DFFF734BF0EB540F2AA
:108ED000334202920022CDE900221346FFF739FF08
:108EE00003B000BDC1F30A52C1F3130140F2FF33D6
:108EF00041F480119A4202DA00200146704740F2A4
:108F000033439A42A2F2334202DC5242FFF75DB988
:108F1000FFF75EBE01F0004330B421F0004150EA9B
:108F2000010206D00A0DA2F56072C1F31301002AF6
:108F300002DC30BC00207047440F44EAC104C10089
:108F4000E01830BC00EBC25000F0A8B9064C074D49
:108F500006E0E06840F0010394E807009847103409
:108F6000AC42F6D3FFF7E8F830ED010850ED010808
:108F70002DE9F34F8BB04FF0000801F10C000C46C7
:108F80004FF0010B46460DF1080A0190626901217C
:108F900001989047051E2DD0252D2CD0216A884799
:108FA000C0B16269012101989047216A8847002871
:108FB000F7D1411E62690198904700E0761CA169D3
:108FC0000B988847216A88470028F7D1E1690B98F8
:108FD0008847DBE7A1690B9888470746A84201D17B
:108FE000761CD3E7E1690B9888477F1C02D1B8F162
:108FF000000F6FD046E1002762693D46394601986F
:1090000090472A2804D162690121019890470125DF
:10901000DFF884926269012101989047A0F1300144
:109020000A290AD24F45E5DC07EB870100EB41072F
:10903000303FDFD445F01005ECE7E90601D46FF0CE
:1090400000476C280AD04C2814D0682815D06A280C
:109050000DD074281CD07A281AD01DE06269012135
:10906000019890476C2802D045F0040514E045F0C3
:1090700002050DE045F020050AE062690121019832
:109080009047682802D045F0080505E045F40065E2
:109090006269012101989047C4E9015765283DD0D4
:1090A00019DC58287AD00CDC452837D004DC252878
:1090B00026D0412831D131E046282FD047282CD165
:1090C0002CE05B2877D0612828D063287CD06428E6
:1090D00023D15AE0D0E06F2848D008DC66281DD0A4
:1090E00067281BD0692821D06E2816D127E0702868
:1090F00045D0732868D0752847D078280DD14DE029
:10910000A1690B988847054625283FF469AFE169B6
:109110000B9888476D1C3FF46AAFB3E023466A465C
:109120006FF001000B99FFF76BFA9EE045F04000ED
:109130006060A80723464FF0000236D43EE0E807FF
:109140007FF447AF2068011D21600068290501D523
:1091500006701BE7290701D5068017E7A90703D585
:10916000F117C0E9006111E706600FE745F0400024
:109170006060A80723464FF0080216D41EE040F6B0
:109180000E0125EA0100606016E045F040006060D5
:10919000A80723464FF00A0207D40FE045F040002D
:1091A0006060A80708D5234610226FF001000B99D4
:1091B000AFF3008059E007E0234610226FF0010072
:1091C0000B99FFF7E3F850E04FF000094F464B468C
:1091D000632802D05B2806D040E0E80601D40120D5
:1091E000A06001273AE062690121019890475E285A
:1091F00005D14FF0010962694946019890472169FC
:1092000039B900210A46534643F82120491C082950
:10921000FADBB0B3216969B9C11700EBD162531110
:109220000AEB830122F01F02821A01200B68904092
:1092300003430B6062690121019890475D28E8D1E2
:10924000B9F1000F09D00020514651F82020D24337
:1092500041F82020401C0828F7DB02AB224600978B
:109260006FF001000B99AFF3008000280CDA401C6E
:1092700008D1BBF1000F05D04FF0FF300DB0BDE8B5
:10928000F08FFFE74046F9E7E90701D108F101084F
:1092900006444FF0000B79E6CCCCCC0C0029A8BFDB
:1092A0007047401C490008BF20F00100704710B40F
:1092B000B0FA80FC00FA0CF050EA010404BF10BCC4
:1092C000704749B1CCF1200421FA04F411FA0CF1F1
:1092D00018BF012121430843A3EB0C01CB1D4FEA2A
:1092E00000614FEA102042BF002010BC704700EB25
:1092F000C35010440029A4BF10BC7047401C490053
:1093000008BF20F0010010BC704700007F2801D981
:10931000002208E0064A02EB5002C007127800D192
:10932000120902F00F02012090400840704700002F
:1093300084EA010870B58C1810F8015B15F007037A
:1093400001D110F8013B2A1106D110F8012B03E0DE
:1093500010F8016B01F8016B5B1EF9D12B0705D4E6
:109360000023521E0DD401F8013BFAE710F8013B2F
:10937000CB1A921C03E013F8015B01F8015B521E4B
:10938000F9D5A142D8D3002070BD70B5044620683D
:10939000816811F0010F24D0816821F00101816002
:1093A00001F066FA05462068806810F0010F18D0B9
:1093B00001F05EFA401B02280ED92068806810F088
:1093C000010F09D0A06A40F01000A062E06A40F0EE
:1093D0000100E062012070BD2068806810F0010F7C
:1093E000E6D1002070BD10B50246506A816A11F0C6
:1093F000500F05D0006A016BBDE8104010460847C9
:10940000816A41F400718162016889684FF46022C9
:1094100032EA01010DD1017B59B9816A21F48071D1
:109420008162816A11F4805F03D1816A41F0010198
:10943000816200F0B3FB10BD10B5406A816A41F053
:1094400040018162C16A41F00401C16200F0ACFBDD
:1094500010BD10B5406A00F0A4FB10BDF8B504467D
:10946000002600962068816811F0010F28D18168DC
:1094700041F001018160194819490068B0FBF1F021
:109480000090009828B10098401E00900098002895
:10949000F9D101F0EDF905462068806810F0010F60
:1094A0000ED101F0E5F9401B022804D9206880683C
:1094B00010F0010F06D02068806810F0010FF0D086
:1094C0000020F8BDA06A40F01000A062E06A40F001
:1094D0000100E06284F824600120F8BD140000203F
:1094E00040420F00FEE70000064A527B3AB13222AA
:1094F00051436422B1FBF2F101800120704700204A
:1095000070470000BC020020014800F0B9BD000017
:109510004C130020704710B490F840C0012404FAA6
:109520000CFCC46BC4F804C0D0F800C0CCF8043004
:109530004368102B05D0036899600068C26010BCB6
:10954000704703689A600068C16010BC704770473C
:109550000C4800B5816985B041F0080181618069DE
:10956000694600F0080004904FF4E04000900120AC
:1095700001900220029003200390034801F05EF85E
:1095800005B000BD00100240000C01402DE9F04183
:10959000054603F003FA0824114F4FF40058E60281
:1095A000E80701D0012200E000224146384601F0E0
:1095B00058F904F09FFB01223146384601F051F979
:1095C00004F098FB00223146384601F04AF96D0854
:1095D000641E14F0FF04E3D1BDE8F04104F08ABB3F
:1095E000000C01402DE9F041002503F0B9F903F02A
:1095F000F3F9154F0024DFF850804FF48046083F00
:10960000D8F800106808890402D540F0800501E010
:1096100000F07F0504F06EFB01223146384601F070
:1096200020F904F067FB00223146384601F019F9B1
:1096300004F060FB641CE4B2082CE1D304F05AFB94
:109640002846BDE8F0810000080C01402DE9F041FA
:10965000044672B60022144E4FF480552946304617
:1096600001F0FFF8AF0000223946304601F0F9F86A
:1096700004F040FB01222946304601F0F2F8204672
:10968000FFF784FFFFF7AEFF04460022394630465D
:1096900001F0E7F800222946304601F0E2F862B610
:1096A0002046BDE8F0810000000C014070B5812526
:1096B000064600242846FFF7C9FF3055AD1C641C40
:1096C000E4B2EDB2072CF5D331780B480B064FF01E
:1096D00000020DD503785B1CDBB203700A2B08D3A4
:1096E000027001F07F003070304600F045F800E075
:1096F0000270012070BD00007403002010B500212D
:109700008E2000F00BF8A521902000F007F88021B2
:10971000BDE810408E2000F001B800002DE9F041B6
:10972000144D884607464FF48054002221462846AF
:1097300001F097F8A60000223146284601F091F882
:1097400004F0D8FA01222146284601F08AF838466A
:10975000FFF71CFF4046FFF719FF0022314628465D
:1097600001F07FF821462846BDE8F041002201F0D3
:1097700078B80000000C014070B506468025002135
:109780008E20FFF7CBFF072431782846FFF7C6FF6E
:10979000AD1C641E761CEDB214F0FF04F4D18021E0
:1097A0008E20FFF7BBFF012070BD704706490020E7
:1097B000C8610648016941F004010161016941F095
:1097C000400101617047000018070020002002409E
:1097D000064A0021D16106490A6942F002020A6183
:1097E0004861086940F04000086170471807002090
:1097F00000200240044B0022DA61044A136943F05E
:109800000103136101807047180700200020024007
:1098100000201649CA6812F0100F154A04D0D0690A
:1098200040F00200D0611020CB6813F0040F05D087
:10983000D36943F00103D36140F00400CB6913F016
:10984000010F07D0D36943F00403D361CA6922F042
:109850000102CA61A0F58072013A01D0C860704768
:10986000C86920F00100C861704700000020024074
:109870001807002070B5044600F0FAFF0646164DA2
:10988000E86810F0010F0ED0B4F1FF3F07D024B10B
:1098900000F0EEFF801BA04201D9032070BDE868F4
:1098A00010F0010FF0D1E86810F0200F01D0202057
:1098B000E860E86810F0100F07D1E86910F0010FB8
:1098C00003D1E86810F0040F03D0FFF7A1FF0120D7
:1098D00070BD002070BD00000020024030B504467D
:1098E000104607E014F8015BC2B2554033F815206A
:1098F00082EA10200A1EA1F10101F3DC30BD30B56F
:10990000022903D80C31401EC9B280B26424B0FBD6
:10991000F4F3B0FBF4F504FB1500491C01EB8104E2
:1099200004EBC1010524B1FBF4F11BB2DC1703EB1E
:109930009474A4105B4204EB43030344C41700EB8C
:10994000947003EBA00008441044401E00B20028AD
:1099500002DA00F2245000B2072190FBF1F201FB81
:109960001200C0B230BD0000F8B5044600260096D3
:1099700094F82400012809D0012084F8240020460E
:10998000FFF703FD0746380002D06DE00220F8BD66
:10999000A06A20F4885040F00200A062022001F08A
:1099A00055F833490968B1FBF0F040000090009889
:1099B00028B10098401E009000980028F9D1204658
:1099C000FFF74CFD2068816841F00801816000F0DC
:1099D0004FFF05462068806810F0080F18D000F08F
:1099E00047FF401B0A280ED92068806810F0080F36
:1099F00009D0A06A20F0020040F01000A06284F8B4
:109A000024600120F8BD2068806810F0080FE6D1BE
:109A10002068816841F00401816000F029FF05465B
:109A20002068806810F0040F18D000F021FF401B60
:109A30000A280ED92068806810F0040F09D0A06AA7
:109A400020F0020040F01000A06284F824600120A1
:109A5000F8BD2068806810F0040FE6D1A06A20F0FD
:109A6000020040F00100A06284F824603846F8BD8E
:109A70001400002078B44FF0000C0024009490F8FB
:109A80002420012A14D0012280F824204A681F25AE
:109A9000072A10D203685E6B521E02EB82029540C9
:109AA00026EA05050E6806FA02F22A435A631FE009
:109AB00078BC022070470D2A0DD203681E6BD21F9E
:109AC00002EB8202954026EA05050E6806FA02F2CC
:109AD0002A431A630CE00368DE6A0D3A02EB820245
:109AE000954026EA05050E6806FA02F22A43DA6274
:109AF0000A6807250A2A0DD30368DE680A3A02EBD2
:109B00004202954026EA05058E6806FA02F22A43CB
:109B1000DA600BE003681E6902EB4202954026EA18
:109B200005058E6806FA02F22A431A610A68102AAD
:109B300001D0112A0BD10268A2F18043B3F5923310
:109B40000AD0816A41F0200181624FF0010C80F857
:109B5000244078BC60467047936813F4000FF6D138
:109B6000936843F40003936009681029EFD1094911
:109B7000094A0968B1FBF2F101EB8101490000914A
:109B800000990029E3D00099491E0091009900290D
:109B9000F9D1DCE71400002040420F00042104F05A
:109BA000BDBD002104F0BABD704700002DE9F041B1
:109BB00004460025002C03D0A06A002618B108E056
:109BC0000120BDE8F081E66284F82460204600F0C0
:109BD0008FF82046FFF7D9FB0146A06A10F0100F5E
:109BE00000D139B1A06A40F01000A06201210846FE
:109BF000BDE8F081A06A20F4885040F00200A06225
:109C00002268A2F18040B0F59E3011D0E06994F84E
:109C10000CC040EA4C0360680343A068B0F5807F45
:109C20000DD001280BD00020277D012F0AD018E08D
:109C3000E069B0F5402FEAD14FF40020E7E74FF498
:109C40008070F1E7BCF1000F21D0D4F828C04CF0AF
:109C5000200CC4F828C0D4F82CC04CF0010CC4F877
:109C60002CC0D2F804C02CF4694C4CEA00005060BF
:109C700020688268DFF870C002EA0C021A43826032
:109C8000A068B0F5807F0BD0012809D00BE0D4F894
:109C900018C0ACF1010C40EA4C3040F40060E0E741
:109CA000208A401E05052068C26A22F470022A43F9
:109CB000C262206880680D4A1040984207D1E6626F
:109CC000A06A20F0020040F00100A0628FE7A06AC5
:109CD00020F0020040F01000A062E06A40F00100B5
:109CE000E062012183E70000FDF7E1FFFE0E1FFFA8
:109CF00070B586B00025064600950195029503953E
:109D000000681D49884234D11C49886940F40070BC
:109D10008861886900F400700490886940F0080048
:109D200088618869032400F0080004900094694663
:109D30000194134800F082FC5020CDE900046946EC
:109D4000104800F07BFC114C0F48C4E9000580204E
:109D5000C4E9025040002061800060612020C4E915
:109D60000605204600F0F6FA08B1FFF71EFD346242
:109D7000666206B070BD0000002401400010024081
:109D8000000C014000080140080002404C13002074
:109D90002DE9F0470446884691462068434F444EDB
:109DA000A0F1804ABAF5923A01D0B84207D13068A2
:109DB00010F4702F03D001252846BDE8F08794F8F1
:109DC000240001280BD0012084F824002046FFF74E
:109DD00045FB054600212DB184F82410ECE7022054
:109DE000BDE8F087A06A20F0010020F4606040F434
:109DF0008070A0622068B8421AD1326812F4702FC5
:109E000016D0A26A42F48012A262306810F4806F09
:109E100005D0A06A20F4005040F48050A062A06AEF
:109E200010F4805F13D0E06A20F00600E0620FE0DB
:109E3000A26A22F48012A262406810F4806FEED011
:109E4000A06A20F4005040F48050A062E7E7E1628D
:109E500084F82410216A17488862216A1648C8626B
:109E6000216A1648086321686FF0020008602068C4
:109E7000816841F48071816020684B4600F14C019B
:109E80004246206A00F0BAFA206881684FF46022E6
:109E900032EA010104D0816841F4801181608BE7CE
:109EA000816841F4A001816086E70000002801403C
:109EB00004240140E79300085394000839940008F3
:109EC00090F821100022022905D00421816380F836
:109ED00020200120704701680B6823F00E030B60FF
:109EE00001680B6823F001030B6090F84030D0F854
:109EF0003CC0012101FA03F3CCF8043080F82110B2
:109F000080F82020104670472DE9F05F002490F87B
:109F10002110022903D004218163012490E001680B
:109F20000A6822F00E020A6001680A6822F0010243
:109F30000A60454A0168454BDFF814C1454D464E5D
:109F4000464FDFF81C81DFF81C91DFF81CA1DFF819
:109F50001CB1DFF81CE1914232D9994201D10121B3
:109F60002BE0614501D1102127E0A94202D14FF435
:109F7000807122E0B14202D14FF480511DE0B9421C
:109F800002D14FF4803118E0414502D14FF48011E5
:109F900013E0494501D101210FE0514501D11021C4
:109FA0000BE0594502D14FF4807106E0714502D1B2
:109FB0004FF4805101E04FF480312E4A116036E0B9
:109FC000994201D1012130E0614501D110212CE0FD
:109FD000A94202D14FF4807127E0B14202D14FF47F
:109FE000805122E0B94202D14FF480311DE0414559
:109FF00002D14FF4801118E0914202D14FF08071EC
:10A0000013E0494501D101210FE0514501D1102153
:10A010000BE0594502D14FF4807106E0714502D141
:10A020004FF4805101E04FF48031134A5160012117
:10A0300080F82110002180F82010416B01B1884781
:10A040002046BDE8F09F000080000240080002406A
:10A050001C00024030000240440002405800024010
:10A060006C000240080402401C040240300402401C
:10A07000440402400404024000000240806B704728
:10A080002DE9F05FC16B0A6801680B68D0F840B039
:10A090004FF0040C0CFA0BFC1CEA020FDFF880C234
:10A0A000A04CA14DA14EA24FDFF88882DFF8889224
:10A0B000DFF888A270D013F0040F7ED00A6812F087
:10A0C000200F03D10A6822F004020A609C4A01684A
:10A0D000914233D9614501D104212CE0A14201D143
:10A0E000402128E0A94202D14FF4806123E0B1422F
:10A0F00002D14FF480411EE0B94202D14FF48021D9
:10A1000019E0414502D14FF4800114E0494501D1E5
:10A11000042110E0514501D140210CE0894A9142CF
:10A1200001D1091507E0884A914202D14FF48041DC
:10A1300001E04FF48021854A116038E0614501D18A
:10A14000042132E0A14201D140212EE0A94202D1F6
:10A150004FF4806129E0B14202D14FF4804124E004
:10A16000B94202D14FF480211FE0414502D14FF4A2
:10A1700080011AE0914202D14FF0806115E049451B
:10A1800001D1042111E0514501D140210DE06D4A7A
:10A19000914202D1091508E00FE06B4A914202D1C9
:10A1A0004FF4804101E04FF48021694A5160C16A57
:10A1B000002970D0BDE8F05F08474FF0020E0EFA9C
:10A1C0000BFE1EEA020F67D013F0020F64D00A687C
:10A1D00012F0200F06D10A6822F00A020A6001215B
:10A1E00080F82110564A0168914233D9614501D166
:10A1F00002212CE0A14201D1202128E0A94202D174
:10A200004FF4007123E0B14202D14FF400511EE03F
:10A21000B94202D14FF4003119E0414502D14FF467
:10A22000001114E0494501D1022110E0514501D14E
:10A2300020210CE0434A914201D1491507E0424AEE
:10A24000914202D14FF4005101E04FF400313F4AF6
:10A25000116039E0614501D1022133E0A14201D111
:10A2600020212FE0A94202D14FF400712AE0B1422F
:10A2700002D14FF4005125E0B94202D14FF4003130
:10A2800020E0414502D14FF400111BE0914204D17E
:10A290004FF0007116E041E01FE0494501D1022175
:10A2A00010E0514501D120210CE0264A914201D114
:10A2B000491507E0244A914202D14FF4005101E0D0
:10A2C0004FF40031224A5160002180F82010816A49
:10A2D000002923D0BDE8F05F08474FF0080C0CFAC6
:10A2E0000BFC1CEA020F19D013F0080F16D00A68F5
:10A2F00022F00E020A6090F84020C36B012101FA9F
:10A3000002F25A60816380F82110002180F8201049
:10A31000016B002902D0BDE8F05F0847BDE8F09F5F
:10A32000080002401C00024030000240440002408D
:10A33000580002406C000240080402401C04024025
:10A340008000024030040240440402400404024001
:10A350000000024010B400280ED0224B0168224AAF
:10A3600099420CD2214B0B44A2FB033212099200FA
:10A3700002641F4AC2630BE010BC012070471D4BF2
:10A380000B44A2FB03321209920002641A4AC26310
:10A39000022280F821200A686FF30D12D0F808C05D
:10A3A0004368046943EA0C03D0F80CC04CEA040C7F
:10A3B00043EA0C03D0F814C043EA0C03D0F818C0E9
:10A3C00043EA0C03D0F81CC043EA0C031A430A60AA
:10A3D00000218163012280F8212080F8201010BC28
:10A3E0000020704708040240CDCCCCCCF8FFFDBF64
:10A3F00000000240F8FBFDBF0004024070B50446B7
:10A40000002594F8200001280DD0012084F82000B8
:10A4100094F821C00020BCF1010F06D084F8200080
:10A420000225284670BD022070BD4FF0020C84F852
:10A4300021C0A0632068D0F800C02CF0010CC0F847
:10A4400000C02046FFF767F8E06A28B1206801687D
:10A4500041F00E01016009E02068016821F004016B
:10A4600001602068016841F0020101602068016814
:10A4700041F001010160D4E770B5044600F0F8F93D
:10A480000546B4F1FF3F02D004480078044400F0D0
:10A49000EFF9401BA042FAD370BD00000800002075
:10A4A0002DE9F04705460F462A4E4FF00009C6F841
:10A4B000D0904FF0010ADFF8A08098F8180001282A
:10A4C0000BD0012088F818002868022808D04CF228
:10A4D0005030FFF7CFF9A8B136E00220BDE8F08791
:10A4E0004CF25030FFF7C6F928BB0120FFF75EF9A8
:10A4F0004CF25030FFF7BEF98246306920F004007C
:10A50000306121E04FF0FF303860AC68E86804EB60
:10A51000C020A04218D92046FFF75AF94CF250301B
:10A52000FFF7A8F98246306920F0020030615FEA47
:10A530000A0001D03C6007E004F50064E968A868FF
:10A5400000EBC120A042E6D888F818905046BDE83C
:10A55000F08700000020024018070020034801692E
:10A5600041F080010161002070470000002002409E
:10A570002DE9F05F0746884615461E46DFF88890AD
:10A580000020C9F8D0000024DFF880A09AF8180055
:10A59000012809D04FF0010B8AF818B04CF2503066
:10A5A000FFF768F918B127E00220BDE8F09F012FFE
:10A5B0001AD0022F1AD00427002F1DD922012846B5
:10A5C0003146FDF702FE81B208EB4400FFF712F9B5
:10A5D0004CF25030FFF74EF9D9F8101021F001017C
:10A5E000C9F8101040B903E00127E5E70227E3E7C7
:10A5F000611CCCB2BC42E1D300218AF81810C9F822
:10A60000D0B0BDE8F09F00000020024018070020F5
:10A61000002007490A6912F0800F08D0054A4A60F5
:10A62000054A4A60096911F0800F00D00120704787
:10A630000020024023016745AB89EFCD2DE9F84F9B
:10A640004FF0000C00230A68002A7DD0DFF8F88163
:10A650000F2708F1040909F1040A0AF1040B012289
:10A6600002FA0CF60A683240B2426ED1DFF8DCE141
:10A670004C68A4EB0E0574452BD00DDC032C34D0B4
:10A6800005DC34B3012C19D0022C2FD11BE0112C86
:10A6900016D0122C2AD119E0B5F5881F19D006DC86
:10A6A000B5F5803F15D0B5F5801F1FD111E0B5F588
:10A6B000001F0ED0B5F5041F18D10AE0CB6815E0D5
:10A6C000CB681B1D12E0CB6808330FE0CB680C335E
:10A6D0000CE08B6823B1012B04D00823466105E010
:10A6E000042303E00823066100E00023B2F5807F25
:10A6F00001D2054601E000F1040502D24FEA8C04C4
:10A7000003E0ACF108044FEA84042E6807FA04FE63
:10A7100026EA0E0603FA04F446EA04042C604C68A8
:10A7200014F0805F11D04A4CA56945F00105A56180
:10A73000A46904F0010400942CF0030404F18044A3
:10A7400004F58034A66801E07CE074E04FEA8C7583
:10A750004FEA157507FA05FE26EA0E0EA0F18046AF
:10A76000B6F5843628D0A0F18046B6F5863625D0D9
:10A77000A0F18046B6F5883622D0A0F18046B6F525
:10A780008A361FD0A0F18046B6F58C361CD0A0F1D9
:10A790008046B6F58E3619D0062606FA05F545EA46
:10A7A0000E05A5604C6814F4803F11D0D8F8004025
:10A7B0001443C8F8004010E00026EEE70126ECE75D
:10A7C0000226EAE70326E8E70426E6E70526E4E7AB
:10A7D000D8F800409443C8F800404C6814F4003F97
:10A7E00005D0D9F800401443C9F8004004E0D9F876
:10A7F00000409443C9F800404C6814F4801F05D011
:10A80000DAF800401443CAF8004004E0DAF80040E7
:10A810009443CAF800404C6814F4001F05D0DBF8DC
:10A8200000402243CBF8002005E0DBF8004024EA9A
:10A830000202CBF800200CF1010C0A6832FA0CF28B
:10A840007FF40DAFBDE8F88F000401400000111047
:10A85000001002408068084201D0012070470020AB
:10A860007047002A01D001617047090401617047F7
:10A8700001488068704700000800002070B5044659
:10A88000002C21D021684CF6CC400860216845F2AC
:10A89000555008602168606848602168A068886039
:10A8A000FFF7E6FF05462068C06810F0030F12D0DE
:10A8B000FFF7DEFF401B272808D92068C06810F08A
:10A8C000030F03D0032070BD012070BD2068C06855
:10A8D00010F0030FECD121684AF6AA20086000208E
:10A8E00070BD00684AF6AA21016000207047000090
:10A8F0000248816802781144816070470800002096
:10A9000010B50748016841F010010160032000F014
:10A910008BF80A2000F006F800F026F8002010BDA1
:10A920000020024070B504460D4D4FF47A7128782E
:10A93000B1FBF0F00B490968B1FBF0F000F0E4FC6A
:10A9400008B1012070BD102C07D200222146501EF4
:10A9500000F036F86C60002070BD012070BD000072
:10A9600008000020140000200C4808B5816941F05F
:10A9700001018161816901F001010091C16941F02A
:10A980008051C161C06900F0805000900448416866
:10A9900021F0E06141F00071416008BD001002400B
:10A9A0000000014000280ADB00F01F01012202FA2A
:10A9B00001F14009800000F1E020C0F8001170476B
:10A9C00010B4184B1B68C3F30223C3F1070CBCF18E
:10A9D000040F01D94FF0040C1C1D072C01D20023D9
:10A9E00000E0DB1E012404FA0CFCACF1010C0CEAC3
:10A9F0000101994004FA03F35B1E1A401143002839
:10AA000006DB00F1E020090180F8001410BC70475B
:10AA100000F00F0000F1E020090180F8141D10BCC7
:10AA2000704700000CED00E000F00700064A1168D6
:10AA30004FF6FF03194041EA002040F0FD7040F05E
:10AA400080601060704700000CED00E010B586B02B
:10AA500001463CA0D0F808C043680268C068CDF841
:10AA600010C00393029205903AA000680190002064
:10AA7000394C042936D00EDC01293DD0022908D1F9
:10AA800000F0E0F96168C1F38131491C4900B0FB75
:10AA9000F1F006B010BD082929D01029F9D161685C
:10AAA000226812F0807FF4D002A8C1F38342805C58
:10AAB00011F4803F09D0616801AAC1F34041515CA3
:10AAC000264AB2FBF1F1484301E025494843616859
:10AAD00011F4800FDDD123494000A1FB001006B026
:10AAE000400810BD06B0BDE8104000F0BBB906B08C
:10AAF000BDE8104000F0B6B9216A01F44072B2F529
:10AB0000807F06D111F0020F03D006B04FF4004051
:10AB100010BDB2F5007F07D1626A12F0020F03D0B8
:10AB200049F6404006B010BD4FF4407232EA0101D0
:10AB3000F8D1216811F4003FF4D006B04FF2244060
:10AB400010BD000002030405060708090A0B0C0DDE
:10AB50000E0F1010010200000010024000127A00D7
:10AB600000093D00ABAAAAAA2DE9F8430446DFF884
:10AB70001C81207810F0010F6CD00027D8F81C0041
:10AB800010F0805F0BD1D8F81C0040F08050C8F85E
:10AB90001C00D8F81C0000F08050009001273C4DAC
:10ABA000286810F4807F16D1286840F480702860EF
:10ABB000FFF75EFE0646286810F4807F0BD1FFF792
:10ABC00057FE801B642802D90320BDE8F88328685B
:10ABD00010F4807FF3D0D8F8200000F4407048B320
:10ABE000A18801F44071814224D0D8F8200020F4DB
:10ABF0004070284901220A6000220A60C8F820003B
:10AC000010F0010F16D0FFF733FE0546D8F82000EC
:10AC100010F0020F0ED141F28836FFF729FE401BDB
:10AC2000B04202D90320BDE8F883D8F8200010F024
:10AC3000020FF2D0D8F82000616820F44070084379
:10AC4000C8F82000012F05D1D8F81C0020F0805052
:10AC5000C8F81C00207810F0020F07D0D8F80400C4
:10AC6000A16820F440400843C8F80400207810F0A0
:10AC7000100F07D0D8F80400616920F48000084361
:10AC8000C8F804000020BDE8F8830000001002406E
:10AC900000700040400442422DE9F04704460D4652
:10ACA000002C17D0DFF85C81D8F8000000F0070016
:10ACB000A84212D2D8F8000020F007002843C8F8B4
:10ACC0000000D8F8000000F00700A84205D00120DD
:10ACD000BDE8F0870120BDE8F08720684A4E10F0FB
:10ACE000020F14D010F0040F03D0706840F4E0603D
:10ACF0007060207810F0080F03D0706840F4605046
:10AD00007060706820F0F001A068084370602078DF
:10AD100010F0010F3AD06068012806D002280BD04D
:10AD2000316811F0020F27D00AE0316811F4003FBA
:10AD300006D10120BDE8F087316811F0007F18D0FE
:10AD4000716821F0030108437060FFF791FD074629
:10AD50007068616800F00C00B0EB810F16D041F212
:10AD60008839FFF785FDC01B484508D90320BDE899
:10AD7000F0870120BDE8F0870120BDE8F08770680A
:10AD8000616800F00C00B0EB810FEAD1D8F8000048
:10AD900000F00700A8420FD9D8F8000020F0070003
:10ADA0002843C8F80000D8F8000000F00700A842C7
:10ADB00002D00120BDE8F087207810F0040F05D004
:10ADC0007068E16820F4E06008437060207810F05B
:10ADD000080F06D07068216920F4605040EAC10075
:10ADE000706000F03FF87168084AC1F30311515CCC
:10ADF000C8400749086007480068FFF793FD002036
:10AE0000BDE8F0870020024000100240F4E3010892
:10AE1000140000200C00002001480068704700006A
:10AE20001400002000B5FFF7F7FF04494968044A01
:10AE3000C1F30221515CC84000BD00000010024077
:10AE400004E4010800B5FFF7E7FF04494968044A34
:10AE5000C1F3C221515CC84000BD00000010024097
:10AE600004E4010885B015A0836842680168C068E1
:10AE7000039302920191049014A000680090144B77
:10AE80005968144801F00C02042A11D0082A0FD185
:10AE900001A8C1F38342805C11F4803F0AD0596855
:10AEA000C1F340411DF801100A4A5043B0FBF1F0D4
:10AEB00005B07047084905B04843704702030405D0
:10AEC000060708090A0B0C0D0E0F101001020000F6
:10AED0000010024000127A0000093D002DE9F84FF1
:10AEE0000446002C0FD02078F84D10F0010F6CD0E4
:10AEF000686800F00C0004280CD0686800F00C00B2
:10AF0000082803D010E00120BDE8F88F686810F42D
:10AF1000803F09D0286810F4003F56D060680028B0
:10AF200053D10120BDE8F88F6068B0F5803F15D09F
:10AF3000C8B1B0F5A02F1FD0286820F48030286059
:10AF4000286820F480202860606858B3FFF790FCE0
:10AF50000646286810F4003F17D036E0286840F411
:10AF600080302860F0E7286820F480302860286866
:10AF700020F480202860E7E7286840F480202860DB
:10AF8000286840F480302860DEE7FFF771FC801B02
:10AF9000642802D90320BDE8F88F286810F4003F28
:10AFA000F3D012E0FFF764FC0646286810F4003F77
:10AFB0000BD0FFF75DFC801B642802D90320BDE89D
:10AFC000F88F286810F4003FF3D12078C04F10F0BC
:10AFD000020F4FF0010B4FF0000854D0686810F0DA
:10AFE0000C0F14D0686800F00C00082803D16868C2
:10AFF00010F4803F0BD0206978B3C7F800B0FFF79A
:10B0000037FC0646286810F0020F12D01DE02868B1
:10B0100010F0020F05D02069012802D00120BDE800
:10B02000F88F2868616920F0F80040EAC1002860C4
:10B0300029E0FFF71DFC801B022802D90320BDE890
:10B04000F88F286810F0020FF3D02868616920F0AB
:10B05000F80040EAC100286015E0FFE7C7F800806B
:10B06000FFF706FC0646286810F0020F0BD0FFF72A
:10B07000FFFB801B022802D90320BDE8F88F286857
:10B0800010F0020FF3D1207810F0080F30D0914863
:10B09000A169C1B1C0F800B0FFF7EAFB0646686AD3
:10B0A00010F0020F0BD1FFF7E3FB801B022802D93F
:10B0B0000320BDE8F88F686A10F0020FF3D001207A
:10B0C00001F088F914E0C0F80080FFF7D1FB0646D4
:10B0D000686A10F0020F0BD0FFF7CAFB801B022832
:10B0E00002D90320BDE8F88F686A10F0020FF3D18F
:10B0F000207810F0040F6FD00026E86910F0805F10
:10B1000008D1E86940F08050E861E86900F08050BB
:10B1100000900126DFF8C0A1DAF8000010F4807F6B
:10B120001BD1DAF8000040F48070CAF80000FFF785
:10B130009FFB8146DAF8000010F4807F0DD1FFF705
:10B1400097FBA0EB0900642802D90320BDE8F88F23
:10B15000DAF8000010F4807FF1D0E068012816D002
:10B16000D0B1052821D0286A20F001002862286A81
:10B1700020F004002862E06841F2883A68B3FFF7E3
:10B1800077FB8146286A10F0020F17D03AE0286A50
:10B1900040F001002862EEE7286A20F001002862F2
:10B1A000286A20F004002862E5E7286A40F00400DD
:10B1B0002862286A40F001002862DCE7FFF758FBAC
:10B1C000A0EB0900504502D90320BDE8F88F286A9A
:10B1D00010F0020FF2D015E01AE0FFE7FFF748FB8E
:10B1E0008146286A10F0020F0CD0FFF741FBA0EB5C
:10B1F0000900504502D90320BDE8F88F286A10F0F5
:10B20000020FF2D1012E03D1E86920F08050E861ED
:10B21000E069E8B3696801F00C0108295ED00228F2
:10B2200010D0C7F86080FFF723FB0446286810F0B1
:10B23000007F66D0FFF71CFB001B022841D90320CA
:10B24000BDE8F88FC7F86080FFF712FB0646286854
:10B2500010F0007F0BD0FFF70BFB801B022802D9F8
:10B260000320BDE8F88F286810F0007FF3D1206A32
:10B27000B0F5803F05D16868A16820F4003008432C
:10B280006860616A206A0843696821F4741100E00B
:10B2900037E008436860C7F860B0FFF7E9FA044692
:10B2A000286810F0007F2CD1FFF7E2FA001B02287B
:10B2B00002D90320BDE8F88F286810F0007FF3D092
:10B2C0001FE0286810F0007FB4D11AE0001002409F
:10B2D00000004242800442420070004001280DD02C
:10B2E0006868226A00F48031914204D1616A00F4F6
:10B2F0007010884205D00120BDE8F88F0120BDE81C
:10B30000F88F0020BDE8F88F401EB0F1807F01D398
:10B31000012070474FF0E0214861044AF02010708E
:10B3200000208861072008610020704723ED00E0BD
:10B3300070477047704730B490F83C20012A3AD0EB
:10B34000012480F83C40022280F83D200268D2F8B7
:10B3500004C093682CF0700C0D6845EA0C0CC2F820
:10B3600004C00268A2F1804CBCF5963C16D0A2F154
:10B37000804CBCF59A3C11D0B2F1804F0ED0A2F1B6
:10B38000804CBCF5806C09D0A2F1804CBCF5006CFF
:10B3900004D0A2F1804CBCF5406C04D123F08003B2
:10B3A00049681943916080F83D40002180F83C10C5
:10B3B00030BC0020704730BC0220704710B50446F6
:10B3C000002C03D094F83D0010B10EE0012010BD18
:10B3D000002084F83C00204601F0E4F9A06C08B994
:10B3E0001148A064A16C20468847022084F83D00E3
:10B3F000211D206801F0A2F8012084F8460084F89D
:10B400003E0084F83F0084F8400084F8410084F84E
:10B41000420084F8430084F8440084F8450084F82E
:10B420003D00002010BD00002DB4000870470168E9
:10B43000CA6822F00102CA6001680A6A41F2111367
:10B440001A4207D10A6A9B101A4203D10A6822F0F5
:10B4500001020A60012180F83D100020704770470A
:10B4600010B504460068104988421BD1207F01288E
:10B4700018D10021204600F0FBFA0C4A81B2508816
:10B48000081A80B232280BD92068036A9B07036A26
:10B4900002D523F0020301E043F00203036251806E
:10B4A0000520107010BD0000000800400C030020B3
:10B4B000704770B505460C4695F83C0001281CD035
:10B4C000012085F83C00D2B1042A29D0082A39D0BD
:10B4D000E36862682168286801F021FA2868C16978
:10B4E00021F44061C1612868C169A26841EA022172
:10B4F000C161002085F83C0070BD022070BDE3688A
:10B5000062682168286801F08FF92868816921F054
:10B510000C01816128688169A26811438161E8E7B3
:10B52000E36862682168286801F0BBF928688169CE
:10B5300021F44061816128688169A26841EA0221A1
:10B540008161D6E7E36862682168286801F0C9F97B
:10B550002868C16921F00C01C1612868C169A2682D
:10B560001143C161C5E7000010B50446002C03D0AB
:10B5700094F83D0010B10EE0012010BD002084F8C9
:10B580003C00204601F00EF9206D08B911482065F5
:10B59000216D20468847022084F83D00211D206847
:10B5A00000F0CCFF012084F8460084F83E0084F8C7
:10B5B0003F0084F8400084F8410084F8420084F899
:10B5C000430084F8440084F8450084F83D000020DE
:10B5D00010BD0000D9B5000800B585B0002100916C
:10B5E0000191029103910068114988421ED11148CE
:10B5F000C16941F00401C161C16901F00401049114
:10B60000816941F0080181618069694600F00800A4
:10B610000490402000900848FFF710F800221146DF
:10B620001E20FFF7CDF91E20FFF7BCF905B000BDC5
:10B630000008004000100240000C014070B50446B4
:10B64000206801694FF0000511F0020F1AD0C1689F
:10B6500011F0020F16D0E91E016101202077206849
:10B66000806910F0030F04D0D4F89010204688476A
:10B6700007E0D4F8981020468847D4F89C1020465C
:10B68000884725772068016911F0040F1BD0C16835
:10B6900011F0040F17D06FF0040101610220207730
:10B6A0002068806910F4407F04D0D4F890102046C0
:10B6B000884707E0D4F8981020468847D4F89C10B3
:10B6C0002046884725772068016911F0080F1BD0B4
:10B6D000C16811F0080F17D06FF008010161042054
:10B6E00020772068C06910F0030F04D0D4F89010C0
:10B6F0002046884707E0D4F8981020468847D4F8B9
:10B700009C102046884725772068016911F0100FAA
:10B710001BD0C16811F0100F17D06FF0100101613C
:10B72000082020772068C06910F4407F04D0D4F846
:10B7300090102046884707E0D4F8981020468847A4
:10B74000D4F89C102046884725772068016911F0BD
:10B75000010F0AD0C16811F0010F06D06FF001018E
:10B760000161D4F88010204688472068016911F0F3
:10B77000800F0AD0C16811F0800F06D06FF08001F1
:10B780000161D4F8B010204688472068016911F0A3
:10B79000400F0AD0C16811F0400F06D06FF0400191
:10B7A0000161D4F88810204688472068016911F0AB
:10B7B000200F0CD0C16811F0200F08D06FF02001CD
:10B7C00001612046D4F8A810BDE87040084770BD5C
:10B7D00000B585B0002100910191029103910068AC
:10B7E000104988421CD11048816941F010018161E3
:10B7F0008069694600F0100004904FF400700090DA
:10B8000002200190032003900848FEF717FF084824
:10B81000416821F4406141F0E06141F440614160E0
:10B8200005B000BD000400400010024000100140BF
:10B8300000000140704770B504460D4694F83C0086
:10B8400001280AD0012084F83C0042B1042A1AD011
:10B85000082A2DD00C2A53D13EE0022070BD294683
:10B86000206800F0C3FE2068816941F00801816111
:10B870002068816921F004018161206881692A6959
:10B88000114381613CE02946206800F0E7FE206812
:10B89000816941F4006181612068816921F48061DE
:10B8A0008161206881692A6941EA0221816127E07A
:10B8B0002946206800F00EFF2068C16941F00801A8
:10B8C000C1612068C16921F00401C1612068C169BA
:10B8D0002A691143C16113E02946206800F036FF50
:10B8E0002068C16941F40061C1612068C16921F427
:10B8F0008061C1612068C1692A6941EA0221C16190
:10B90000002084F83C0070BD10B50446002C03D024
:10B9100094F83D0010B10EE0012010BD002084F825
:10B920003C00204600F03EFF206E08B9114820661A
:10B93000216E20468847022084F83D00211D2068A2
:10B9400000F0FCFD012084F8460084F83E0084F8F5
:10B950003F0084F8400084F8410084F8420084F8F5
:10B96000430084F8440084F8450084F83D0000203A
:10B9700010BD000079B9000808B500680649884282
:10B9800008D10648C16941F00201C161C06900F0F7
:10B990000200009008BD00000004004000100240BA
:10B9A0007047704710B50446002909D004290AD011
:10B9B00008290BD094F8410001280AD0012010BDBD
:10B9C00094F83E00F8E794F83F00F5E794F840005B
:10B9D000F2E7022089B304293DD008293ED084F83B
:10B9E00041000122206800F0F1FD1E4920681E4A36
:10B9F000884201D0904203D1436C43F40043436436
:10BA0000206888421AD0904218D0B0F1804F15D0EB
:10BA1000A0F18041B1F5806110D0A0F18041B1F575
:10BA200000610BD0A0F18041B1F5406106D0016802
:10BA300041F001010160002010BD09E0816801F0C2
:10BA400007010629F7D0016841F001010160F2E722
:10BA500084F83E00C5E784F83F00C2E784F8400060
:10BA6000BFE70000002C01400034014070477047E0
:10BA700002460020002908D0042909D008290AD04C
:10BA80000C2901D11068006C70471068406B70473A
:10BA90001068806B70471068C06B70470023002AE5
:10BAA00018D090F83CC0BCF1010F15D04FF0010C3C
:10BAB00080F83CC090F83DC0BCF1010F0ED090F86A
:10BAC0003DC0BCF1000F60D00123002180F83C1084
:10BAD0001846704701207047022070471B2952D238
:10BAE000DFE801F00E10121416181A1C1E20222472
:10BAF00026282A2D303336393C3F4245484B4E00EC
:10BB00008264E2E7C264E0E70265DEE74265DCE703
:10BB10008265DAE7C265D8E70266D6E74266D4E70F
:10BB20008266D2E7C266D0E70267CEE74267CCE71B
:10BB30008267CAE7C267C8E7C0F88020C5E7C0F8D7
:10BB40008420C2E7C0F88820BFE7C0F88C20BCE79B
:10BB5000C0F89020B9E7C0F89420B6E7C0F8982064
:10BB6000B3E7C0F89C20B0E7C0F8A020ADE7C0F86C
:10BB7000A420AAE7C0F8A820A7E7C0F8AC20A4E753
:10BB8000C0F8B020A1E701239FE70E2924D2DFE807
:10BB900001F007090B0D0F11131517191B1D1F219C
:10BBA000826492E7C26490E702658EE742658CE7A3
:10BBB00082658AE7C26588E7026686E7426684E7AF
:10BBC000826682E7C26680E702677EE742677CE7BB
:10BBD00082677AE7C26778E7012376E770477047A4
:10BBE000704770B504462068C16821F4F071C160E7
:10BBF0002068416921F001014161206B012804D1D5
:10BC00002068C16821F01001C160206841694FF0CF
:10BC1000100611F0800F4FF000050FD0416921F0A0
:10BC200080014161606B48B14563606BFEF748F984
:10BC300020B1606BFEF722FA20281FD020684169EE
:10BC400011F0400F0FD0416921F040014161A06B1C
:10BC500048B14563A06BFEF733F920B1A06BFEF746
:10BC60000DFA20280DD0E584E5852564202084F890
:10BC70003E0084F83D002563002070BD266403204B
:10BC800070BD2664032070BD70B504462068C1688D
:10BC900021F49071C1602068416921F00101416186
:10BCA000206B012804D12068C16821F01001C16017
:10BCB000206841694FF0000511F0400F0FD0416935
:10BCC00021F040014161A06B48B14563A06BFEF7D4
:10BCD000F7F820B1A06BFEF7D1F9202806D0E58552
:10BCE000202084F83E002563002070BD10202064D1
:10BCF000032070BD70B5144A016891421DD1046CD7
:10BD0000124804F0D9FA200703D510480C3804F083
:10BD1000D3FA0E4D6007A5F10C0502D5281D04F0DD
:10BD2000CBFAA00703D50948001F04F0C5FA6C62DE
:10BD3000074900200870887070BD06488142FBD119
:10BD4000BDE8704004F074BA0044004008120020BE
:10BD50001403002000380140F8B50446226810683A
:10BD6000D168536900F00F0CBCF1000F0AD110F03C
:10BD7000200F07D011F0200F04D02046BDE8F84076
:10BD800000F08DBE0025BCF1000F6DD003F0010C5A
:10BD900001F490765CEA060666D010F0010F06D03A
:10BDA00011F4807F03D0226C42F00102226410F073
:10BDB000040F06D013F0010F03D0226C42F00202F0
:10BDC000226410F0020F06D013F0010F03D0226C92
:10BDD00042F00402226410F0080F08D001F02002A3
:10BDE00052EA0C0203D0226C42F008022264226C58
:10BDF000002A2FD010F0200F05D011F0200F02D014
:10BE0000204600F04CFE20684069C0F38010216C91
:10BE100011F0080F00D110B3204600F01BFE20687F
:10BE2000416911F0400F16D0416921F04001416194
:10BE3000A06B60B147494163A06BFEF765F800282D
:10BE400008D0A06B416B01B0BDE8F0400847204628
:10BE5000FFF750FFF8BD2046FFF74CFFF8BD204626
:10BE6000FFF748FF2564F8BD236B012B5BD110F071
:10BE7000100F58D011F0100F55D010685068009076
:10BE800050694FF0200310F0400F2ED0A16B0868CE
:10BE9000406880B20028E6D0B4F82CC08445E2D9CE
:10BEA000E0858869202818D0D06820F48070D060A0
:10BEB0002068416921F0010141612068416921F058
:10BEC0004001416184F83E3025632068C16821F05B
:10BED0001001C160A06BFDF7F3FFA08DE18D401A4A
:10BEE00081B22046FFF77CFEF8BDA08DE18D401A9F
:10BEF00081B2E08D0028F7D00029F5D0D06820F479
:10BF00009070D0602068426922F00102426184F89A
:10BF10003E3025632068C26822F01002C2602046CD
:10BF2000FFF75EFEF8BD10F0800F07D011F0800F14
:10BF300004D02046BDE8F84000F08FBE10F0400F5E
:10BF4000F0D011F0400FEDD02046BDE8F84000F0F1
:10BF500099BD000045CA000870B50446002C04D005
:10BF600094F83D00002510B106E0012070BD84F872
:10BF70003C50204600F022F8242084F83D00206840
:10BF8000C16821F40051C160204600F0E7FD20683F
:10BF9000016921F4904101612068416921F02A0181
:10BFA00041612068C16841F40051C16025642020CE
:10BFB00084F83D0084F83E00002070BD704790F882
:10BFC0003E30202B01D00220704759B152B190F879
:10BFD0003C30012B08D0012380F83C300023036360
:10BFE00000F020BE012070470220704710B50068A5
:10BFF000074988420AD10748007806F05BFFBDE890
:10C000001040012203490448FFF7D9BF10BD0000CA
:10C010000038014024030020D812002070B50546E6
:10C020000068134988421ED1124C207803281AD187
:10C03000A0782179884202D2A078401CA070A07814
:10C040002179884201D304200CE0A068A178012264
:10C0500001440948FFF7B3FF28B10749583104F0FC
:10C06000DDF9002020702846BDE87040FFF7BEBF14
:10C070000044004014030020B811002090F83D3027
:10C08000202B01D002207047A9B1A2B190F83C301A
:10C09000012B12D001628284C2840021016421221A
:10C0A00080F83D2080F83C100068C16841F08001B4
:10C0B000C1600020704701207047022070470000D7
:10C0C0000068094988420DD108498888401C80B21F
:10C0D00088804A88904205D2896801220144044838
:10C0E000FFF7CCBF70470000003801402403002058
:10C0F000D81200202DE9F041064600681A4988420E
:10C100002AD11A4CA078E178002588420ED2A06886
:10C11000A178012201441648FFF7B0FF10B114497D
:10C12000543116E0A078401CA07015E02078022859
:10C1300011D103202070A57020790D4F583780B1A0
:10C14000A06870B1A16801220948FFF738FF18B153
:10C15000394604F063F925703046BDE8F041FFF739
:10C16000AFBF39460120F4E700440040140300202B
:10C17000B8110020FEE700000449097B19B1002135
:10C18000018001207047002070470000BC020020A1
:10C190003EB50021234800910191214A029102609D
:10C1A0009215826001240473017504254FF4602206
:10C1B0000561C2614160FDF7F9FC08B1FDF7F5FAD0
:10C1C0000820CDE900040624694616480294FDF7CC
:10C1D00051FC08B1FDF7E9FA092000900220CDE9F1
:10C1E000010469460F48FDF745FC08B1FDF7DDFA8B
:10C1F00003200095CDE9010469460A48FDF73AFCA1
:10C2000008B1FDF7D2FACDE9004569460548029428
:10C21000FDF730FC002801D0FDF7C7FA3EBD000055
:10C22000002401401C130020094808B5416941F071
:10C23000010141614069002200F0010000900A21E3
:10C240000B20FEF7BDFBBDE808400B20FEF7AABBA4
:10C250000010024070B586B000241C480094019480
:10C2600002940394816941F004018161816901F0C4
:10C2700004010491816941F020018161816901F02B
:10C2800020010491816941F008018161816901F017
:10C2900008010491816941F01001816180690122E6
:10C2A00000F010000A4ED503049029463046FEF7F0
:10C2B000D8FA01200095CDE90104022003906946D7
:10C2C0003046FEF7BBF906B070BD0000001002401A
:10C2D00000080140FEE77047F8B50546694603F0DF
:10C2E000E7FA234A002350B3022832D0032835D07E
:10C2F000BDF800001F4E00EB800102EB410156F833
:10C30000207006EB80007D1B406805EB8505381A20
:10C310006D00B5FBF0F0084401B22046164C61F305
:10C320001F40B4F90450A94204DA914202DD491CCD
:10C3300061F31F400114A18063F30700F8BDBDF84D
:10C34000000000EB800002EB4001204661F31F403B
:10C35000F2E7204662F31F40012105E040F2E2418E
:10C36000204661F31F40022161F30700F8BD000081
:10C3700070FEFFFF20E701086003002010B50D4CA0
:10C380004FF49670A0606078002812D00020607092
:10C390000948008880B2A0F57061FF3901D1401EC4
:10C3A00080B20649B1FBF0F0A0F59670FFF794FF5C
:10C3B000E06010BD60030020A0130020D4BE120076
:10C3C00002484078002800D00120704784030020F4
:10C3D0007047704781B007494FF4FA520968B1FBC2
:10C3E000F2F14843009000BF0098411E0091FAD23C
:10C3F00001B0704714000020014900200870704708
:10C400008403002070470000074A1378984207D140
:10C410005378052B02D25B1C53707047087070472D
:10C4200010700020507070471003002070B5194C38
:10C43000A079A0F5FA60C0B201F051FC04F10A0540
:10C44000A871607901F04BFC2871207901F047FC5C
:10C45000E870E08861792279FDF751FA401CC0B29A
:10C46000E07001F03CFC6871A07801F038FCA87025
:10C47000607801F034FC6870207801F030FC28709E
:10C480000722294604A006F03AFB2846BDE8704082
:10C49000FDF772B9080F00207365742074696D652B
:10C4A0000000000010B5FEF723FABDE810400BF0C5
:10C4B000C5BE30B595B028216846FBF7CDFE1421E6
:10C4C00010A8FBF7C9FE18210AA8FBF7C5FE012139
:10C4D0000804CDE900100024029402250491CDE95E
:10C4E00007504FF4E01009906846FEF7F7FC0F2064
:10C4F000CDE910056802CDE91240022110A814947C
:10C50000FEF7CAFB10200F940A900AA8FEF72CFB36
:10C51000A8030C900A950AA8FEF726FB15B030BDBB
:10C52000704700000148FFF789B800009C0F002009
:10C530000148FFF783B8000004110020F0B402683E
:10C54000DFF874C01D4C1E4D1E4E1F4B60450AD0B7
:10C55000984208D0B0F1804F05D0A04203D0A84245
:10C5600001D0B04203D122F070024F683A436045D7
:10C570000AD0984208D0B0F1804F05D0A04203D035
:10C58000A84201D0B04203D122F44072CC682243C9
:10C590004C6922F08002224302608A68C2620A6803
:10C5A0008262604501D0984201D10969016301218D
:10C5B0004161F0BC70470000002C014000040040C5
:10C5C00000080040000C00400034014001F01F0151
:10C5D00001238B40D0F820C02CEA03030362036AD6
:10C5E00002FA01F1194301627047000070B4026A57
:10C5F00022F001020262036A4268D0F818C02CF0EF
:10C60000700C2CF0030C0C6844EA0C0C23F00203B1
:10C610008C6823430F4C104DA04201D0A84205D195
:10C6200023F00803CE68334323F00403A04201D073
:10C63000A84207D122F4807222F400724C6922438E
:10C640008C6922434260C0F818C0496841630362A4
:10C6500070BC7047002C01400034014070B4026A85
:10C6600022F010020262036A4268D0F818C02CF46B
:10C67000E04C2CF4407C0C684CEA042C23F02003A2
:10C680008C6843EA0413114C114DA04201D0A8421A
:10C6900006D123F08003CE6843EA061323F040035B
:10C6A000A04201D0A84209D122F4806222F40062A3
:10C6B0004C6942EA84028C6942EA84024260C0F812
:10C6C00018C049688163036270BC7047002C014048
:10C6D0000034014070B4026A22F480720262036A7C
:10C6E0004268D0F81CC02CF0700C2CF0030C0C68C5
:10C6F00044EA0C0C23F400738C6843EA0423114CC5
:10C70000114DA04201D0A84206D123F40063CE68A7
:10C7100043EA062323F48063A04201D0A84209D152
:10C7200022F4805222F400524C6942EA04128C69CD
:10C7300042EA04124260C0F81CC04968C163036247
:10C7400070BC7047002C01400034014010B4026AF4
:10C7500022F480520262D0F820C04268C36923F4F8
:10C76000E04323F440730C6843EA04232CF4005C98
:10C770008C684CEA043CA0F18044B4F5963404D0B3
:10C78000A0F18044B4F59A3404D122F480424C697B
:10C7900042EA84124260C36149680164C0F820C063
:10C7A00010BC70471349C0F880101349C0F88410BA
:10C7B0001249C0F888101249C0F88C101149C0F80D
:10C7C00090101149C0F894101049C0F89810104901
:10C7D000C0F89C100F49C0F8A0100F49C0F8A41071
:10C7E0000E49C0F8A8100E49C0F8AC100D49C0F8A9
:10C7F000B01070476DBA00086FBA0008DDBB0008C2
:10C80000DFBB000861B40008B1B4000835B8000807
:10C81000A1B90008A3B900085FB4000833B3000849
:10C8200035B3000831B3000830B4D0F820C02CF084
:10C83000010CC0F820C0D0F818C0046AA0F18045EF
:10C84000B5F5963528D0A0F18045B5F59A3523D0B9
:10C85000B0F1804F20D0A0F18045B5F580651BD0A8
:10C86000A0F18045B5F5006516D0A0F18045B5F57D
:10C87000406511D04CF0010222F0F0024FF0F00CB4
:10C880000CEA03131A4324F00A0301F00A011943C6
:10C890008261016230BC70472CF0030C4CEA02024A
:10C8A000EAE710B4D0F820C02CF0100CC0F820C07B
:10C8B0008469D0F820C024F4407444EA022222F4AF
:10C8C00070424FF4704404EA03331A432CF0A0037F
:10C8D0004FF0A00C0CEA011119438261016210BCF7
:10C8E000704710B4D0F820C02CF4807CC0F820C071
:10C8F000C469D0F820C024F00304224322F0F002DF
:10C90000F02404EA03131A432CF400734FF4007C60
:10C910000CEA01211943C261016210BC704710B4D6
:10C92000D0F820C02CF4805CC0F820C0C469D0F8D6
:10C9300020C024F4407444EA022222F470424FF4EE
:10C94000704404EA03331A432CF400534FF4005CA0
:10C950000CEA01311943C261016210BC704700004A
:10C9600000B585B0002001900A48816941F00801B6
:10C9700081618069694600F0080004904FF400501E
:10C98000009002200290032003900348FDF756FE1A
:10C9900005B000BD00100240000C01400C4800B57D
:10C9A000816985B041F0080181618069694600F0C4
:10C9B000080004904FF40050009001200190029074
:10C9C000032003900348FDF739FE05B000BD0000C9
:10C9D00000100240000C014000B585B0002001901D
:10C9E00003900A48816941F00801816180696946C4
:10C9F00000F0080004904FF40050009001200290D5
:10CA00000348FDF71BFE05B000BD0000001002400A
:10CA1000000C01400148806870470000EC030020D2
:10CA2000421807498968824205D3914201D2814266
:10CA300003D2012070479142F9D8002070470000CE
:10CA4000EC03002010B5406A0021C185C184FFF7C6
:10CA500051F910BD0168CA6822F49072CA60016879
:10CA60004A6922F001024A61016B012904D101687F
:10CA7000CA6822F01002CA60202180F83E1000210E
:10CA80000163704710B50168CA6822F04002CA60AD
:10CA9000202180F83D10FFF72DFB002010BD08B5C8
:10CAA00090F83E10222901D0022008BD8268B2F51C
:10CAB000805F01D1016929B1816AB2F5805F1DD023
:10CAC00052B10BE0816A02685268C2F308020A8020
:10CAD000816A891C816209E002697AB10268526840
:10CAE00002F07F020A70816A491C8162C18D491E71
:10CAF0000904090CC18505D0002008BD02685268F0
:10CB00000A70F0E70168CA6822F02002CA60016872
:10CB1000CA6822F48072CA6001684A6922F0010280
:10CB20004A61202180F83E10016B012903D0FFF7F4
:10CB300075FA002008BD002101630168CA6822F06F
:10CB40001002CA6001680A6812F0100F02D00A6869
:10CB500049680091818DFFF743F8EAE770B5044614
:10CB600020680169E26821F44051114301612169A3
:10CB7000A0680843616901432068C26822F4037217
:10CB800022F4A0521143C16020684169A26921F4D6
:10CB90004071114341612068A0F18041B1F59C31A1
:10CBA0003AD0FEF73FF900EBC00101EB00106168DD
:10CBB0001B4A8900B0FBF1F3A2FB0353B0FBF1FC6D
:10CBC0005B096FF018056B430CEB83034FF0320CDD
:10CBD0000CEB0313A2FB03535B0903F0F005B0FB5E
:10CBE000F1F3A2FB03635B0905EB0313B0FBF1F563
:10CBF000B0FBF1F0A2FB001040096FF018014843B0
:10CC000005EB80000CEB0010A2FB00102168C0F3C4
:10CC100043101844886070BDFEF714F9C3E70000A4
:10CC20001F85EB5181628285C28500210164222229
:10CC300080F83E2080F83C100168CA6842F4807297
:10CC4000CA6001684A6942F001024A610068C1682D
:10CC500041F02001C1600020704790F83D1021296B
:10CC600001D0022070478168B1F5805F01D1016970
:10CC700061B1016A4A1C0262026809785160C18C84
:10CC8000491E0904090CC1840AD013E0016A026834
:10CC90000988C1F308015160016A891C0162EEE74D
:10CCA0000168CA6822F08002CA600068C16841F069
:10CCB0004001C160002070470148FFF74DB80000F7
:10CCC000D81200200148FFF747B80000B811002033
:10CCD0007047FEE7704700000B4910B5C01D4A6B56
:10CCE00020F00700131808460C6BC06AA34208D94D
:10CCF000064A904203D1C87808B90120C8700020C4
:10CD000010BD10444B6310BDA4040020B86800207F
:10CD10002DE9FE4F0BF048FCF74C082725266078DC
:10CD200000254FF00E094FF00B0A4FF0020B4FF0A9
:10CD3000010825282BD2DFE800F02A13163E4F66A3
:10CD40009DDEFEFDFCFBFAF9F8F72A2A2A2A2A2A98
:10CD50002A2A2A2A2A2A2A2A2A2AF62A2A2AF500C6
:10CD600006F064F822E000F0A1FF01280FD1E249AB
:10CD7000258300221831E14805F056FF002806D02F
:10CD8000DFA1DE48FBF773FA18B184F80180BDE833
:10CD9000FE8FDFA1D948FBF76AFA20B1FFF73AFE10
:10CDA000E0660320D2E22078022802D284F801B0A3
:10CDB000EDE72570EBE74FF4C871E06EFFF730FE4A
:10CDC0000028E4D00523D3A20F21D3A0CDF8008002
:10CDD00006F090F90420B9E206F07CF90128D6D1DA
:10CDE00006F0E4F9FFF708FBCF49D0A081F80080F6
:10CDF00004F0A6FB1423C7A20E21CCA0009506F0D8
:10CE000079F90520A2E206F065F90128BFD1BB48F7
:10CE1000FBF755FA0104090C02D0B84804F082FB74
:10CE200004F0ACFB012804D06670BDE8FE4F06F0AC
:10CE3000C3B904F015FF01287ED1218CBF480095AD
:10CE4000CDE901010123BEA2190200F5307000F006
:10CE500061FFC44804F074FB04F07CFAC148FBF79E
:10CE60002EFA81B2BF4804F07BF8FFF7D3FDA06231
:10CE700006206BE20BF098FBBB49A06AFFF7D0FDE0
:10CE800010B10021B9A027E39B49002218319B482B
:10CE900005F0CAFE00288BD0218B984804F042FB95
:10CEA000B6A19648FBF7E3F9B8B104F053FAB7A579
:10CEB000284604F045FB04F04DFA2846FBF7FFF93D
:10CEC00081B2284604F04CF80546FFF7A3FDA062A6
:10CED0000DB167705BE7072038E2B0A18748FBF728
:10CEE000C6F928B9B0A18548FBF7C1F9002873D06D
:10CEF0000021AFA0F0E20BF057FB40F6B831A06A7A
:10CF0000FFF78EFD10BB7C49002218317B4805F0ED
:10CF10008BFE0028DED0218B784804F003FB7DA136
:10CF200076480AE01EE302E3DBE2A3E26EE20FE2F0
:10CF3000BEE087E044E00CE034E3FBF798F928B961
:10CF400099A16E48FBF793F90028D0D004F002FABB
:10CF5000BFE7218C7948CDE9000100F15003974AE1
:10CF60004FF480717F4800F0D5FE002801DDFF28D6
:10CF700002DD002192A0AFE2002396A22021994871
:10CF800000F0C8FE002801DD202802DB002196A069
:10CF9000A2E2944804F0D4FA04F0DCF904F032FD83
:10CFA0009048FBF78CF981B28E4803F0D9FF10B19D
:10CFB000002192A090E2FFF72DFDA0620920C5E1BB
:10CFC00041F2883004F0AAFD01280CD0022833D0A9
:10CFD00003287FF4EDAE00E08DE08EA004F02EFD7E
:10CFE00000218CA078E25F48FBF769F985B2681CE4
:10CFF00086B2B6F5817F02D300218CA06CE259493C
:10D000002A4601F59070FBF700F976491A20203185
:10D01000485574483146203004F09EFA7148314634
:10D02000203003F09DFF10B1002187A054E2FFF7EC
:10D03000F1FCA0620A2089E18BA004F0FFFC002132
:10D0400089A049E20BF0B0FA44F62061A06AFFF72C
:10D05000E7FC10B1002188A03EE2274900221831E8
:10D06000264805F0E1FD00283FF4A2AE218B2348BD
:10D0700004F058FA84A12148FBF7F9F850B104F004
:10D08000B9FE04F04FFCFFF7C5FCE065206604F034
:10D0900061F916E27EA11948FBF7E9F828B942A127
:10D0A0001648FBF7E4F8002825D000217BA013E206
:10D0B0000BF07AFA207A48B9E07A082806D0607C2A
:10D0C000E179084305D0012177A005E200217AA08B
:10D0D00002E27E49E06DFFF7A3FC10B100217CA0C5
:10D0E000FAE14EF66021206EFFF79AFC10B10021A4
:10D0F0007CA0F1E10AE120E200040020B515002047
:10D10000504F574552454420444F574E00000000B1
:10D11000524459004F4B000041542B514D54434C45
:10D120004F53453D300D0A008503002041542B51DB
:10D1300049434C4F53453D300D0A000088470020BD
:10D1400041542B51494F50454E3D25752C25752C8A
:10D1500022544350222C222573222C25752C302C4E
:10D16000300D0A00484A0020F04902006F70656ED9
:10D170005F74696D656F7574000000002B51494F35
:10D1800050454E3A20302C300000000041542B51C5
:10D190004953454E443D3F0D0A0000002B51494F75
:10D1A00050454E3A000000004552524F52000000D8
:10D1B0006F70656E5F6661696C656400D4EA010832
:10D1C000726571756573745F746F6F5F6C6F6E6796
:10D1D0000000000041542B514953454E443D2575F4
:10D1E0000D0A0000484B0020716973656E645F632F
:10D1F0006D645F746F6F5F6C6F6E670071697365EC
:10D200006E645F756172745F73656E645F66616999
:10D210006C000000716973656E645F70726F6D7091
:10D22000745F74696D656F75740000007265717567
:10D230006573745F7061796C6F61645F746F6F5F49
:10D240006C6F6E6700000000716973656E645F70DB
:10D2500061796C6F61645F756172745F73656E6430
:10D260005F6661696C000000716973656E645F726E
:10D27000656A65637465640073656E645F74696D87
:10D28000656F75740000000053454E44204F4B00FD
:10D2900053454E44204641494C00000073656E647E
:10D2A0005F6661696C6564007261775F626F647963
:10D2B0005F646F6E650000007261775F7374726502
:10D2C000616D5F6572726F720000000010090500E9
:10D2D0007261775F746F74616C5F74696D656F758F
:10D2E000740000007261775F69646C655F74696DDA
:10D2F000656F757400000000218BB24804F012F9CC
:10D30000B1A1B048FAF7B3FF04F024F80022B34902
:10D31000AC4805F089FC0028EED14FF400704110B4
:10D3200000900023AEA2B24800F0F4FCB04804F034
:10D3300007F904F00FF8AE48FAF7C1FF81B2AC4824
:10D3400003F00EFEFFF766FBA0620C2060701EE586
:10D350000BF02AF941F28831A06AFFF761FB10B1A6
:10D360000021A4A0B8E000229C49964805F05CFC8E
:10D370000028ECD0218B934804F0D4F891486E46F5
:10D38000A0A1FAF774FF90B3801D00E0401C017863
:10D390002029FBD000210A466FF02F0708E000BFCC
:10D3A00001EB8101521C07EB41011944D2B2401C30
:10D3B0000378A3F1300CBCF1090FF1D9BAB140F2F6
:10D3C000DC50814214D83180BDF80000E08440B1C7
:10D3D000A575FFF71FFB20660D20607003F0BAFFF4
:10D3E000D5E4A07D401CA07584F80190F6E7FFE726
:10D3F00075A17448FAF73BFFAFF254217148FAF770
:10D4000036FF0028EAD0002180A02DE00BF0CCF8F8
:10D41000002513E09DF8000004F02AF9012804D04B
:10D4200000217DA004F05EFB10E0E08C401E6D1C2E
:10D43000E084ADB2A80601D10BF0B6F8E08C28B1BB
:10D440006946794801F00EFF0028E3D160780D2885
:10D45000C6D1E08C58B141F28831A06AFFF7E0FAFA
:10D460000028BDD0002171A004F03CFB8FE484F8BB
:10D4700001908CE40BF098F841F28831A06AFFF734
:10D48000CFFA10B100216EA026E0002253494D488A
:10D4900005F0CAFB0028A3D0218B4A4804F042F8CB
:10D4A000AFF290314748FAF7E2FE68B103F052FF5D
:10D4B00004F07EFC012804D084F80880002166A0D6
:10D4C0000AE084F801A062E4AFF224313D48FAF7A3
:10D4D000CEFE90B3002166A003B0BDE8F04F04F08B
:10D4E00001BB0BF061F842F21071A06AFFF798FAE5
:10D4F0002025C0B900223949324805F095FB0028A3
:10D50000B4D0218B2F4804F00DF8AFF2F8312D483C
:10D51000FAF7ADFE28B9AFF270312A48FAF7A7FE44
:10D5200058B103F017FFA07CE0B365702FE404F05E
:10D5300033FD012802D053A010E03EE0E28B216BC6
:10D54000606C0EF04FFC012807D109F051FF012853
:10D5500003D184F8029002F07FFF50A0BDE8FE4F97
:10D5600004F062BB0BF020F842F21071A06AFFF7E2
:10D5700057FAB8B900221949124805F055FB00289E
:10D58000A1D0218B0F4803F0CDFFAFF278410D48B9
:10D59000FAF76DFE30B9AFF2F0310A48FAF767FEDC
:10D5A00000B900E004E044A10648FAF760FE20B1AB
:10D5B0006670BDE8FE4F04F02DBBBDE8FE4F03F0E2
:10D5C000C9BE0000B51500202B51495552433A20E1
:10D5D00022636C6F73656422000000001804002051
:10D5E00041542B514952443D25752C25750D0A0097
:10D5F000484A0020716972645F74696D656F757463
:10D60000000000002B514952443A000071697264D5
:10D610005F6572726F7200007261775F7061727322
:10D62000655F6572726F72007C3700207169726489
:10D630005F646174615F74696D656F75740000008B
:10D64000716972645F747261696C65725F74696D2F
:10D65000656F75740000000073747265616D5F70B2
:10D66000726F6772616D5F6572726F7200000000A9
:10D67000716972645F747261696C65725F65727200
:10D680006F72000073747265616D5F7665726966B2
:10D69000795F6661696C6564000000007065727393
:10D6A000697374656E745F61637469766174655FD4
:10D6B0006661696C656400002B434D4520455252FC
:10D6C0004F523A0010B5FFF7A5F90249C86603208A
:10D6D000487010BD000400202DE9F84FEF4CA078F1
:10D6E000002850D103F012FD2079062701260025DD
:10D6F0004FF0020A40F6B83840F2DC5B4FF0030905
:10D70000142840D2DFE800F03F0A0D4C5E7188C952
:10D71000DBF7EFEE3F3FEDECEBEAE9E805F086FBE7
:10D720002FE000F0C3FA01282DD1DC49E582002268
:10D730001631DB4805F078FA40B3E18AD84805F0A5
:10D74000DDF9D8A1D648FAF792FD20B12671BDE8DF
:10D75000F84F00F0B5BAD7A1D148FAF788FD48B123
:10D760003223D5A20B21D5A0009505F0C3FC84F887
:10D7700004900BE0E18ACA4805F0C0F9E07802287D
:10D7800003D284F804A0BDE8F88FE5703223CAA262
:10D790000B21CAA0009505F0ADFC84F80490F2E7D7
:10D7A00005F098FC0128EED1C7A003F027FB012863
:10D7B000E9D03223C0A20B21C5A0009505F09AFC48
:10D7C000042010E005F086FC0128DCD1C3A003F0A2
:10D7D00015FB0128D7D01423C2A20A21C5A00095A9
:10D7E00005F088FC05202071CDE705F073FC0128C9
:10D7F000C9D1C3A003F002FB0128C4D003F0CEFCC2
:10D80000A572E572C4F824801423ABA21721BEA030
:10D81000009505F06FFC3EE0E07A01281DD005F090
:10D8200059FC0128AFD1BEA003F0E8FA0128AAD024
:10D83000607A48B1BCA1BE48FAF748FD00B3BDA16B
:10D84000BB48FAF743FDD8B1A07A401CC0B2A07221
:10D85000642874D2C4F82480B8E0D4E90910FFF732
:10D86000DFF801288FD1E572C4F8248003F096FC1C
:10D87000142391A21721A4A0009505F03BFC82E798
:10D88000A572E57214238CA21D21ACA0009605F0B0
:10D8900031FC0720A7E7277175E705F01BFC01287D
:10D8A000A2D1AEA003F0AAFA01289DD0192382A22A
:10D8B0001946ADA0009605F01DFC082093E705F081
:10D8C00009FC012890D1AFA003F098FA01288BD071
:10D8D000192379A21D2108E0CBE0AAE097E07AE0C5
:10D8E00068E046E02CE018E005E0A8A0009605F00E
:10D8F00001FC092077E705F0EDFB0128BFD1ABA0C3
:10D9000003F07CFA0128BAD019236BA21A21AAA02D
:10D91000009605F0EFFB0A2065E705F0DBFB012828
:10D92000ADD1ACA003F06AFA0128A8D0322362A2DC
:10D930000921AAA0009605F0DDFB0E2053E78AE03E
:10D9400005F0C8FB01289AD10CF0CCFC7848602186
:10D9500010300CF051FB00287DDD60287BDAC1B26D
:10D9600073485B46A0A21030009605F0C3FB12205E
:10D9700039E705F0AFFB01288ED19FA003F03EFAF6
:10D98000012889D00DF036FF002864D06848602156
:10D9900070300CF0FFFA00285DDD60285BDAC1B260
:10D9A000634840F6CA0396A27030009605F0A2FBC9
:10D9B000102018E705F08EFB01289FD1E5736573F1
:10D9C00003F0ECFBA57247F230506062FFF722F8DB
:10D9D000A062E6725FE705F07DFB01288ED18CA086
:10D9E00003F00CFA01288ED051488021D0300CF081
:10D9F000A9FA00282FDD80282DDAC1B24C485B46F9
:10DA000085A2D030009605F075FB1120EBE605F0FD
:10DA100061FB012884D184A003F0F0F9012884D0AF
:10DA2000192383A20A2184A0009605F063FB0B2032
:10DA3000D9E605F04FFB012885D182A003F0DEF97D
:10DA400001289ED01648602160380CF0F7FA0028B3
:10DA500001DD602803DBBDE8F84F00F011B9C1B269
:10DA60000F485B467AA26038009605F043FB13200E
:10DA7000B9E605F02FFB01289FD179A003F0BEF98C
:10DA80000128B0D065731420207184F80090BDE89F
:10DA9000F84F00221146072003F03ABC840300200F
:10DAA000B5150020504F574552454420444F574E1E
:10DAB00000000000524459004F4B000041542B43DA
:10DAC00046554E3D300D0A004346554E300000008D
:10DAD00041542B4346554E3D310D0A004346554EA9
