:020000040800F2
:10800000F089002045810008F3C5000891C40008EC
:10801000F1C50008FD81000883D0000800000000C1
:108020000000000000000000000000005DC7000824
:10803000FF8100080000000029C70008FDC70008F4
:108040005F8100085F8100085F8100085F81000890
:108050005F8100085F8100085F8100085F81000880
:108060005F8100085F8100085F8100086598000853
:10807000719800085F8100085F8100085F81000837
:108080005F8100085F8100085F8100085F81000850
:1080900081D000085F8100085F8100085F810008CF
:1080A0005F8100085F8100085F8100085F81000830
:1080B00099C800085F810008A5C800085F81000812
:1080C0005F8100085F8100085F8100085F81000810
:1080D0005F81000869D0000875D000085F81000842
:1080E0005F8100085F8100085F8100085F810008F0
:1080F0005F8100085F8100085F8100085F810008E0
:108100005F8100085F8100085F8100085F810008CF
:108110005F8100085F8100085F8100085F810008BF
:108120005F8100085F8100085F8100085F810008AF
:10813000DFF80CD001F0ECF8004800470D190108F9
:10814000F08900200648804706480047FEE7FEE722
:10815000FEE7FEE7FEE7FEE7FEE7FEE7FEE7FEE7F7
:1081600097C8000831810008202A04DB203A21FA50
:1081700002F00021704721FA02F3D040C2F1200240
:108180009140084319467047A0F14101192900D8D0
:108190002030704710B5431A934209D283188818CB
:1081A00003E010F8011D03F8011D521EF9D210BDA5
:1081B00040EA01039B0703D009E008C9121F08C069
:1081C000042AFAD203E011F8013B00F8013B521EE9
:1081D000F9D210BDD2B201E000F8012B491EFBD24A
:1081E00070470022F6E710B513460A4604461946C2
:1081F000FFF7F0FF204610BD00207047FEE77047F4
:1082000078563412EFCDAB89030030B505462A46C7
:108210000B4612F8010B13F8014B08B1A042F8D03D
:108220001CB1002802D06D1CF1E7284630BD10B506
:10823000044604E00B7800F8013B03B1491C521ED0
:10824000F8D2204610BDCAB2401E10F8011F8A4263
:1082500002D00029F9D100207047421C10F8011B00
:108260000029FBD1801A704710B5002200E0521C93
:10827000835C8C5CA34201D1002BF8D1D8B2E1B26F
:10828000401A10BD30B504460020034600E05B1CD8
:10829000934203D2E05CCD5C401BF8D030BD034676
:1082A00011F8012B00F8012B002AF9D1184670476C
:1082B00030B505460020034600E05B1C934205D222
:1082C000EC5CC85C201A01D1002CF6D130BD02460E
:1082D000C9B200E0401C0378002BFBD102E0037818
:1082E0008B4203D0401E9042F9D20020704700001C
:1082F0000FB400B58DB010A909900B9000914FF00C
:10830000FF300A9000200C90054806900548079021
:108310006A4609A80F9900F09FFD0DB05DF814FBA7
:10832000758E0008938E00082DE9FF5F1D464FF003
:10833000FF3BD5E9014691465F464FF00008A96929
:108340007F1C01988847296A824688470028F6D111
:10835000BAF1FF3F0CD024F4C064002E19DD600692
:1083600014D5BAF12B0F09D0BAF12D0F0ED103E0BD
:10837000584604B0BDE8F09F44F48064A9697F1CAE
:1083800001988847761E8246002E02DDBAF1300F32
:1083900003D0B9F1000F26D032E0A969761E44F46B
:1083A00000747F1C019888478246002E05DDBAF1D3
:1083B000780F06D0BAF1580F03D0B9F1000F10D0E2
:1083C0001EE0B9F1000F02D0B9F1100F18D1A96960
:1083D000761E24F400747F1C019888478246102082
:1083E00002E0082000E00A20814609E008FB0908B5
:1083F000A969761E44F400747F1C01988847824660
:10840000002E05DD4946504600F012FD0028EDDA49
:10841000E96901988847A00502D46FF00100A8E738
:10842000E00725D1600613D5600502D5C8F100002C
:1084300000E0404629680A1D2A600968220501D526
:10844000087015E0220701D5088011E008600FE0F0
:108450002868011D29600068210502D580F8008088
:1084600006E0210702D5A0F8008001E0C0F80080F6
:1084700038467EE72DE9FF4F087883B09946FF28FC
:1084800005D0491C2D2804D00024002008E000203D
:108490000BE00124F9E700EB800003EB4000491CEE
:1084A0000B78FF2BF7D104B14042002302931478DC
:1084B00019461D462D2C01D02B2C04D1521C2D2CDD
:1084C00013D000240294AA461478FF2C0FD00A255A
:1084D000A3FB057801FB05814FF0000C03FB0C1199
:1084E000521CE3194AEB0101EEE70124EAE781445B
:1084F00053EA010002D019F5C87F06DA039800217B
:10850000C0E9001107B0BDE8F08F0025AE4E2F4640
:10851000DFF8B882184600F094FECDE90001B9F109
:10852000000002DAC9F1000400E004460023A74A73
:108530001AEB030B42EB045A12E0E00707D02A467D
:1085400033463846414600F0C0FA074688462A4678
:1085500033461046194600F0B8FA05460E46641038
:10856000002CEAD1DDE90001B9F1000F5A4653466B
:1085700006DA00F0F7FD3A46434600F0F3FD05E069
:1085800000F0A3FA3A46434600F09FFA029A0AB175
:1085900081F00041039AC2E90001B3E72DE9FF4FE2
:1085A0001F468DB0D7E901464FF0FF382E204546D3
:1085B0004FF000090B90B9696D1C0E988847396A15
:1085C000824688470028F6D1BAF1FF3F0AD024F44A
:1085D000D064002E11DDBAF12B0F08D0BAF12D0FA7
:1085E0000BD102E0404611B08DE744F48064B969D4
:1085F0006D1C0E9888478246761E6946600501D537
:108600002D2000E02B208DF8000001F1010B0DF171
:10861000200809E0B9696D1C0E98884782460F98BA
:1086200044F40074761E0560002E02DDBAF1300FAE
:10863000F0D00B998A453ED144F0800406E00F99B2
:10864000681CA9F1010944F400740860B9696D1C43
:10865000761E0E98884782463028F0D02BE00B9982
:108660008A4505D1200603D444F08004761E18E024
:10867000504606F0B3FB08B30DF11301761E44F427
:1086800000748B4508D2AAF130000BF8010B2006CC
:1086900007D5A9F1010003E0200602D409F1010089
:1086A0008146A00502D50F99681C0860B9696D1C48
:1086B0000E9888478246002ED1DC53E0002E51DD13
:1086C000BAF1650F02D0BAF1450F4BD1A00549D5DB
:1086D000B9696D1C24F44074761E0E988847824652
:1086E000002E0CDD2B2804D0BAF12D0F07D144F455
:1086F0008074B9696D1C0E9888478246761EE00525
:1087000001D52D2100E02B2108F8011BCDF82C808C
:1087100021E00DF12901761E44F4007488450CD245
:10872000AAF1300010F0FF0088F8000002D10B9988
:10873000884509D908F1010806E0E00501D524487B
:1087400001E042F20F708146B9696D1C0E988847AE
:1087500082460F980560002E04DD504606F03EFB71
:108760000028D6D1F9690E988847FF208BF80000C1
:1087700088F800000020069007904B466A4608A93A
:1087800006A8FFF777FEA00502D46FF001002AE7E4
:1087900014F0240F0AD0E00714D1DDE9061238687E
:1087A000031D3B600068C0E900120BE0DDE9060133
:1087B00000F091FD0146E00704D13868021D3A60DF
:1087C0000068016028460EE7000014400000F03FFA
:1087D000F1D8FFFFF0B480EA0102D40F4200B2EBFF
:1087E000410F02D20246084611464A0042D0C30D4C
:1087F000DDB2C1F3C752AD1A202D35DAC1F316012F
:1088000041F4000204B15242C5F1200602FA06F119
:108810002A411044B3EBD05F23D0C4B1012DA0EBAB
:10882000C35009DCF0BC4FF0004202EAC352DBB295
:1088300000F5000000F095BB400000F1807000EBF7
:10884000C350A0F1807040EAD170490009E04908A6
:1088500041EAC071A0EBC35000F50000400800EBF6
:10886000C350F0BC00F074BB6142012202EB410135
:10887000001BF6E7F0BC704781F00041AAE780F0EA
:108880000040A7E780EA010210B502F00043400073
:1088900022D04A001FD0010E01EB1261C0F3560036
:1088A000C2F3560240F4000042F40002A0FB022092
:1088B00000047F39140400D0401C50EA124001D457
:1088C0004000491EC2B20C0604EBD010401C400808
:1088D000802A02D003E0002010BD20F00100002912
:1088E00000DA0020184310BD30B480EA010202F023
:1088F000004530F0004221F0004013D090B1C30D8C
:10890000D40DC2F31601C0F31600E41A41F40001BD
:1089100040F400027D34914201D3641C00E0490020
:10892000002C02DA30BC002070474FF40000002316
:10893000914201D3891A034340084FEA4101F7D11C
:1089400051B1914202D14FF0004105E002D24FF007
:10895000010101E06FF0010103EBC450284430BC79
:1089600000F0F6BA420005D0C0F3C752524291421D
:1089700001DC0020704700EBC15070472DE9FE4F2D
:10898000804681EA0300C00F0C46009021F00041B0
:1089900023F00045B8EB0200A94105D2404621462C
:1089A00090461C460B46024623F00040104347D039
:1089B000270DC7F30A00C3F30A510290401A019031
:1089C00040286BDAC3F3130040F4801B00989246F2
:1089D00020B10023D2EB030A63EB0B0B019859463D
:1089E000C0F14002504600F002FA06460D465046DD
:1089F0005946019A00F00AFA10EB08006141002480
:108A000087EA115284EAE7731A4340D0009A62B3AE
:108A1000019A012A4FEA075215DC001B61EB0201A3
:108A20004FF0004202EA0752CDE90042001C41F536
:108A3000801132462B4600F047FB03B0BDE8F08FB3
:108A400040462146F9E7001B61EB0201001C41F59D
:108A5000801300185B412018A2F5001747EB0301B3
:108A600040EAD570B6196D4111E06D084FEA36063F
:108A700045EAC0754FEA0752001B61EB0201001C7A
:108A800041F5801149084FEA300000195141324642
:108A90002B4603B0BDE8F04F00F007BB0098012261
:108AA00040000023D0EB020263EBE0730098214604
:108AB0004FEAE074B8EB000061EB0401E9E783F0F2
:108AC00000435BE781F0004158E72DE9FE4F81EA62
:108AD000030404F0004421F0004100944FF0000B27
:108AE00023F0004350EA01045ED052EA03045BD055
:108AF000C3F30A54C1F30A552C44A4F2F33401948D
:108B0000A0FB0254C1F3130141F48011C3F313031A
:108B100043F4801301FB024400FB034E840A970ACE
:108B200044EA815447EA8357A4FB076802958D0AFB
:108B300005FB07854FEA932C04FB0C542705029D87
:108B40004FEA065847EA1637B5EB08056EEB070CF7
:108B5000870E920E47EA811742EA8312A7FB0201B1
:108B6000B6EB0B0164EB00042B0D43EA0C335E18EB
:108B700044EB1C50DA465146E7FB0201C5F31304EF
:108B80004FEA0B3343EA14534FEA0432019C43EAA1
:108B90000603A4F10C040294009CCDE900B400F09B
:108BA00093FA03B0BDE8F08F00200146F9E770B5F5
:108BB00021F0004303430CD0C1F30A550024D5EB48
:108BC000040564EB0403D617AD1AB34102DB0020A1
:108BD000014670BD201841EB025170BDC10F80EA03
:108BE000E0700844CA079623002100F0BAB9962322
:108BF0000022114600F0B5B90EB5C10F80EAE07051
:108C00000844CA07002140F233438DE80E000A46AB
:108C10000B4600F059FA03B000BD0EB540F23341E7
:108C200002910021CDE900110A460B4600F04CFAF2
:108C300003B000BD00F0004220F00040C10DC0F3C1
:108C4000160040F400007F2901DA002070479629C1
:108C500003DCC1F19601C84001E096398840002A42
:108C6000F4D04042704720F00040C10DC0F3160020
:108C700040F400007F2901DA00207047962903DCC8
:108C8000C1F19601C840704796398840704770B569
:108C9000C1F30A5201F000450024C1F3130140F270
:108CA000FF3341F480119A4201DA002070BD40F296
:108CB00033439A42A2F2334203DC5242FFF754FAA2
:108CC00000E090402C43F1D0404270BDC1F30A5205
:108CD00010B5C1F3130140F2FF3341F480119A4201
:108CE00001DA002010BD40F233439A42A2F233422F
:108CF00003DC5242FFF738FA10BD904010BD00006F
:108D000030B5041E71F1000404DB4FF00044404212
:108D100064EB0101141E73F1000405DB1C464FF0E7
:108D20000043524263EB04038B4208BF824230BDD2
:108D300030B5041E71F1000404DB4FF000444042E2
:108D400064EB0101141E73F1000405DB1C464FF0B7
:108D50000043524263EB0403994208BF904230BD86
:108D600030B50B46014600202022012409E021FAFB
:108D700002F59D4205D303FA02F5491B04FA02F5F8
:108D80002844151EA2F10102F1DC30BD2DE9F05F8F
:108D90000546002092469B4688460646814640246A
:108DA0001BE02846414647462246FFF7DDF9534679
:108DB0005A46C01A914110D311461846224600F077
:108DC00016F82D1A67EB01084F46224601200021B4
:108DD00000F00DF817EB00094E41201EA4F101042C
:108DE000DFDC484631462A464346BDE8F09F202A4C
:108DF00004DB203A00FA02F1002070479140C2F1F2
:108E0000200320FA03F3194390407047202A06DB21
:108E1000CB17203A41FA02F043EAE07306E041FA48
:108E200002F3D040C2F12002914008431946704736
:108E30003A2800D2303820F02002412A01D3A2F192
:108E40003700884201D34FF0FF3070470268114469
:108E50001378016018467047D16004495161044994
:108E6000116200211161114600F06ABA4D8E0008AE
:108E700035930008426842B1016811F8013B23B103
:108E8000521EC0E90012184670470121C160881EB9
:108E9000704742685AB1C368016843B983688B421E
:108EA00005D0491E521CC0E90012002070474FF047
:108EB000FF3070470FB4002300B589B00CA90091B2
:108EC0000B996FF00042CB601E4B06931E4B07932D
:108ED0000423CDE901321D4A089202466B46002068
:108EE000FFF75CFB09B05DF814FB70B586B0064671
:108EF0004FF0FF300091CDE90101002015460C46EE
:108F000004903246694604A8FFF7D4FF024604984D
:108F1000211825B108B1084600E0204628600498D1
:108F200000280DD0002A02DD0098884208D0081BD6
:108F30000094CDE901043246694604A8FFF7BAFF60
:108F400006B070BD758E0008938E0008359300083A
:108F50000029A8BF7047401C490008BF20F001004D
:108F6000704710B4B0FA80FC00FA0CF050EA01042B
:108F700004BF10BC704749B1CCF1200421FA04F4BD
:108F800011FA0CF118BF012121430843A3EB0C0196
:108F9000CB1D4FEA00614FEA102042BF002010BCF9
:108FA000704700EBC35010440029A4BF10BC7047A9
:108FB000401C490008BF20F0010010BC7047F0B40D
:108FC000002802DCF0BC00207047C0F3C751C0F39A
:108FD000160040F40000CA0701D14000491E3F229C
:108FE00002EB6105002211464FF4000626FA01F358
:108FF0001344D418844201D8001B1A464000491C6F
:109000001729F3DD5100814202D24FF0FF3100E019
:10901000002102EBC550F0BCFFF79ABF10B541002C
:109020000CD0C0F3C751962908DC7E2909DC06DB89
:10903000410204D000F0004040F07E5010BD0020FE
:1090400010BDC1F19604C4F1200100FA01F1E04025
:10905000FFF77EFFA04010BDF0B400F0004221F009
:10906000004120F00040CE0DC30DC1F3160141F4C4
:109070000001C0F316004C42154640F40000761E75
:1090800009E010EB440002D582F0004240428842E1
:10909000F7D840005B1EB342F9DA18B1F0BC0021EA
:1090A000FFF75FBF2846F0BC704710B5141E73F180
:1090B000000408DA401C41F1000192185B411A4398
:1090C00001D120F0010010BD2DE9F04D92469B46E4
:1090D00011B1B1FA81F202E0B0FA80F2203290468A
:1090E000FFF785FE04460F4640EA0A0041EA0B01FD
:1090F00053465A46084313D0114653EA010019D08B
:10910000C8F140025046FFF72FF805460E4650467C
:1091100059464246FFF76BFE084305D0012004E0A4
:1091200020463946BDE8F08D0020054346EAE0764A
:109130002C4337430A986305E40AA0EB0800002299
:10914000FD0A44EA47540A3002D500200146E9E707
:10915000010510196941DDE9084500196941BDE8BB
:10916000F04DA2E72DE9F04D81EA030404F0004B35
:1091700021F0004514464FF0000A23F0004150EA68
:10918000050220D054EA01021DD0C5F30A57024659
:10919000C5F31303C1F31300C1F30A5640F480155D
:1091A00043F48013A7EB0608101BD64608F2FD38DF
:1091B00073EB050002D308F1010801E092185B414E
:1091C000B8F1000F03DA00200146BDE8F08D002061
:1091D0004FF48011064684460EE0171B73EB05071B
:1091E00005D3121B63EB050306434CEA010C490847
:1091F0004FEA300092185B4150EA0107EDD152EA84
:10920000030012D082EA040083EA0501084305D076
:10921000101BAB4106D20122002306E000224FF0D2
:10922000004302E06FF0010253101AEB06004CEB12
:10923000085110EB0A0041EB0B01BDE8F04DFFF7C0
:1092400034BF0EB540F2334202920022CDE9002233
:109250001346FFF739FF03B000BDC1F30A52C1F353
:10926000130140F2FF3341F480119A4202DA0020E8
:109270000146704740F233439A42A2F2334202DC85
:109280005242FEF771BFFFF7B2BD10B500F00044C7
:1092900020F00040C20DC0F3160040F400007F2A09
:1092A00007DA7D2A00DA7D22763A00FA02F1002000
:1092B00008E0962A09DCA2F1760100FA01F1C2F178
:1092C0009602D040FFF744FE01E0963A9040002C11
:1092D00000D0404210BD01F0004330B421F0004105
:1092E00050EA010206D00A0DA2F56072C1F3130123
:1092F000002A02DC30BC00207047440F44EAC1045D
:10930000C100E01830BC00EBC250FFF721BE0000E6
:10931000064C074D06E0E06840F0010394E80700C2
:1093200098471034AC42F6D3FEF706FFF0E401088C
:1093300010E50108C0B24FF4F05100F097B90000F9
:109340002DE9F34F8BB04FF0000801F10C000C46F3
:109350004FF0010B46460DF1080A019062690121A8
:1093600001989047051E2DD0252D2CD0216A8847C5
:10937000C0B16269012101989047216A884700289D
:10938000F7D1411E62690198904700E0761CA169FF
:109390000B988847216A88470028F7D1E1690B9824
:1093A0008847DBE7A1690B9888470746A84201D1A7
:1093B000761CD3E7E1690B9888477F1C02D1B8F18E
:1093C000000F6FD046E1002762693D46394601989B
:1093D00090472A2804D1626901210198904701250C
:1093E000DFF884926269012101989047A0F1300171
:1093F0000A290AD24F45E5DC07EB870100EB41075C
:10940000303FDFD445F01005ECE7E90601D46FF0FA
:1094100000476C280AD04C2814D0682815D06A2838
:109420000DD074281CD07A281AD01DE06269012161
:10943000019890476C2802D045F0040514E045F0EF
:1094400002050DE045F020050AE06269012101985E
:109450009047682802D045F0080505E045F400650E
:109460006269012101989047C4E9015765283DD000
:1094700019DC58287AD00CDC452837D004DC2528A4
:1094800026D0412831D131E046282FD047282CD191
:109490002CE05B2877D0612828D063287CD0642812
:1094A00023D15AE0D0E06F2848D008DC66281DD0D0
:1094B00067281BD0692821D06E2816D127E0702894
:1094C00045D0732868D0752847D078280DD14DE055
:1094D000A1690B988847054625283FF469AFE169E3
:1094E0000B9888476D1C3FF46AAFB3E023466A4689
:1094F0006FF001000B99FFF751F89EE045F0400036
:109500006060A80723464FF0000236D43EE0E8072B
:109510007FF447AF2068011D21600068290501D54F
:1095200006701BE7290701D5068017E7A90703D5B1
:10953000F117C0E9006111E706600FE745F0400050
:109540006060A80723464FF0080216D41EE040F6DC
:109550000E0125EA0100606016E045F04000606001
:10956000A80723464FF00A0207D40FE045F0400059
:109570006060A80708D5234610226FF001000B9900
:10958000AFF3008059E007E0234610226FF001009E
:109590000B99FEF7C9FE50E04FF000094F464B46CD
:1095A000632802D05B2806D040E0E80601D4012001
:1095B000A06001273AE062690121019890475E2886
:1095C00005D14FF001096269494601989047216928
:1095D00039B900210A46534643F82120491C08297D
:1095E000FADBB0B3216969B9C11700EBD16253113D
:1095F0000AEB830122F01F02821A01200B689040BF
:1096000003430B6062690121019890475D28E8D10E
:10961000B9F1000F09D00020514651F82020D24363
:1096200041F82020401C0828F7DB02AB22460097B7
:109630006FF001000B99AFF3008000280CDA401C9A
:1096400008D1BBF1000F05D04FF0FF300DB0BDE8E1
:10965000F08FFFE74046F9E7E90701D108F101087B
:1096600006444FF0000B79E6CCCCCC0C7F2801D916
:10967000002208E0064A02EB5002C007127800D12F
:10968000120902F00F0201209040084070470000CC
:10969000E8D9010870B58C1810F8015B15F00703C4
:1096A00001D110F8013B2A1106D110F8012B03E07B
:1096B00010F8016B01F8016B5B1EF9D12B0705D483
:1096C0000023521E0DD401F8013BFAE710F8013BCC
:1096D000CB1A921C03E013F8015B01F8015B521EE8
:1096E000F9D5A142D8D3002070BD70B504462068DA
:1096F000816811F0010F24D0816821F0010181609F
:1097000001F06CFA05462068806810F0010F18D04F
:1097100001F064FA401B02280ED92068806810F01E
:10972000010F09D0A06A40F01000A062E06A40F08A
:109730000100E062012070BD2068806810F0010F18
:10974000E6D1002070BD10B50246506A816A11F062
:10975000500F05D0006A016BBDE810401046084765
:10976000816A41F400718162016889684FF4602266
:1097700032EA01010DD1017B59B9816A21F480716E
:109780008162816A11F4805F03D1816A41F0010135
:10979000816200F0C1FB10BD10B5406A816A41F0E2
:1097A00040018162C16A41F00401C16200F0B6FB70
:1097B00010BD10B5406A00F0B0FB10BDF8B504460E
:1097C000002600962068816811F0010F28D1816879
:1097D00041F001018160194819490068B0FBF1F0BE
:1097E0000090009828B10098401E00900098002832
:1097F000F9D101F0F3F905462068806810F0010FF7
:109800000ED101F0EBF9401B022804D920688068D2
:1098100010F0010F06D02068806810F0010FF0D022
:109820000020F8BDA06A40F01000A062E06A40F09D
:109830000100E06284F824600120F8BD14000020DB
:1098400040420F00064A527B3AB132225143642211
:10985000B1FBF2F101800120704700207047000049
:1098600070020020014800F0C5BD0000641B00200C
:10987000014800F0BFBD00006408002010B490F85B
:1098800040C0012404FA0CFCC46BC4F804C0D0F836
:1098900000C0CCF804304368102B05D003689960F1
:1098A0000068C26010BC704703689A600068C160BD
:1098B00010BC70470C4800B5816985B041F00801C3
:1098C00081618069694600F0080004904FF4E0402F
:1098D0000090012001900220029003200390034891
:1098E00001F062F805B000BD00100240000C01401C
:1098F0002DE9F041054603F00BFA0824114F4FF40F
:109900000058E602E80701D0012200E000224146AB
:10991000384601F05CF905F001F80122314638467D
:1099200001F055F904F0FAFF00223146384601F003
:109930004EF96D08641E14F0FF04E3D1BDE8F04158
:1099400004F0ECBF000C01402DE9F041002503F0CC
:10995000C1F903F0FBF9154F0024DFF850804FF4F4
:109960008046083FD8F800106808890402D540F006
:10997000800501E000F07F0504F0D0FF01223146B0
:10998000384601F024F904F0C9FF00223146384678
:1099900001F01DF904F0C2FF641CE4B2082CE1D30D
:1099A00004F0BCFF2846BDE8F0810000080C01402F
:1099B0002DE9F041044672B60022144E4FF4805552
:1099C0002946304601F003F9AF00002239463046FF
:1099D00001F0FDF804F0A2FF01222946304601F013
:1099E000F6F82046FFF784FFFFF7AEFF044600229B
:1099F0003946304601F0EBF800222946304601F0A6
:109A0000E6F862B62046BDE8F0810000000C014097
:109A100070B58125064600242846FFF7C9FF30555A
:109A2000AD1C641CE4B2EDB2072CF5D331780B48C1
:109A30000B064FF000020DD503785B1CDBB2037000
:109A40000A2B08D3027001F07F003070304600F01E
:109A500045F800E00270012070BD000018030020EE
:109A600010B500218E2000F00BF8A521902000F009
:109A700007F88021BDE810408E2000F001B80000FA
:109A80002DE9F041144D884607464FF480540022DA
:109A90002146284601F09BF8A600002231462846C0
:109AA00001F095F804F03AFF01222146284601F022
:109AB0008EF83846FFF71CFF4046FFF719FF0022DB
:109AC0003146284601F083F821462846BDE8F0419A
:109AD000002201F07CB80000000C014070B5064681
:109AE000802500218E20FFF7CBFF07243178284600
:109AF000FFF7C6FFAD1C641E761CEDB214F0FF0428
:109B0000F4D180218E20FFF7BBFF012070BD000043
:109B100001A006F0B9BD0000776F7468646F6E67CE
:109B20006572726F0A00000006490020C86106488D
:109B3000016941F004010161016941F040010161E5
:109B4000704700009006002000200240064A0021D5
:109B5000D16106490A6942F002020A614861086956
:109B600040F040000861704790060020002002404D
:109B7000044B0022DA61044A136943F001031361C4
:109B80000180704790060020002002400020164906
:109B9000CA6812F0100F154A04D0D06940F00200D4
:109BA000D0611020CB6813F0040F05D0D36943F0C7
:109BB0000103D36140F00400CB6913F0010F07D01B
:109BC000D36943F00403D361CA6922F00102CA6178
:109BD000A0F58072013A01D0C8607047C86920F0D2
:109BE0000100C8617047000000200240900600207C
:109BF00070B5044600F0F2FF0646164DE86810F016
:109C0000010F0ED0B4F1FF3F07D024B100F0E6FF02
:109C1000801BA04201D9032070BDE86810F0010F3D
:109C2000F0D1E86810F0200F01D02020E860E8684B
:109C300010F0100F07D1E86910F0010F03D1E868A8
:109C400010F0040F03D0FFF7A1FF012070BD00202A
:109C500070BD00000020024030B50446104607E009
:109C600014F8015BC2B2554033F8152082EA102087
:109C70000A1EA1F10101F3DC30BD30B5022903D881
:109C80000C31401EC9B280B26424B0FBF4F3B0FBC7
:109C9000F4F504FB1500491C01EB810404EBC10140
:109CA0000524B1FBF4F11BB2DC1703EB9474A41090
:109CB0005B4204EB43030344C41700EB947003EBD3
:109CC000A00008441044401E00B2002802DA00F24E
:109CD000245000B2072190FBF1F201FB1200C0B248
:109CE00030BD0000F8B504460026009694F8240024
:109CF000012809D0012084F824002046FFF7F5FC54
:109D00000746380002D06DE00220F8BDA06A20F4BA
:109D1000885040F00200A062022001F04DF8334963
:109D20000968B1FBF0F040000090009828B100985D
:109D3000401E009000980028F9D12046FFF73EFD14
:109D40002068816841F00801816000F047FF054606
:109D50002068806810F0080F18D000F03FFF401B0B
:109D60000A280ED92068806810F0080F09D0A06A70
:109D700020F0020040F01000A06284F8246001206E
:109D8000F8BD2068806810F0080FE6D1206881686F
:109D900041F00401816000F021FF054620688068E1
:109DA00010F0040F18D000F019FF401B0A280ED93C
:109DB0002068806810F0040F09D0A06A20F002002B
:109DC00040F01000A06284F824600120F8BD2068F3
:109DD000806810F0040FE6D1A06A20F0020040F085
:109DE0000100A06284F824603846F8BD1400002009
:109DF00078B44FF0000C0024009490F82420012A3D
:109E000014D0012280F824204A681F25072A10D286
:109E100003685E6B521E02EB8202954026EA05053E
:109E20000E6806FA02F22A435A631FE078BC022049
:109E300070470D2A0DD203681E6BD21F02EB8202FF
:109E4000954026EA05050E6806FA02F22A431A63CF
:109E50000CE00368DE6A0D3A02EB8202954026EAC6
:109E600005050E6806FA02F22A43DA620A68072537
:109E70000A2A0DD30368DE680A3A02EB42029540D3
:109E800026EA05058E6806FA02F22A43DA600BE03C
:109E900003681E6902EB4202954026EA05058E68BA
:109EA00006FA02F22A431A610A68102A01D0112A1E
:109EB0000BD10268A2F18043B3F592330AD0816AD4
:109EC00041F0200181624FF0010C80F8244078BC01
:109ED00060467047936813F4000FF6D1936843F41B
:109EE0000003936009681029EFD10949094A0968FC
:109EF000B1FBF2F101EB81014900009100990029C9
:109F0000E3D00099491E009100990029F9D1DCE7BE
:109F10001400002040420F00704770477047000057
:109F20002DE9F04104460025002C03D0A06A00264C
:109F300018B108E00120BDE8F081E66284F82460F1
:109F4000204600F08FF82046FFF7CFFB0146A06ABD
:109F500010F0100F00D139B1A06A40F01000A062DB
:109F600001210846BDE8F081A06A20F4885040F045
:109F70000200A0622268A2F18040B0F59E3011D0AC
:109F8000E06994F80CC040EA4C0360680343A068A1
:109F9000B0F5807F0DD001280BD00020277D012F48
:109FA0000AD018E0E069B0F5402FEAD14FF4002064
:109FB000E7E74FF48070F1E7BCF1000F21D0D4F84F
:109FC00028C04CF0200CC4F828C0D4F82CC04CF0A9
:109FD000010CC4F82CC0D2F804C02CF4694C4CEA33
:109FE0000000506020688268DFF870C002EA0C024E
:109FF0001A438260A068B0F5807F0BD0012809D099
:10A000000BE0D4F818C0ACF1010C40EA4C3040F43D
:10A010000060E0E7208A401E05052068C26A22F43D
:10A0200070022A43C262206880680D4A104098423C
:10A0300007D1E662A06A20F0020040F00100A062B1
:10A040008FE7A06A20F0020040F01000A062E06AF2
:10A0500040F00100E062012183E70000FDF7E1FF2D
:10A06000FE0E1FFF70B586B00025064600950195CF
:10A070000295039500681D49884234D11C498869BE
:10A0800040F400708861886900F400700490886969
:10A0900040F0080088618869032400F008000490FB
:10A0A000009469460194134800F07EFC5020CDE9ED
:10A0B00000046946104800F077FC114C0F48C4E9D1
:10A0C00000058020C4E902504000206180006061EA
:10A0D0002020C4E90605204600F0F6FA08B1FFF793
:10A0E00017FD3462666206B070BD000000240140B6
:10A0F00000100240000C014000080140080002402E
:10A10000641B00202DE9F0470446884691462068EC
:10A11000434F444EA0F1804ABAF5923A01D0B8427A
:10A1200007D1306810F4702F03D001252846BDE810
:10A13000F08794F8240001280BD0012084F8240033
:10A140002046FFF73BFB054600212DB184F8241083
:10A15000ECE70220BDE8F087A06A20F0010020F4BF
:10A16000606040F48070A0622068B8421AD1326802
:10A1700012F4702F16D0A26A42F48012A2623068E4
:10A1800010F4806F05D0A06A20F4005040F4805095
:10A19000A062A06A10F4805F13D0E06A20F006008D
:10A1A000E0620FE0A26A22F48012A262406810F41A
:10A1B000806FEED0A06A20F4005040F48050A0627E
:10A1C000E7E7E16284F82410216A17488862216A6F
:10A1D0001648C862216A1648086321686FF00200B9
:10A1E00008602068816841F48071816020684B4676
:10A1F00000F14C014246206A00F0BAFA20688168FA
:10A200004FF4602232EA010104D0816841F48011E8
:10A2100081608BE7816841F4A001816086E70000DE
:10A22000002801400424014047970008B397000824
:10A230009997000890F821100022022905D00421E6
:10A24000816380F820200120704701680B6823F0AB
:10A250000E030B6001680B6823F001030B6090F89C
:10A260004030D0F83CC0012101FA03F3CCF80430AF
:10A2700080F8211080F82020104670472DE9F05F0B
:10A28000002490F82110022903D0042181630124C5
:10A2900090E001680A6822F00E020A6001680A680C
:10A2A00022F001020A60454A0168454BDFF814C1FB
:10A2B000454D464E464FDFF81C81DFF81C91DFF814
:10A2C0001CA1DFF81CB1DFF81CE1914232D99942A0
:10A2D00001D101212BE0614501D1102127E0A942E4
:10A2E00002D14FF4807122E0B14202D14FF480518B
:10A2F0001DE0B94202D14FF4803118E0414502D14E
:10A300004FF4801113E0494501D101210FE051457F
:10A3100001D110210BE0594502D14FF4807106E0C4
:10A32000714502D14FF4805101E04FF480312E4A43
:10A33000116036E0994201D1012130E0614501D13F
:10A3400010212CE0A94202D14FF4807127E0B142E4
:10A3500002D14FF4805122E0B94202D14FF4803152
:10A360001DE0414502D14FF4801118E0914202D125
:10A370004FF0807113E0494501D101210FE05145B3
:10A3800001D110210BE0594502D14FF4807106E054
:10A39000714502D14FF4805101E04FF48031134AEE
:10A3A0005160012180F82110002180F82010416BBC
:10A3B00001B188472046BDE8F09F000080000240C0
:10A3C000080002401C0002403000024044000240ED
:10A3D000580002406C000240080402401C04024085
:10A3E00030040240440402400404024000000240E1
:10A3F000806B70472DE9F05FC16B0A6801680B68DC
:10A40000D0F840B04FF0040C0CFA0BFC1CEA020F21
:10A41000DFF880C2A04CA14DA14EA24FDFF8888288
:10A42000DFF88892DFF888A270D013F0040F7ED096
:10A430000A6812F0200F03D10A6822F004020A60B1
:10A440009C4A0168914233D9614501D104212CE035
:10A45000A14201D1402128E0A94202D14FF48061FC
:10A4600023E0B14202D14FF480411EE0B94202D153
:10A470004FF4802119E0414502D14FF4800114E0EE
:10A48000494501D1042110E0514501D140210CE0A2
:10A49000894A914201D1091507E0884A914202D1C7
:10A4A0004FF4804101E04FF48021854A116038E08B
:10A4B000614501D1042132E0A14201D140212EE0C9
:10A4C000A94202D14FF4806129E0B14202D14FF498
:10A4D000804124E0B94202D14FF480211FE0414580
:10A4E00002D14FF480011AE0914202D14FF0806115
:10A4F00015E0494501D1042111E0514501D1402128
:10A500000DE06D4A914202D1091508E00FE06B4A57
:10A51000914202D14FF4804101E04FF48021694A19
:10A520005160C16A002970D0BDE8F05F08474FF064
:10A53000020E0EFA0BFE1EEA020F67D013F0020F96
:10A5400064D00A6812F0200F06D10A6822F00A02CD
:10A550000A60012180F82110564A0168914233D9DE
:10A56000614501D102212CE0A14201D1202128E046
:10A57000A94202D14FF4007123E0B14202D14FF45D
:10A5800000511EE0B94202D14FF4003119E04145BB
:10A5900002D14FF4001114E0494501D1022110E02D
:10A5A000514501D120210CE0434A914201D1491586
:10A5B00007E0424A914202D14FF4005101E04FF4CA
:10A5C00000313F4A116039E0614501D1022133E099
:10A5D000A14201D120212FE0A94202D14FF4007104
:10A5E0002AE0B14202D14FF4005125E0B94202D134
:10A5F0004FF4003120E0414502D14FF400111BE03F
:10A60000914204D14FF0007116E041E01FE049454E
:10A6100001D1022110E0514501D120210CE0264A50
:10A62000914201D1491507E0244A914202D14FF4E9
:10A63000005101E04FF40031224A5160002180F8BE
:10A640002010816A002923D0BDE8F05F08474FF051
:10A65000080C0CFA0BFC1CEA020F19D013F0080FBF
:10A6600016D00A6822F00E020A6090F84020C36BF0
:10A67000012101FA02F25A60816380F82110002161
:10A6800080F82010016B002902D0BDE8F05F084778
:10A69000BDE8F09F080002401C000240300002406C
:10A6A00044000240580002406C000240080402408E
:10A6B0001C04024080000240300402404404024076
:10A6C000040402400000024010B400280ED0224BC7
:10A6D0000168224A99420CD2214B0B44A2FB03325F
:10A6E0001209920002641F4AC2630BE010BC0120F1
:10A6F00070471D4B0B44A2FB033212099200026407
:10A700001A4AC263022280F821200A686FF30D12F0
:10A71000D0F808C04368046943EA0C03D0F80CC0C1
:10A720004CEA040C43EA0C03D0F814C043EA0C03CF
:10A73000D0F818C043EA0C03D0F81CC043EA0C035D
:10A740001A430A6000218163012280F8212080F8E9
:10A75000201010BC0020704708040240CDCCCCCCA7
:10A76000F8FFFDBF00000240F8FBFDBF00040240FF
:10A7700070B50446002594F8200001280DD0012072
:10A7800084F8200094F821C00020BCF1010F06D00D
:10A7900084F820000225284670BD022070BD4FF0CD
:10A7A000020C84F821C0A0632068D0F800C02CF00F
:10A7B000010CC0F800C02046FFF760F8E06A28B13D
:10A7C0002068016841F00E01016009E0206801681D
:10A7D00021F0040101602068016841F0020101607C
:10A7E0002068016841F001010160D4E770B50446BA
:10A7F00000F0F4F90546B4F1FF3F02D004480078B8
:10A80000044400F0EBF9401BA042FAD370BD0000F5
:10A81000080000202DE9F04705460F464FF00109DA
:10A82000DFF89C8098F8180001280CD0012088F8E7
:10A8300018002868234E022808D04CF25030FFF749
:10A84000D7F9A8B136E00220BDE8F0874CF25030CD
:10A85000FFF7CEF928BB0120FFF766F94CF2503024
:10A86000FFF7C6F98146306920F00400306121E02D
:10A870004FF0FF303860AC68E86804EBC020A042BD
:10A8800018D92046FFF762F94CF25030FFF7B0F9C3
:10A890008146306920F0020030615FEA090001D092
:10A8A0003C6007E004F50064E968A86800EBC1209B
:10A8B000A042E6D8002088F818004846BDE8F08796
:10A8C00090060020002002400348016941F0800109
:10A8D0000161002070470000002002402DE9F05F78
:10A8E0000746884615461E46DFF888900020C9F8BE
:10A8F000D0000024DFF880A09AF81800012809D0C1
:10A900004FF0010B8AF818B04CF25030FFF770F995
:10A9100018B127E00220BDE8F09F012F1AD0022FC6
:10A920001AD00427002F1DD9220128463146FDF7F1
:10A930001BFC81B208EB4400FFF71AF94CF25030CF
:10A94000FFF756F9D9F8101021F00101C9F81010DD
:10A9500040B903E00127E5E70227E3E7611CCCB239
:10A96000BC42E1D300218AF81810C9F8D0B0BDE884
:10A97000F09F0000002002409006002000200749C0
:10A980000A6912F0800F08D0054A4A60054A4A60F9
:10A99000096911F0800F00D00120704700200240AB
:10A9A00023016745AB89EFCD2DE9F84F4FF0000C3F
:10A9B00000230A68002A7DD0DFF8F8810F2708F10C
:10A9C000040909F1040A0AF1040B012202FA0CF647
:10A9D0000A683240B2426ED1DFF8DCE14C68A4EB89
:10A9E0000E0574452BD00DDC032C34D005DC34B3BC
:10A9F000012C19D0022C2FD11BE0112C16D0122CB7
:10AA00002AD119E0B5F5881F19D006DCB5F5803FCD
:10AA100015D0B5F5801F1FD111E0B5F5001F0ED080
:10AA2000B5F5041F18D10AE0CB6815E0CB681B1DF3
:10AA300012E0CB6808330FE0CB680C330CE08B6876
:10AA400023B1012B04D00823466105E0042303E071
:10AA50000823066100E00023B2F5807F01D205469D
:10AA600001E000F1040502D24FEA8C0403E0ACF1EE
:10AA700008044FEA84042E6807FA04FE26EA0E064C
:10AA800003FA04F446EA04042C604C6814F0805F76
:10AA900011D04A4CA56945F00105A561A46904F0EF
:10AAA000010400942CF0030404F1804404F5803484
:10AAB000A66801E07CE074E04FEA8C754FEA1575FA
:10AAC00007FA05FE26EA0E0EA0F18046B6F584369A
:10AAD00028D0A0F18046B6F5863625D0A0F1804674
:10AAE000B6F5883622D0A0F18046B6F58A361FD05A
:10AAF000A0F18046B6F58C361CD0A0F18046B6F5A4
:10AB00008E3619D0062606FA05F545EA0E05A5602B
:10AB10004C6814F4803F11D0D8F800401443C8F8B2
:10AB2000004010E00026EEE70126ECE70226EAE707
:10AB30000326E8E70426E6E70526E4E7D8F8004020
:10AB40009443C8F800404C6814F4003F05D0D9F88D
:10AB500000401443C9F8004004E0D9F80040944391
:10AB6000C9F800404C6814F4801F05D0DAF80040A2
:10AB70001443CAF8004004E0DAF800409443CAF8ED
:10AB800000404C6814F4001F05D0DBF8004022435D
:10AB9000CBF8002005E0DBF8004024EA0202CBF805
:10ABA00000200CF1010C0A6832FA0CF27FF40DAFB0
:10ABB000BDE8F88F000401400000111000100240B1
:10ABC0008068084201D00120704700207047002AA9
:10ABD00001D0016170470904016170470148806834
:10ABE000704700000800002070B50446002C21D0FA
:10ABF00021684CF6CC400860216845F25550086049
:10AC00002168606848602168A0688860FFF7E6FFF7
:10AC100005462068C06810F0030F12D0FFF7DEFF72
:10AC2000401B272808D92068C06810F0030F03D004
:10AC3000032070BD012070BD2068C06810F0030FB4
:10AC4000ECD121684AF6AA200860002070BD006897
:10AC50004AF6AA210160002070470000024881687E
:10AC600002781144816070470800002010B5074841
:10AC7000016841F010010160032000F08BF80A2008
:10AC800000F006F800F026F8002010BD0020024079
:10AC900070B504460D4D4FF47A712878B1FBF0F091
:10ACA0000B490968B1FBF0F000F0E4FC08B10120A9
:10ACB00070BD102C07D200222146501E00F036F83D
:10ACC0006C60002070BD012070BD000008000020F5
:10ACD000140000200C4808B5816941F00101816130
:10ACE000816901F001010091C16941F08051C161A8
:10ACF000C06900F0805000900448416821F0E06194
:10AD000041F00071416008BD0010024000000140A8
:10AD100000280ADB00F01F01012202FA01F14009BC
:10AD2000800000F1E020C0F80011704710B4184B0B
:10AD30001B68C3F30223C3F1070CBCF1040F01D954
:10AD40004FF0040C1C1D072C01D2002300E0DB1E79
:10AD5000012404FA0CFCACF1010C0CEA010199404D
:10AD600004FA03F35B1E1A401143002806DB00F1CE
:10AD7000E020090180F8001410BC704700F00F00BB
:10AD800000F1E020090180F8141D10BC704700009C
:10AD90000CED00E000F00700064A11684FF6FF03D3
:10ADA000194041EA002040F0FD7040F080601060E2
:10ADB000704700000CED00E010B586B001463CA0E5
:10ADC000D0F808C043680268C068CDF810C003938B
:10ADD000029205903AA0006801900020394C0429A5
:10ADE00036D00EDC01293DD0022908D100F0E0F96F
:10ADF0006168C1F38131491C4900B0FBF1F006B034
:10AE000010BD082929D01029F9D16168226812F0F3
:10AE1000807FF4D002A8C1F38342805C11F4803FAC
:10AE200009D0616801AAC1F34041515C264AB2FBD6
:10AE3000F1F1484301E025494843616811F4800F6E
:10AE4000DDD123494000A1FB001006B0400810BD31
:10AE500006B0BDE8104000F0BBB906B0BDE8104038
:10AE600000F0B6B9216A01F44072B2F5807F06D1D4
:10AE700011F0020F03D006B04FF4004010BDB2F540
:10AE8000007F07D1626A12F0020F03D049F64040FA
:10AE900006B010BD4FF4407232EA0101F8D12168CA
:10AEA00011F4003FF4D006B04FF2244010BD000072
:10AEB00002030405060708090A0B0C0D0E0F1010FB
:10AEC000010200000010024000127A0000093D005B
:10AED000ABAAAAAA2DE9F8430446DFF81C81207822
:10AEE00010F0010F6CD00027D8F81C0010F0805F24
:10AEF0000BD1D8F81C0040F08050C8F81C00D8F8DE
:10AF00001C0000F08050009001273C4D286810F490
:10AF1000807F16D1286840F480702860FFF75EFEBD
:10AF20000646286810F4807F0BD1FFF757FE801B80
:10AF3000642802D90320BDE8F883286810F4807FD4
:10AF4000F3D0D8F8200000F4407048B3A18801F491
:10AF50004071814224D0D8F8200020F44070284964
:10AF600001220A6000220A60C8F8200010F0010FD8
:10AF700016D0FFF733FE0546D8F8200010F0020F78
:10AF80000ED141F28836FFF729FE401BB04202D9AC
:10AF90000320BDE8F883D8F8200010F0020FF2D0AB
:10AFA000D8F82000616820F440700843C8F82000F9
:10AFB000012F05D1D8F81C0020F08050C8F81C00E3
:10AFC000207810F0020F07D0D8F80400A16820F410
:10AFD00040400843C8F80400207810F0100F07D054
:10AFE000D8F80400616920F480000843C8F8040020
:10AFF0000020BDE8F883000000100240007000400F
:10B00000400442422DE9F04704460D46002C17D07B
:10B01000DFF85C81D8F8000000F00700A84212D2E7
:10B02000D8F8000020F007002843C8F80000D8F83E
:10B03000000000F00700A84205D00120BDE8F0871D
:10B040000120BDE8F08720684A4E10F0020F14D0AE
:10B0500010F0040F03D0706840F4E0607060207856
:10B0600010F0080F03D0706840F460507060706892
:10B0700020F0F001A06808437060207810F0010F04
:10B080003AD06068012806D002280BD0316811F050
:10B09000020F27D00AE0316811F4003F06D10120E9
:10B0A000BDE8F087316811F0007F18D0716821F099
:10B0B000030108437060FFF791FD074670686168FF
:10B0C00000F00C00B0EB810F16D041F28839FFF789
:10B0D00085FDC01B484508D90320BDE8F087012045
:10B0E000BDE8F0870120BDE8F0877068616800F076
:10B0F0000C00B0EB810FEAD1D8F8000000F0070097
:10B10000A8420FD9D8F8000020F007002843C8F85B
:10B110000000D8F8000000F00700A84202D001208B
:10B12000BDE8F087207810F0040F05D07068E16862
:10B1300020F4E06008437060207810F0080F06D01B
:10B140007068216920F4605040EAC100706000F02E
:10B150003FF87168084AC1F30311515CC8400749C0
:10B16000086007480068FFF793FD0020BDE8F087FE
:10B1700000200240001002400CD3010814000020FF
:10B180000C000020014800687047000014000020F7
:10B1900000B5FFF7F7FF04494968044AC1F30221EB
:10B1A000515CC84000BD0000001002401CD30108E3
:10B1B00000B5FFF7E7FF04494968044AC1F3C2211B
:10B1C000515CC84000BD0000001002401CD30108C3
:10B1D00085B015A0836842680168C0680393029235
:10B1E0000191049014A000680090144B5968144811
:10B1F00001F00C02042A11D0082A0FD101A8C1F3D2
:10B200008342805C11F4803F0AD05968C1F3404109
:10B210001DF801100A4A5043B0FBF1F005B0704729
:10B22000084905B0484370470203040506070809AA
:10B230000A0B0C0D0E0F101001020000001002404E
:10B2400000127A0000093D002DE9F84F0446002C59
:10B250000FD02078F84D10F0010F6CD0686800F026
:10B260000C0004280CD0686800F00C00082803D0FB
:10B2700010E00120BDE8F88F686810F4803F09D025
:10B28000286810F4003F56D06068002853D1012090
:10B29000BDE8F88F6068B0F5803F15D0C8B1B0F553
:10B2A000A02F1FD0286820F480302860286820F460
:10B2B00080202860606858B3FFF790FC0646286835
:10B2C00010F4003F17D036E0286840F48030286042
:10B2D000F0E7286820F480302860286820F4802077
:10B2E0002860E7E7286840F480202860286840F458
:10B2F00080302860DEE7FFF771FC801B642802D9EC
:10B300000320BDE8F88F286810F4003FF3D012E066
:10B31000FFF764FC0646286810F4003F0BD0FFF7E7
:10B320005DFC801B642802D90320BDE8F88F2868E3
:10B3300010F4003FF3D12078C04F10F0020F4FF00F
:10B34000010B4FF0000854D0686810F00C0F14D0B7
:10B35000686800F00C00082803D1686810F4803F8A
:10B360000BD0206978B3C7F800B0FFF737FC06466A
:10B37000286810F0020F12D01DE0286810F0020FAC
:10B3800005D02069012802D00120BDE8F88F286887
:10B39000616920F0F80040EAC100286029E0FFF769
:10B3A0001DFC801B022802D90320BDE8F88F286805
:10B3B00010F0020FF3D02868616920F0F80040EA2D
:10B3C000C100286015E0FFE7C7F80080FFF706FC22
:10B3D0000646286810F0020F0BD0FFF7FFFB801B1A
:10B3E000022802D90320BDE8F88F286810F0020F68
:10B3F000F3D1207810F0080F30D09148A169C1B185
:10B40000C0F800B0FFF7EAFB0646686A10F0020FCA
:10B410000BD1FFF7E3FB801B022802D90320BDE814
:10B42000F88F686A10F0020FF3D0012001F07EF966
:10B4300014E0C0F80080FFF7D1FB0646686A10F000
:10B44000020F0BD0FFF7CAFB801B022802D9032092
:10B45000BDE8F88F686A10F0020FF3D1207810F081
:10B46000040F6FD00026E86910F0805F08D1E8690A
:10B4700040F08050E861E86900F0805000900126BB
:10B48000DFF8C0A1DAF8000010F4807F1BD1DAF8F1
:10B49000000040F48070CAF80000FFF79FFB81466F
:10B4A000DAF8000010F4807F0DD1FFF797FBA0EBD6
:10B4B0000900642802D90320BDE8F88FDAF80000FB
:10B4C00010F4807FF1D0E068012816D0D0B10528B3
:10B4D00021D0286A20F001002862286A20F00400A8
:10B4E0002862E06841F2883A68B3FFF777FB81464B
:10B4F000286A10F0020F17D03AE0286A40F00100E5
:10B500002862EEE7286A20F001002862286A20F00D
:10B5100004002862E5E7286A40F004002862286AEF
:10B5200040F001002862DCE7FFF758FBA0EB0900C0
:10B53000504502D90320BDE8F88F286A10F0020FA9
:10B54000F2D015E01AE0FFE7FFF748FB8146286AD2
:10B5500010F0020F0CD0FFF741FBA0EB09005045A3
:10B5600002D90320BDE8F88F286A10F0020FF2D14B
:10B57000012E03D1E86920F08050E861E069E8B36A
:10B58000696801F00C0108295ED0022810D0C7F8C4
:10B590006080FFF723FB0446286810F0007F66D028
:10B5A000FFF71CFB001B022841D90320BDE8F88FE0
:10B5B000C7F86080FFF712FB0646286810F0007F8E
:10B5C0000BD0FFF70BFB801B022802D90320BDE83C
:10B5D000F88F286810F0007FF3D1206AB0F5803F23
:10B5E00005D16868A16820F4003008436860616A8A
:10B5F000206A0843696821F4741100E037E00843C9
:10B600006860C7F860B0FFF7E9FA0446286810F0F0
:10B61000007F2CD1FFF7E2FA001B022802D9032099
:10B62000BDE8F88F286810F0007FF3D01FE028688D
:10B6300010F0007FB4D11AE0001002400000424236
:10B64000800442420070004001280DD06868226AE0
:10B6500000F48031914204D1616A00F47010884294
:10B6600005D00120BDE8F88F0120BDE8F88F00204B
:10B67000BDE8F88F401EB0F1807F01D301207047F4
:10B680004FF0E0214861044AF020107000208861EA
:10B69000072008610020704723ED00E070477047E5
:10B6A000704730B490F83C20012A3AD0012480F849
:10B6B0003C40022280F83D200268D2F804C0936822
:10B6C0002CF0700C0D6845EA0C0CC2F804C002683E
:10B6D000A2F1804CBCF5963C16D0A2F1804CBCF592
:10B6E0009A3C11D0B2F1804F0ED0A2F1804CBCF543
:10B6F000806C09D0A2F1804CBCF5006C04D0A2F1A2
:10B70000804CBCF5406C04D123F080034968194398
:10B71000916080F83D40002180F83C1030BC002052
:10B72000704730BC0220704710B50446002C03D08F
:10B7300094F83D0010B10EE0012010BD002084F807
:10B740003C00204601F0E8F9A06C08B91148A0645B
:10B75000A16C20468847022084F83D00211D206806
:10B7600001F0A6F8012084F8460084F83E0084F831
:10B770003F0084F8400084F8410084F8420084F8D7
:10B78000430084F8440084F8450084F83D0000201C
:10B7900010BD000099B7000870470168CA6822F020
:10B7A0000102CA6001680A6A41F211131A4207D104
:10B7B0000A6A9B101A4203D10A6822F001020A6049
:10B7C000012180F83D1000207047704710B50446F5
:10B7D0000068104988421BD1207F012818D1002120
:10B7E000204600F0FBFA0C4A81B25088081A80B259
:10B7F00032280BD92068036A9B07036A02D523F01D
:10B80000020301E043F0020303625180052010703F
:10B8100010BD000000080040BC020020704770B559
:10B8200005460C4695F83C0001281CD0012085F8FF
:10B830003C00D2B1042A29D0082A39D0E3686268D2
:10B840002168286801F025FA2868C16921F440615F
:10B85000C1612868C169A26841EA0221C161002072
:10B8600085F83C0070BD022070BDE3686268216805
:10B87000286801F093F92868816921F00C01816141
:10B8800028688169A26811438161E8E7E36862681A
:10B890002168286801F0BFF92868816921F44061B6
:10B8A000816128688169A26841EA02218161D6E745
:10B8B000E36862682168286801F0CDF92868C169E9
:10B8C00021F00C01C1612868C169A2681143C161FE
:10B8D000C5E7000010B50446002C03D094F83D00E5
:10B8E00010B10EE0012010BD002084F83C0020467D
:10B8F00001F012F9206D08B911482065216D20462C
:10B900008847022084F83D00211D206800F0D0FF08
:10B91000012084F8460084F83E0084F83F0084F853
:10B92000400084F8410084F8420084F8430084F821
:10B93000440084F8450084F83D00002010BD00005C
:10B9400045B9000800B585B0002100910191029130
:10B9500003910068114988421ED11148C16941F024
:10B960000401C161C16901F004010491816941F0E0
:10B97000080181618069694600F008000490402058
:10B9800000900848FFF710F8002211461E20FFF72C
:10B99000CDF91E20FFF7BCF905B000BD000800403E
:10B9A00000100240000C014070B504462068016997
:10B9B0004FF0000511F0020F1AD0C16811F0020F0C
:10B9C00016D0E91E0161012020772068806910F0FF
:10B9D000030F04D0D4F890102046884707E0D4F82D
:10B9E000981020468847D4F89C1020468847257731
:10B9F0002068016911F0040F1BD0C16811F0040F19
:10BA000017D06FF00401016102202077206880695F
:10BA100010F4407F04D0D4F890102046884707E007
:10BA2000D4F8981020468847D4F89C1020468847C0
:10BA300025772068016911F0080F1BD0C16811F04B
:10BA4000080F17D06FF008010161042020772068EB
:10BA5000C06910F0030F04D0D4F890102046884736
:10BA600007E0D4F8981020468847D4F89C10204668
:10BA7000884725772068016911F0100F1BD0C16835
:10BA800011F0100F17D06FF010010161082020771E
:10BA90002068C06910F4407F04D0D4F8901020468C
:10BAA000884707E0D4F8981020468847D4F89C10BF
:10BAB0002046884725772068016911F0010F0AD0D8
:10BAC000C16811F0010F06D06FF001010161D4F8D7
:10BAD0008010204688472068016911F0800F0AD045
:10BAE000C16811F0800F06D06FF080010161D4F8B9
:10BAF000B010204688472068016911F0400F0AD035
:10BB0000C16811F0400F06D06FF040010161D4F818
:10BB10008810204688472068016911F0200F0CD05A
:10BB2000C16811F0200F08D06FF02001016120469C
:10BB3000D4F8A810BDE87040084770BD00B585B0C6
:10BB400000210091019102910391006810498842FF
:10BB50001CD11048816941F01001816180696946FA
:10BB600000F0100004904FF400700090022001904B
:10BB7000032003900848FEF717FF0848416821F4A6
:10BB8000406141F0E06141F44061416005B000BDB9
:10BB9000000400400010024000100140000001407D
:10BBA000704770B504460D4694F83C0001280AD051
:10BBB000012084F83C0042B1042A1AD0082A2DD072
:10BBC0000C2A53D13EE0022070BD2946206800F0C7
:10BBD000C7FE2068816941F00801816120688169A0
:10BBE00021F004018161206881692A691143816122
:10BBF0003CE02946206800F0EBFE2068816941F4B2
:10BC0000006181612068816921F48061816120681F
:10BC100081692A6941EA0221816127E02946206879
:10BC200000F012FF2068C16941F00801C16120687D
:10BC3000C16921F00401C1612068C1692A69114309
:10BC4000C16113E02946206800F03AFF2068C1690D
:10BC500041F40061C1612068C16921F48061C16162
:10BC60002068C1692A6941EA0221C161002084F883
:10BC70003C0070BD10B50446002C03D094F83D0084
:10BC800010B10EE0012010BD002084F83C002046D9
:10BC900000F042FF206E08B911482066216E204650
:10BCA0008847022084F83D00211D206800F000FE36
:10BCB000012084F8460084F83E0084F83F0084F8B0
:10BCC000400084F8410084F8420084F8430084F87E
:10BCD000440084F8450084F83D00002010BD0000B9
:10BCE000E5BC000808B500680649884208D1064846
:10BCF000C16941F00201C161C06900F00200009019
:10BD000008BD00000004004000100240704770476A
:10BD100010B50446002909D004290AD008290BD0FF
:10BD200094F8410001280AD0012010BD94F83E008B
:10BD3000F8E794F83F00F5E794F84000F2E70220B6
:10BD400089B304293DD008293ED084F8410001225E
:10BD5000206800F0F5FD1E4920681E4A884201D087
:10BD6000904203D1436C43F400434364206888420B
:10BD70001AD0904218D0B0F1804F15D0A0F1804178
:10BD8000B1F5806110D0A0F18041B1F500610BD018
:10BD9000A0F18041B1F5406106D0016841F0010198
:10BDA0000160002010BD09E0816801F0070106294B
:10BDB000F7D0016841F001010160F2E784F83E002C
:10BDC000C5E784F83F00C2E784F84000BFE7000001
:10BDD000002C0140003401407047704702460020AB
:10BDE000002908D0042909D008290AD00C2901D13A
:10BDF0001068006C70471068406B70471068806B6B
:10BE000070471068C06B70470023002A18D090F864
:10BE10003CC0BCF1010F15D04FF0010C80F83CC0C4
:10BE200090F83DC0BCF1010F0ED090F83DC0BCF1C0
:10BE3000000F60D00123002180F83C1018467047A5
:10BE400001207047022070471B2952D2DFE801F021
:10BE50000E10121416181A1C1E20222426282A2D11
:10BE6000303336393C3F4245484B4E008264E2E76E
:10BE7000C264E0E70265DEE74265DCE78265DAE797
:10BE8000C265D8E70266D6E74266D4E78266D2E7A3
:10BE9000C266D0E70267CEE74267CCE78267CAE7AF
:10BEA000C267C8E7C0F88020C5E7C0F88420C2E7B1
:10BEB000C0F88820BFE7C0F88C20BCE7C0F890200D
:10BEC000B9E7C0F89420B6E7C0F89820B3E7C0F807
:10BED0009C20B0E7C0F8A020ADE7C0F8A420AAE7F6
:10BEE000C0F8A820A7E7C0F8AC20A4E7C0F8B020AD
:10BEF000A1E701239FE70E2924D2DFE801F007091B
:10BF00000B0D0F11131517191B1D1F21826492E7CA
:10BF1000C26490E702658EE742658CE782658AE736
:10BF2000C26588E7026686E7426684E7826682E742
:10BF3000C26680E702677EE742677CE782677AE74E
:10BF4000C26778E7012376E770477047704770B59E
:10BF500004462068C16821F49071C160206841697D
:10BF600021F001014161206B012804D12068C168E2
:10BF700021F01001C160206841694FF0000511F007
:10BF8000400F0FD0416921F040014161A06B48B1E1
:10BF90004563A06BFEF74EF920B1A06BFEF728FABF
:10BFA000202806D0E585202084F83E002563002067
:10BFB00070BD10202064032070BD000008B500682B
:10BFC0000F4988421BD10F488168491C81600021BC
:10BFD0000170817004F082FF0B48006801684168BD
:10BFE000009101684168009101684068009005492E
:10BFF0000122BDE80840491C034800F03AB908BDD9
:10C0000000440040C4020020F8150020F8B50446A2
:10C0100022681068D168536900F00F0CBCF1000F62
:10C020000AD110F0200F07D011F0200F04D02046C5
:10C03000BDE8F84000F00BBF0025BCF1000F6DD04B
:10C0400003F0010C01F490765CEA060666D010F06D
:10C05000010F06D011F4807F03D0226C42F0010260
:10C06000226410F0040F06D013F0010F03D0226CED
:10C0700042F00202226410F0020F06D013F0010F0A
:10C0800003D0226C42F00402226410F0080F08D0A2
:10C0900001F0200252EA0C0203D0226C42F00802A6
:10C0A0002264226C002A2FD010F0200F05D011F04E
:10C0B000200F02D0204600F0CAFE20684069C0F37D
:10C0C0008010216C11F0080F00D110B3204600F051
:10C0D00099FE2068416911F0400F16D0416921F0A6
:10C0E00040014161A06B60B147494163A06BFEF71D
:10C0F000C5F8002808D0A06B416B01B0BDE8F04046
:10C1000008472046FFF75AFFF8BD2046FFF756FFC5
:10C11000F8BD2046FFF752FF2564F8BD236B012BC5
:10C120005BD110F0100F58D011F0100F55D01068DF
:10C130005068009050694FF0200310F0400F2ED04F
:10C14000A16B0868406880B20028E6D0B4F82CC023
:10C150008445E2D9E0858869202818D0D06820F489
:10C160008070D0602068416921F001014161206840
:10C17000416921F04001416184F83E302563206827
:10C18000C16821F01001C160A06BFEF753F8A08DCB
:10C19000E18D401A81B22046FFF7D8FEF8BDA08D90
:10C1A000E18D401A81B2E08D0028F7D00029F5D04A
:10C1B000D06820F49070D0602068426922F00102BB
:10C1C000426184F83E3025632068C26822F0100284
:10C1D000C2602046FFF7BAFEF8BD10F0800F07D00E
:10C1E00011F0800F04D02046BDE8F84000F00DBFEC
:10C1F00010F0400FF0D011F0400FEDD02046BDE818
:10C20000F84000F017BE0000B9CD000870B5044634
:10C21000002C04D094F83D00002510B106E0012068
:10C2200070BD84F83C50204600F022F8242084F8A9
:10C230003D002068C16821F40051C160204600F033
:10C2400065FE2068016921F490410161206841691F
:10C2500021F02A0141612068C16841F40051C160A8
:10C260002564202084F83D0084F83E00002070BD45
:10C27000704790F83E30202B01D00220704759B112
:10C2800052B190F83C30012B08D0012380F83C30AB
:10C290000023036300F09EBE012070470220704718
:10C2A00010B500680A49884211D10A4CA168B1F55D
:10C2B000806F03D24068C0B209F032FAA168064824
:10C2C00001220144BDE810404438FFF7D2BF10BD41
:10C2D00000380140D80200203417002010B5044671
:10C2E00000680F49884215D10E490878032811D1FA
:10C2F0008A780879824201D2521C8A70D2B2824274
:10C3000002D30420087005E0C8688118012206489D
:10C31000FFF7AFFF2046BDE81040FFF7C1BF0000A8
:10C3200000440040C4020020F815002037B5044640
:10C3300094F83D00202802D003B0022030BD0199BE
:10C3400000292FD0002A2DD094F83C0001282CD0B1
:10C35000012084F83C002162A284E2840025256447
:10C36000212084F83D00636B11489862606BC562C0
:10C37000606B0563606B45632068134600F1040C35
:10C380006246606BFEF7F4F921686FF040000860C8
:10C3900084F83C502068416941F08001416103B05C
:10C3A000002030BD03B0012030BD03B0022030BDFD
:10C3B000C9CD000890F83D30202B01D002207047F5
:10C3C000A9B1A2B190F83C30012B12D00162828455
:10C3D000C28400210164212280F83D2080F83C10B5
:10C3E0000068C16841F08001C160002070470120F1
:10C3F00070470220704700000068094988420DD14B
:10C4000008498888401C80B288804A88904205D2BA
:10C41000C968012201440448FFF7CCBF70470000FF
:10C4200000380140D8020020F016002070B5054603
:10C4300000681449884220D1134C2146A078E27844
:10C44000C968904208D2014401221048FFF7B2FFA8
:10C45000A078401CA07010E022780020022A0BD1A6
:10C4600003222270A070207928B121B1012207484F
:10C47000FFF7FFFE01E0042020702846BDE8704071
:10C48000FFF7BABF00440040C4020020F8150020A6
:10C49000FEE700000449097B19B100210180012059
:10C4A0007047002070470000700200203EB5002158
:10C4B000234800910191214A029102609215826005
:10C4C00001240473017504254FF460220561C261E3
:10C4D0004160FDF725FD08B1FDF71AFB0820CDE905
:10C4E00000040624694616480294FDF781FC08B151
:10C4F000FDF70EFB092000900220CDE901046946FA
:10C500000F48FDF775FC08B1FDF702FB032000950D
:10C51000CDE9010469460A48FDF76AFC08B1FDF758
:10C52000F7FACDE90045694605480294FDF760FC3D
:10C53000002801D0FDF7ECFA3EBD000000240140C8
:10C54000341B0020094808B5416941F001014161EF
:10C550004069002200F0010000900A210B20FEF744
:10C56000E5FBBDE808400B20FEF7D2BB00100240FF
:10C5700070B586B000241C48009401940294039482
:10C58000816941F004018161816901F00401049134
:10C59000816941F020018161816901F020010491EC
:10C5A000816941F008018161816901F0080104910C
:10C5B000816941F0100181618069012200F0100061
:10C5C0000A4ED503049029463046FEF700FB0120B1
:10C5D0000095CDE901040220039069463046FEF73C
:10C5E000E3F906B070BD00000010024000080140F1
:10C5F000FEE77047F8B50546694604F0A9FA234AF4
:10C60000002350B3022832D0032835D0BDF80000F3
:10C610001F4E00EB800102EB410156F8207006EB43
:10C6200080007D1B406805EB8505381A6D00B5FB61
:10C63000F0F0084401B22046164C61F31F40B4F9F3
:10C640000450A94204DA914202DD491C61F31F4003
:10C650000114A18063F30700F8BDBDF8000000EBF2
:10C66000800002EB4001204661F31F40F2E72046C4
:10C6700062F31F40012105E040F2E241204661F3F0
:10C680001F40022161F30700F8BD000070FEFFFFAC
:10C690005CD501080403002010B50D4C4FF49670D2
:10C6A000A0606078002812D00020607009480088DF
:10C6B00080B2A0F57061FF3901D1401E80B20649F9
:10C6C000B1FBF0F0A0F59670FFF794FFE06010BDAD
:10C6D00004030020B81B0020D4BE1200024840789A
:10C6E000002800D0012070474803002001A003F07B
:10C6F000CBBF00005B4F54415D5B575D206D6F64A5
:10C70000756C652066732073746F7265206469733D
:10C7100061626C65643A2069676E6F7265206C6552
:10C720006E3D25750D0A00007047000081B0074975
:10C730004FF4FA520968B1FBF2F14843009000BF90
:10C740000098411E0091FAD201B0704714000020F9
:10C75000014900200870704748030020704700001E
:10C76000074A1378984207D15378052B02D25B1CF5
:10C7700053707047087070471070002050707047F9
:10C78000C002002070B5194CA079A0F5FA60C0B2C3
:10C7900002F0B9F804F10A05A871607902F0B3F863
:10C7A0002871207902F0AFF8E870E0886179227989
:10C7B000FDF763FA401CC0B2E07002F0A4F86871A3
:10C7C000A07802F0A0F8A870607802F09CF8687079
:10C7D000207802F098F828700722294604A008F073
:10C7E00030FD2846BDE87040FDF778B98C07002081
:10C7F0007365742074696D650000000010B5FEF764
:10C800002DFABDE810400AF03DBB30B595B02821A7
:10C810006846FBF7E6FC142110A8FBF7E2FC1821A0
:10C820000AA8FBF7DEFC01210804CDE90010002571
:10C83000029502240491CDE907404FF4E0100990DD
:10C840006846FEF701FD08B1FDF762F910A90F2057
:10C8500081E831004FF48060CDE91305022110A872
:10C86000FEF7D0FB08B1FDF753F910200F950A90A1
:10C870000AA8FEF72FFB08B1FDF74AF94FF4004074
:10C880000C900A940AA8FEF725FB002801D0FDF7BA
:10C890003FF915B030BD70470148FFF785B800007B
:10C8A000DC0B00200148FFF77FB80000440D00209A
:10C8B000F0B40268DFF874C01D4C1E4D1E4E1F4BB5
:10C8C00060450AD0984208D0B0F1804F05D0A04210
:10C8D00003D0A84201D0B04203D122F070024F68C9
:10C8E0003A4360450AD0984208D0B0F1804F05D055
:10C8F000A04203D0A84201D0B04203D122F440723A
:10C90000CC6822434C6922F08002224302608A688C
:10C91000C2620A688262604501D0984201D1096909
:10C92000016301214161F0BC70470000002C01400F
:10C930000004004000080040000C004000340140AA
:10C9400001F01F0101238B40D0F820C02CEA030323
:10C950000362036A02FA01F11943016270470000A1
:10C9600070B4026A22F001020262036A4268D0F8DF
:10C9700018C02CF0700C2CF0030C0C6844EA0C0C62
:10C9800023F002038C6823430F4C104DA04201D0CA
:10C99000A84205D123F00803CE68334323F00403F3
:10C9A000A04201D0A84207D122F4807222F4007282
:10C9B0004C6922438C6922434260C0F818C0496820
:10C9C0004163036270BC7047002C01400034014099
:10C9D00070B4026A22F010020262036A4268D0F860
:10C9E00018C02CF4E04C2CF4407C0C684CEA042C6D
:10C9F00023F020038C6843EA0413114C114DA0422C
:10CA000001D0A84206D123F08003CE6843EA061382
:10CA100023F04003A04201D0A84209D122F4806251
:10CA200022F400624C6942EA84028C6942EA840280
:10CA30004260C0F818C049688163036270BC7047E7
:10CA4000002C01400034014070B4026A22F480726C
:10CA50000262036A4268D0F81CC02CF0700C2CF003
:10CA6000030C0C6844EA0C0C23F400738C6843EA52
:10CA70000423114C114DA04201D0A84206D123F449
:10CA80000063CE6843EA062323F48063A04201D00A
:10CA9000A84209D122F4805222F400524C6942EAA1
:10CAA00004128C6942EA04124260C0F81CC0496852
:10CAB000C163036270BC7047002C01400034014028
:10CAC00010B4026A22F480520262D0F820C0426898
:10CAD000C36923F4E04323F440730C6843EA04235E
:10CAE0002CF4005C8C684CEA043CA0F18044B4F562
:10CAF000963404D0A0F18044B4F59A3404D122F4E1
:10CB000080424C6942EA84124260C3614968016410
:10CB1000C0F820C010BC70471349C0F880101349FA
:10CB2000C0F884101249C0F888101249C0F88C105F
:10CB30001149C0F890101149C0F894101049C0F87C
:10CB400098101049C0F89C100F49C0F8A0100F4968
:10CB5000C0F8A4100E49C0F8A8100E49C0F8AC10D7
:10CB60000D49C0F8B0107047D9BD0008DBBD000802
:10CB700049BF00084BBF0008CDB700081DB800082A
:10CB8000A1BB00080DBD00080FBD0008CBB7000811
:10CB90009FB60008A1B600089DB6000830B4D0F8D2
:10CBA00020C02CF0010CC0F820C0D0F818C0046AD6
:10CBB000A0F18045B5F5963528D0A0F18045B5F5B2
:10CBC0009A3523D0B0F1804F20D0A0F18045B5F543
:10CBD00080651BD0A0F18045B5F5006516D0A0F1A9
:10CBE0008045B5F5406511D04CF0010222F0F0020D
:10CBF0004FF0F00C0CEA03131A4324F00A0301F07F
:10CC00000A0119438261016230BC70472CF0030CA9
:10CC10004CEA0202EAE710B4D0F820C02CF0100C65
:10CC2000C0F820C08469D0F820C024F4407444EADD
:10CC3000022222F470424FF4704404EA03331A4390
:10CC40002CF0A0034FF0A00C0CEA011119438261F3
:10CC5000016210BC704710B4D0F820C02CF4807C66
:10CC6000C0F820C0C469D0F820C024F003042243D7
:10CC700022F0F002F02404EA03131A432CF40073A8
:10CC80004FF4007C0CEA01211943C261016210BC1F
:10CC9000704710B4D0F820C02CF4805CC0F820C0DD
:10CCA000C469D0F820C024F4407444EA022222F47B
:10CCB00070424FF4704404EA03331A432CF40053D7
:10CCC0004FF4005C0CEA01311943C261016210BCEF
:10CCD0007047000000B585B0002001900A488169C6
:10CCE00041F0080181618069694600F00800049004
:10CCF0004FF400500090022002900320039003485C
:10CD0000FDF752FE05B000BD00100240000C0140CE
:10CD10000C4800B5816985B041F0080181618069E6
:10CD2000694600F0080004904FF400500090012084
:10CD300001900290032003900348FDF735FE05B0F3
:10CD400000BD000000100240000C014000B585B09D
:10CD50000020019003900A48816941F00801816137
:10CD60008069694600F0080004904FF4005000907C
:10CD7000012002900348FDF717FE05B000BD00003A
:10CD800000100240000C014001488068704700001C
:10CD9000A4030020421807498968824205D39142C2
:10CDA00001D2814203D2012070479142F9D800207C
:10CDB00070470000A403002010B5406A0021C1851F
:10CDC000C184FFF7FBF810BD10B50146486A096839
:10CDD000096811F0200F02D0FFF728FB10BD0021D9
:10CDE000C18401684A6922F080024A610168CA6808
:10CDF00042F04002CA60202180F83D10BDE810409A
:10CE000004F064BC0168CA6822F49072CA600168C8
:10CE10004A6922F001024A61016B012904D10168CB
:10CE2000CA6822F01002CA60202180F83E1000215A
:10CE30000163704710B50168CA6822F04002CA60F9
:10CE4000202180F83D10FFF7F1FA002010BD08B551
:10CE500090F83E10222901D0022008BD8268B2F568
:10CE6000805F01D1016929B1816AB2F5805F1DD06F
:10CE700052B10BE0816A02685268C2F308020A806C
:10CE8000816A891C816209E002697AB1026852688C
:10CE900002F07F020A70816A491C8162C18D491EBD
:10CEA0000904090CC18505D0002008BD026852683C
:10CEB0000A70F0E70168CA6822F02002CA600168BF
:10CEC000CA6822F48072CA6001684A6922F00102CD
:10CED0004A61202180F83E10016B012903D0FFF741
:10CEE000FDF9002008BD002101630168CA6822F035
:10CEF0001002CA6001680A6812F0100F02D00A68B6
:10CF000049680091818DFFF721F8EAE770B5044682
:10CF100020680169E26821F44051114301612169EF
:10CF2000A0680843616901432068C26822F4037263
:10CF300022F4A0521143C16020684169A26921F422
:10CF40004071114341612068A0F18041B1F59C31ED
:10CF50003AD0FEF71DF900EBC00101EB001061684B
:10CF60001B4A8900B0FBF1F3A2FB0353B0FBF1FCB9
:10CF70005B096FF018056B430CEB83034FF0320C29
:10CF80000CEB0313A2FB03535B0903F0F005B0FBAA
:10CF9000F1F3A2FB03635B0905EB0313B0FBF1F5AF
:10CFA000B0FBF1F0A2FB001040096FF018014843FC
:10CFB00005EB80000CEB0010A2FB00102168C0F311
:10CFC00043101844886070BDFEF7F2F8C3E7000014
:10CFD0001F85EB5181628285C28500210164222276
:10CFE00080F83E2080F83C100168CA6842F48072E4
:10CFF000CA6001684A6942F001024A610068C1687A
:10D0000041F02001C1600020704790F83D102129B7
:10D0100001D0022070478168B1F5805F01D10169BC
:10D0200061B1016A4A1C0262026809785160C18CD0
:10D03000491E0904090CC1840AD013E0016A026880
:10D040000988C1F308015160016A891C0162EEE799
:10D050000168CA6822F08002CA600068C16841F0B5
:10D060004001C160002070470148FEF7CFBF0000BB
:10D07000F01600200148FEF7C9BF0000F815002097
:10D080007047FEE77047000010B50D4CC01D20F042
:10D090000700616B236B0A1820469A42C06A0BD9BD
:10D0A0000849884206D1E07820B907A003F0ECFADD
:10D0B0000120E070002010BD0844626310BD000034
:10D0C00074040020086B0020545820506F6F6C20AF
:10D0D0004578686175737465640D0A002DE9FE4F2B
:10D0E0000AF0D8F9D04C2527DFF840936078002665
:10D0F00001254FF00B084FF0020B42F2107A252861
:10D1000040D2DFE800F03F131643556EA9E2F6F572
:10D11000F4F3F2F1F0EF3F3F3F3F3F3F3F3F3F3FF0
:10D120003F3F3F3F3F3FEE3F3F3FED0008F074FA87
:10D1300026E001F0CFFB012824D1BB496683002201
:10D140001A31BB4808F04EF900281BD0B9A1B848E5
:10D15000FBF75BF828B16570BDE8FE4FB94803F0F6
:10D1600093BAB9A1B248FBF750F830B1FFF70CFE03
:10D17000AD4980314860032071E32078022803D252
:10D1800084F801B0BDE8FE8F2670FBE7A6484FF497
:10D19000C87180304068FFF7FDFD0028F2D00523FC
:10D1A000AAA20F21AAA0009508F07AFC0420FDE3B2
:10D1B00008F046FC0128E5D108F002FDFFF7C8FAA7
:10D1C000A7480570A7A003F05FFAB3A005F0B2FD71
:10D1D00014239EA20E21B0A0009608F061FC052049
:10D1E000E4E308F02DFC0128CCD19148FBF735F899
:10D1F0000104090C02D08E4805F08EFD05F0B8FD43
:10D20000012807D0A8A003F03FFA6770BDE8FE4FE1
:10D2100008F0A0BD06F0C2FB01286BD1618C00961E
:10D22000CDE9019101020123ACA2B54801F086FBD2
:10D23000B4A003F029FAB24805F07CFD05F078FCB3
:10D24000AF48FBF70AF881B2AD4805F073F9FFF774
:10D250009BFD20630620A9E30AF01CF9B149206B6D
:10D26000FFF798FD28B1B0A003F00EFA0021B6A098
:10D27000D1E26D4900221A316D4808F0B3F8002858
:10D2800080D0618B6A4805F047FDB3A16848FAF782
:10D29000BCFF40B1B4A003F0F7F905F049FCBDE8CC
:10D2A000FE4F06F023BAB7A16148FAF7AEFF28B9DE
:10D2B000B7A15F48FAF7A9FF00287DD05C49B6A066
:10D2C00003F0E2F90021BEA0D2E70AF0E3F840F64D
:10D2D000B831206BFFF75EFD082560B1BBA020E0F0
:10D2E000FEE3FEE3FEE3FEE3CAE362E3FDE2BDE24A
:10D2F00078E026E0F8E34C4900221A314C4808F067
:10D3000071F80028BCD0618B494805F005FD4849FB
:10D31000BBA003F0B9F94DA14548FAF776FF18B163
:10D32000C0A003F0B1F909E099A14148FAF76DFFF7
:10D330000028C2D03E49C5A003F0A6F905F0F8FBCD
:10D34000EDE3618C394BCDE900915033CA4A4FF47B
:10D3500080716B4801F0F2FA002801DDFF2805DD3D
:10D36000C6A003F091F90021CDA081E785B200238A
:10D37000D0A22021D34801F0E1FA002801DD2028C5
:10D3800005DBD1A003F080F90021DAA070E72A467E
:10D39000DDA1E1A003F078F9CA4805F0CBFC05F067
:10D3A000C7FB06F097F8C748FAF757FF81B2C548A0
:10D3B00005F0C0F8054600E004E3C248FAF74DFF67
:10D3C00002462946DFA003F05FF935B12946E9A0FE
:10D3D00003F05AF90021F4A01DE2FFF7D5FC206309
:10D3E0000920E3E241F2883006F0E2F901280AD090
:10D3F000022817D003287FF4C8AEF1A006F086F803
:10D400000021EFA007E23E48FAF727FF85B2294640
:10D41000F1A003F039F9681C86B2B6F5817F02D31A
:10D420003146F3E11CE2F7E1B8030020D8490020BF
:10D43000AD1D0020504F574552454420444F574E94
:10D440000000000014E30108524459004F4B000053
:10D4500041542B514D54434C4F53453D300D0A0020
:10D46000490300205B4F54415D5B495D2072617749
:10D4700020746370206D6F64653A20627970617307
:10D4800073206D6F64756C6520485454502073741C
:10D4900061636B0D0A00000041542B5149434C4F0E
:10D4A00053453D300D0A00005B4F54415D5B455DC7
:10D4B00020646F776E6C6F6164206661696C65646F
:10D4C0003A2075726C20746F6F206C6F6E67206FDE
:10D4D0007220696E76616C69640D0A0041542B51AB
:10D4E000494F50454E3D25752C25752C22544350EF
:10D4F000222C222573222C25752C302C300D0A006D
:10D50000984C00205B4F54415D5B495D2072617710
:10D5100020746370206F70656E2073746172740D77
:10D520000A000000F04902005B4F54415D5B455D1D
:10D530002072617720746370206F70656E2074694B
:10D540006D656F75740D0A006F70656E5F74696D3F
:10D55000656F7574000000002B51494F50454E3ADD
:10D5600020302C30000000005B4F54415D5B495D72
:10D570002072617720746370206F70656E206F6B0E
:10D580000D0A00002B51494F50454E3A0000000053
:10D590004552524F520000005B4F54415D5B455D68
:10D5A0002072617720746370206F70656E206661F1
:10D5B000696C6564206C696E653D25730D0A000019
:10D5C0006F70656E5F6661696C6564005B4F5441A6
:10D5D0005D5B575D207261772074637020716973A1
:10D5E000656E642071756572792074696D656F75FB
:10D5F000742C20636F6E74696E75650D0A000000EF
:10D600005B4F54415D5B445D2072617720746370B1
:10D6100020716973656E6420717565727920727806
:10D620003D2573005B4F54415D5B495D207261771E
:10D630002074637020716973656E64207175657202
:10D640007920646F6E650D0A000000005B4F544145
:10D650005D5B575D20726177207463702071697320
:10D66000656E64207175657279206572726F7220C3
:10D670006C696E653D25730078DA01085B4F544193
:10D680005D5B455D20726177207463702072657107
:10D690007565737420746F6F206C6F6E670D0A0070
:10D6A000726571756573745F746F6F5F6C6F6E67B1
:10D6B0000000000041542B514953454E443D25750F
:10D6C0000D0A0000984D00205B4F54415D5B455DA5
:10D6D000207261772074637020716973656E6420B5
:10D6E000636F6D6D616E6420746F6F206C6F6E6719
:10D6F0000D0A0000716973656E645F636D645F7429
:10D700006F6F5F6C6F6E67006E6F5F6C656E5F63EF
:10D7100074726C5F7A0000005B4F54415D5B495D41
:10D72000207261772074637020716973656E642064
:10D730006D6F64653D2573206C656E3D25750D0A22
:10D74000000000005B4F54415D5B445D20726177D7
:10D750002074637020716973656E642075617274E2
:10D76000207265743D2575206C656E3D25750D0A2A
:10D77000000000005B4F54415D5B455D20726177A6
:10D780002074637020716973656E642075617274B2
:10D790002073656E64206661696C656420726574CF
:10D7A0003D25750D0A000000716973656E645F7533
:10D7B0006172745F73656E645F6661696C0000001E
:10D7C000716973656E645F70726F6D70745F746998
:10D7D0006D656F75740000005B4F54415D5B495D82
:10D7E0002072617720746370206874747020726591
:10D7F0007175657374207061796C6F6164207365F5
:10D800006E74206C656E3D25750D0A00C5A002F092
:10D810003BFF0021D0A064E3D6492A4601F5907071
:10D82000FAF7B8FCD4491A2048553146D24805F0D9
:10D830008DFA3146D04804F07DFE05460146324659
:10D84000CEA002F021FF35B12946D9A002F01CFF7D
:10D850000021E5A045E3FFF797FA20630A20A5E041
:10D86000E9A005F053FE0021E7A03AE309F012FE1B
:10D8700044F62061206BFFF78DFA28B1E6A002F094
:10D8800003FF0021ECA02CE30022EF49EF4807F052
:10D89000A9FD00283FF479AC618BEC4805F03CFA17
:10D8A000EBA1EA48FAF7B1FC68B1EBA002F0ECFE9C
:10D8B00006F0C0F905F04EFDFFF766FA20676067D5
:10D8C00005F036F9FEE2EBA1E048FAF79EFC30B92C
:10D8D000AFF24431DD48FAF798FC002872D0E8A096
:10D8E00002F0D2FE0021EEA0FBE209F0D3FD607A47
:10D8F00070B9207B08280BD0A07C217A08430AD07D
:10D90000EAA0226C216E02F0BFFE0121F5A0E8E240
:10D910000021F8A0E5E2FC49206FFFF73BFA40B197
:10D92000D4E90F32F948216E02F0AEFE0021F8A0D2
:10D93000D7E24EF66021606FFFF72CFAB0B1E07CC1
:10D940000090D4E90F32F748216E02F09DFE0021CD
:10D95000F5A0C6E2618BBD4805F0DEF9F7A1BB4832
:10D96000FAF753FC00B1E57405F0E2F80022B6497D
:10D97000B64807F037FD0028ECD14FF40070411095
:10D9800000900023F2A27B4800F0D8FF794805F010
:10D99000D1F905F0CDF87748FAF75FFC81B2754808
:10D9A00004F0C8FDFFF7F0F920630C206070BDE8BB
:10D9B000FE8F09F06FFD41F28831206BFFF7EAF925
:10D9C00038B100E002E3E6A002F05EFE0021EFA025
:10D9D00087E200229C499D4807F004FD0028E6D01C
:10D9E000618B9A4805F098F998486F46EBA1FAF7D1
:10D9F0000CFC88B3801D00E0401C01782029FBD07E
:10DA0000002211466FF02F0C08E000BF02EB8202EB
:10DA1000491C0CEB42021A44C9B2401C0378A3F122
:10DA20003008B8F1090FF1D9B1B140F2DC508242AF
:10DA300013D83A80BDF80000208540B12676FFF764
:10DA4000A3F960670D20607005F072F8AFE7207EE3
:10DA5000401C20760E20F6E7FFE7B8A17B48FAF7D6
:10DA6000D4FB00B1E574AFF2D8417848FAF7CDFBAA
:10DA70000028E9D0CBA002F007FE0021D1A03CE0B5
:10DA800009F008FD002518E09DF8000005F056FAA1
:10DA9000012809D0217BCEA0226E02F0F5FD0021E5
:10DAA000D9A005F0E3FD10E0208D401E6D1C2085FF
:10DAB000ADB2A80601D109F0EDFC208D28B1694670
:10DAC000D54802F0B9FD0028DED160780D28BDD11F
:10DAD000208DA8B141F28831206BFFF75BF904E09B
